{
  "_format": "hh-sol-artifact-1",
  "contractName": "CompoundDataProvider",
  "sourceName": "contracts/CompoundDataProvider.sol",
  "abi": [
    {
      "inputs": [
        {
          "components": [
            {
              "internalType": "contract IComptroller",
              "name": "comptroller",
              "type": "address"
            },
            {
              "internalType": "address",
              "name": "account",
              "type": "address"
            }
          ],
          "internalType": "struct CompoundDataProvider.Data_",
          "name": "args",
          "type": "tuple"
        }
      ],
      "name": "getAccountLiquidity",
      "outputs": [
        {
          "components": [
            {
              "internalType": "contract ICtoken[]",
              "name": "cTokens",
              "type": "address[]"
            },
            {
              "internalType": "uint256[]",
              "name": "collateralBalances",
              "type": "uint256[]"
            },
            {
              "internalType": "uint256[]",
              "name": "borrowBalances",
              "type": "uint256[]"
            },
            {
              "internalType": "uint256[]",
              "name": "assetPrices",
              "type": "uint256[]"
            },
            {
              "internalType": "uint256",
              "name": "shortFall",
              "type": "uint256"
            },
            {
              "internalType": "uint256",
              "name": "liquidity",
              "type": "uint256"
            },
            {
              "internalType": "uint256",
              "name": "healthFactor",
              "type": "uint256"
            },
            {
              "internalType": "address",
              "name": "account",
              "type": "address"
            }
          ],
          "internalType": "struct CompoundDataProvider.UserAccountData",
          "name": "",
          "type": "tuple"
        }
      ],
      "stateMutability": "view",
      "type": "function"
    },
    {
      "inputs": [
        {
          "internalType": "contract IComptroller",
          "name": "comptroller",
          "type": "address"
        }
      ],
      "name": "getAllMarkets",
      "outputs": [
        {
          "internalType": "contract ICtoken[]",
          "name": "pTokens",
          "type": "address[]"
        }
      ],
      "stateMutability": "view",
      "type": "function"
    },
    {
      "inputs": [
        {
          "internalType": "contract IComptroller",
          "name": "comptroller",
          "type": "address"
        },
        {
          "internalType": "contract IPriceOracle",
          "name": "priceFeed",
          "type": "address"
        },
        {
          "internalType": "address",
          "name": "WETH",
          "type": "address"
        }
      ],
      "name": "getMarkets",
      "outputs": [
        {
          "components": [
            {
              "internalType": "address",
              "name": "cToken",
              "type": "address"
            },
            {
              "internalType": "address",
              "name": "underlyingAsset",
              "type": "address"
            },
            {
              "internalType": "uint256",
              "name": "totalSupplied",
              "type": "uint256"
            },
            {
              "internalType": "uint256",
              "name": "totalBorrowed",
              "type": "uint256"
            },
            {
              "internalType": "uint256",
              "name": "totalAvailable",
              "type": "uint256"
            },
            {
              "internalType": "uint256",
              "name": "assetPrice",
              "type": "uint256"
            }
          ],
          "internalType": "struct CompoundDataProvider.MarketData[]",
          "name": "markets",
          "type": "tuple[]"
        }
      ],
      "stateMutability": "nonpayable",
      "type": "function"
    },
    {
      "inputs": [
        {
          "internalType": "contract IComptroller",
          "name": "comptroller",
          "type": "address"
        },
        {
          "internalType": "contract IPriceOracle",
          "name": "priceFeed",
          "type": "address"
        },
        {
          "internalType": "address",
          "name": "WETH",
          "type": "address"
        },
        {
          "internalType": "address",
          "name": "user",
          "type": "address"
        }
      ],
      "name": "getUserData",
      "outputs": [
        {
          "components": [
            {
              "internalType": "address",
              "name": "user",
              "type": "address"
            },
            {
              "internalType": "uint256",
              "name": "healthFactor",
              "type": "uint256"
            },
            {
              "internalType": "uint256",
              "name": "shortFall",
              "type": "uint256"
            },
            {
              "internalType": "uint256",
              "name": "liquidity",
              "type": "uint256"
            },
            {
              "components": [
                {
                  "internalType": "address",
                  "name": "cToken",
                  "type": "address"
                },
                {
                  "internalType": "address",
                  "name": "underlyingAsset",
                  "type": "address"
                },
                {
                  "internalType": "uint256",
                  "name": "amountSupplied",
                  "type": "uint256"
                },
                {
                  "internalType": "uint256",
                  "name": "amountBorrowed",
                  "type": "uint256"
                },
                {
                  "internalType": "uint256",
                  "name": "assetPrice",
                  "type": "uint256"
                },
                {
                  "internalType": "uint256",
                  "name": "exchangeRateCurrent",
                  "type": "uint256"
                },
                {
                  "internalType": "bool",
                  "name": "usageAsCollateralEnabled",
                  "type": "bool"
                }
              ],
              "internalType": "struct CompoundDataProvider.MarketUserData[]",
              "name": "markets",
              "type": "tuple[]"
            }
          ],
          "internalType": "struct CompoundDataProvider.UserData",
          "name": "",
          "type": "tuple"
        }
      ],
      "stateMutability": "nonpayable",
      "type": "function"
    }
  ],
  "bytecode": "0x608060405234801561001057600080fd5b50612b82806100206000396000f3fe608060405234801561001057600080fd5b506004361061004c5760003560e01c80631d7b17f71461005157806365bdb47c1461008157806388424b20146100b1578063dda971d6146100e1575b600080fd5b61006b60048036038101906100669190611b24565b610111565b6040516100789190611d81565b60405180910390f35b61009b60048036038101906100969190611da3565b610563565b6040516100a89190611ede565b60405180910390f35b6100cb60048036038101906100c69190611f00565b6105ef565b6040516100d8919061207d565b60405180910390f35b6100fb60048036038101906100f69190612180565b6109ec565b6040516101089190612390565b60405180910390f35b610119611824565b600061016460405180604001604052808873ffffffffffffffffffffffffffffffffffffffff1681526020018573ffffffffffffffffffffffffffffffffffffffff168152506109ec565b9050600081600001515167ffffffffffffffff811115610187576101866120b5565b5b6040519080825280602002602001820160405280156101c057816020015b6101ad611869565b8152602001906001900390816101a55790505b50905060008773ffffffffffffffffffffffffffffffffffffffff1663abfceffc866040518263ffffffff1660e01b81526004016101fe91906123c1565b60006040518083038186803b15801561021657600080fd5b505afa15801561022a573d6000803e3d6000fd5b505050506040513d6000823e3d601f19601f8201168201806040525081019061025391906124e7565b905060005b83602001515181101561050c5760008460000151828151811061027e5761027d612530565b5b6020026020010151905060008173ffffffffffffffffffffffffffffffffffffffff16636f307dc36040518163ffffffff1660e01b815260040160206040518083038186803b1580156102d057600080fd5b505afa92505050801561030157506040513d601f19601f820116820180604052508101906102fe9190612574565b60015b61030d57889050610312565b809150505b60008660200151848151811061032b5761032a612530565b5b6020026020010151905060008760400151858151811061034e5761034d612530565b5b6020026020010151905060008860600151868151811061037157610370612530565b5b6020026020010151905060008573ffffffffffffffffffffffffffffffffffffffff1663bd6d894d6040518163ffffffff1660e01b8152600401602060405180830381600087803b1580156103c557600080fd5b505af11580156103d9573d6000803e3d6000fd5b505050506040513d601f19601f820116820180604052508101906103fd91906125cd565b90506000805b8951811015610472578773ffffffffffffffffffffffffffffffffffffffff168a828151811061043657610435612530565b5b602002602001015173ffffffffffffffffffffffffffffffffffffffff16141561045f57600191505b808061046a90612629565b915050610403565b506040518060e001604052808873ffffffffffffffffffffffffffffffffffffffff1681526020018773ffffffffffffffffffffffffffffffffffffffff1681526020018681526020018581526020018481526020018381526020018215158152508a89815181106104e7576104e6612530565b5b602002602001018190525050505050505050808061050490612629565b915050610258565b506040518060a001604052808673ffffffffffffffffffffffffffffffffffffffff1681526020018460c001518152602001846080015181526020018460a001518152602001838152509350505050949350505050565b60608173ffffffffffffffffffffffffffffffffffffffff1663b0772d0b6040518163ffffffff1660e01b815260040160006040518083038186803b1580156105ab57600080fd5b505afa1580156105bf573d6000803e3d6000fd5b505050506040513d6000823e3d601f19601f820116820180604052508101906105e891906124e7565b9050919050565b606060008473ffffffffffffffffffffffffffffffffffffffff1663b0772d0b6040518163ffffffff1660e01b815260040160006040518083038186803b15801561063957600080fd5b505afa15801561064d573d6000803e3d6000fd5b505050506040513d6000823e3d601f19601f8201168201806040525081019061067691906124e7565b9050805167ffffffffffffffff811115610693576106926120b5565b5b6040519080825280602002602001820160405280156106cc57816020015b6106b96118d4565b8152602001906001900390816106b15790505b50915060005b81518110156109e35760008282815181106106f0576106ef612530565b5b6020026020010151905060008060008373ffffffffffffffffffffffffffffffffffffffff16636f307dc36040518163ffffffff1660e01b815260040160206040518083038186803b15801561074557600080fd5b505afa92505050801561077657506040513d601f19601f820116820180604052508101906107739190612574565b60015b61079c578792508373ffffffffffffffffffffffffffffffffffffffff1631905061082c565b8093508373ffffffffffffffffffffffffffffffffffffffff166370a08231866040518263ffffffff1660e01b81526004016107d891906123c1565b60206040518083038186803b1580156107f057600080fd5b505afa158015610804573d6000803e3d6000fd5b505050506040513d601f19601f8201168201806040525081019061082891906125cd565b9150505b60008473ffffffffffffffffffffffffffffffffffffffff166347bd37186040518163ffffffff1660e01b815260040160206040518083038186803b15801561087457600080fd5b505afa158015610888573d6000803e3d6000fd5b505050506040513d601f19601f820116820180604052508101906108ac91906125cd565b905060006108c38284610f0f90919063ffffffff16565b905060008b73ffffffffffffffffffffffffffffffffffffffff1663fc57d4df886040518263ffffffff1660e01b81526004016109009190612681565b60206040518083038186803b15801561091857600080fd5b505afa15801561092c573d6000803e3d6000fd5b505050506040513d601f19601f8201168201806040525081019061095091906125cd565b90506040518060c001604052808873ffffffffffffffffffffffffffffffffffffffff1681526020018773ffffffffffffffffffffffffffffffffffffffff168152602001838152602001848152602001858152602001828152508a89815181106109be576109bd612530565b5b60200260200101819052505050505050505080806109db90612629565b9150506106d2565b50509392505050565b6109f4611936565b6109fc611991565b6000610a0b8460000151610563565b905060008151905060008167ffffffffffffffff811115610a2f57610a2e6120b5565b5b604051908082528060200260200182016040528015610a5d5781602001602082028036833780820191505090505b50905060008267ffffffffffffffff811115610a7c57610a7b6120b5565b5b604051908082528060200260200182016040528015610aaa5781602001602082028036833780820191505090505b50905060008367ffffffffffffffff811115610ac957610ac86120b5565b5b604051908082528060200260200182016040528015610af75781602001602082028036833780820191505090505b50905060005b84811015610d7b576000868281518110610b1a57610b19612530565b5b6020026020010151905060008a6000015173ffffffffffffffffffffffffffffffffffffffff16637dc0d1d06040518163ffffffff1660e01b815260040160206040518083038186803b158015610b7057600080fd5b505afa158015610b84573d6000803e3d6000fd5b505050506040513d601f19601f82011682018060405250810190610ba891906126b1565b73ffffffffffffffffffffffffffffffffffffffff1663fc57d4df836040518263ffffffff1660e01b8152600401610be09190612681565b60206040518083038186803b158015610bf857600080fd5b505afa158015610c0c573d6000803e3d6000fd5b505050506040513d601f19601f82011682018060405250810190610c3091906125cd565b90506000610cf46040518061010001604052808c81526020018573ffffffffffffffffffffffffffffffffffffffff1681526020018481526020018e6000015173ffffffffffffffffffffffffffffffffffffffff1681526020018e6020015173ffffffffffffffffffffffffffffffffffffffff168152602001898781518110610cbe57610cbd612530565b5b60200260200101518152602001888781518110610cde57610cdd612530565b5b6020026020010151815260200186815250610f6d565b9050806000015199508060200151878581518110610d1557610d14612530565b5b6020026020010181815250508060400151868581518110610d3957610d38612530565b5b60200260200101818152505081858581518110610d5957610d58612530565b5b6020026020010181815250505050508080610d7390612629565b915050610afd565b5060008087600001511115610dfa57600087602001511115610dd357610dcc8760200151610dbe670de0b6b3a76400008a6000015161130490919063ffffffff16565b61137f90919063ffffffff16565b9050610df5565b610df2670de0b6b3a7640000886000015161130490919063ffffffff16565b90505b610e0c565b6d04ee2d6d415b85acef810000000090505b866020015187600001511115610e92576040518061010001604052808781526020018581526020018481526020018381526020016000815260200188602001518960000151610e5b91906126de565b81526020018281526020018a6020015173ffffffffffffffffffffffffffffffffffffffff16815250975050505050505050610f0a565b600087600001518860200151610ea891906126de565b9050604051806101000160405280888152602001868152602001858152602001848152602001828152602001600081526020018381526020018b6020015173ffffffffffffffffffffffffffffffffffffffff16815250985050505050505050505b919050565b6000808284610f1e9190612712565b905083811015610f63576040517f08c379a0000000000000000000000000000000000000000000000000000000008152600401610f5a906127c5565b60405180910390fd5b8091505092915050565b610f756119fc565b6000806000806000866020015173ffffffffffffffffffffffffffffffffffffffff1663c37f68e288608001516040518263ffffffff1660e01b8152600401610fbe91906123c1565b60806040518083038186803b158015610fd657600080fd5b505afa158015610fea573d6000803e3d6000fd5b505050506040513d601f19601f8201168201806040525081019061100e91906127e5565b8a600001516040018b600001516060018c60000151608001838152508381525083815250839650505050506000876060015173ffffffffffffffffffffffffffffffffffffffff16638e8f294b89602001516040518263ffffffff1660e01b815260040161107c91906123c1565b60606040518083038186803b15801561109457600080fd5b505afa1580156110a8573d6000803e3d6000fd5b505050506040513d601f19601f820116820180604052508101906110cc91906128dc565b905060405180602001604052808260200151815250886000015160c001819052506040518060200160405280896000015160800151815250886000015160e001819052508760400151886000015160a00181815250506040518060200160405280896000015160a001518152508860000151610100018190525061116a886000015160c00151896000015160e001518a6000015161010001516113c9565b896000015161012001819052819450505061119f886000015161012001518960000151604001518a6000015160000151611436565b89600001516000018181525081945050506111cb886000015161012001518960000151604001516114a5565b8960a0018181525081945050506111fc886000015161010001518960000151606001518a6000015160200151611436565b8960000151602001818152508194505050611228886000015161010001518960000151606001516114a5565b8960c0018181525081945050508173ffffffffffffffffffffffffffffffffffffffff16886020015173ffffffffffffffffffffffffffffffffffffffff1614156112c85761128988600001516101200151878a6000015160200151611436565b89600001516020018181525081945050506112b688600001516101000151868a6000015160200151611436565b89600001516020018181525081945050505b60405180606001604052808960000151815260200189600001516040015181526020018960000151606001518152509650505050505050919050565b6000808314156113175760009050611379565b600082846113259190612909565b90508284826113349190612992565b14611374576040517f08c379a000000000000000000000000000000000000000000000000000000000815260040161136b90612a35565b60405180910390fd5b809150505b92915050565b60006113c183836040518060400160405280601a81526020017f536166654d6174683a206469766973696f6e206279207a65726f00000000000081525061150c565b905092915050565b60006113d3611a23565b6000806113e0878761156f565b91509150600060038111156113f8576113f7612a55565b5b82600381111561140b5761140a612a55565b5b1461141d57818193509350505061142e565b611427818661156f565b9350935050505b935093915050565b60008060008061144687876116ba565b915091506000600381111561145e5761145d612a55565b5b82600381111561147157611470612a55565b5b146114845781600093509350505061149d565b61149661149082611740565b86611761565b9350935050505b935093915050565b6000806000806114b586866116ba565b91509150600060038111156114cd576114cc612a55565b5b8260038111156114e0576114df612a55565b5b146114f357816000935093505050611505565b60006114fe82611740565b9350935050505b9250929050565b60008083118290611553576040517f08c379a000000000000000000000000000000000000000000000000000000000815260040161154a9190612afb565b60405180910390fd5b50600083856115629190612992565b9050809150509392505050565b6000611579611a23565b60008061158e86600001518660000151611799565b91509150600060038111156115a6576115a5612a55565b5b8260038111156115b9576115b8612a55565b5b146115da5781604051806020016040528060008152509350935050506116b3565b6000806115fb6002670de0b6b3a76400006115f59190612992565b84611761565b915091506000600381111561161357611612612a55565b5b82600381111561162657611625612a55565b5b1461164957816040518060200160405280600081525095509550505050506116b3565b60008061165e83670de0b6b3a76400006117f1565b915091506000600381111561167657611675612a55565b5b82600381111561168957611688612a55565b5b1461169757611696612b1d565b5b6000604051806020016040528083815250975097505050505050505b9250929050565b60006116c4611a23565b6000806116d5866000015186611799565b91509150600060038111156116ed576116ec612a55565b5b826003811115611700576116ff612a55565b5b14611721578160405180602001604052806000815250935093505050611739565b60006040518060200160405280838152509350935050505b9250929050565b6000670de0b6b3a7640000826000015161175a9190612992565b9050919050565b600080600083856117729190612712565b9050848110611788576000819250925050611792565b6002600092509250505b9250929050565b60008060008414156117b157600080915091506117ea565b600083856117bf9190612909565b90508385826117ce9190612992565b146117e1576002600092509250506117ea565b60008192509250505b9250929050565b600080600083141561180a57600160009150915061181d565b600083856118189190612992565b915091505b9250929050565b6040518060a00160405280600073ffffffffffffffffffffffffffffffffffffffff168152602001600081526020016000815260200160008152602001606081525090565b6040518060e00160405280600073ffffffffffffffffffffffffffffffffffffffff168152602001600073ffffffffffffffffffffffffffffffffffffffff168152602001600081526020016000815260200160008152602001600081526020016000151581525090565b6040518060c00160405280600073ffffffffffffffffffffffffffffffffffffffff168152602001600073ffffffffffffffffffffffffffffffffffffffff168152602001600081526020016000815260200160008152602001600081525090565b60405180610100016040528060608152602001606081526020016060815260200160608152602001600081526020016000815260200160008152602001600073ffffffffffffffffffffffffffffffffffffffff1681525090565b6040518061014001604052806000815260200160008152602001600081526020016000815260200160008152602001600081526020016119cf611a23565b81526020016119dc611a23565b81526020016119e9611a23565b81526020016119f6611a23565b81525090565b6040518060600160405280611a0f611991565b815260200160008152602001600081525090565b6040518060200160405280600081525090565b6000604051905090565b600080fd5b600080fd5b600073ffffffffffffffffffffffffffffffffffffffff82169050919050565b6000611a7582611a4a565b9050919050565b6000611a8782611a6a565b9050919050565b611a9781611a7c565b8114611aa257600080fd5b50565b600081359050611ab481611a8e565b92915050565b6000611ac582611a6a565b9050919050565b611ad581611aba565b8114611ae057600080fd5b50565b600081359050611af281611acc565b92915050565b611b0181611a6a565b8114611b0c57600080fd5b50565b600081359050611b1e81611af8565b92915050565b60008060008060808587031215611b3e57611b3d611a40565b5b6000611b4c87828801611aa5565b9450506020611b5d87828801611ae3565b9350506040611b6e87828801611b0f565b9250506060611b7f87828801611b0f565b91505092959194509250565b611b9481611a6a565b82525050565b6000819050919050565b611bad81611b9a565b82525050565b600081519050919050565b600082825260208201905092915050565b6000819050602082019050919050565b60008115159050919050565b611bf481611bdf565b82525050565b60e082016000820151611c106000850182611b8b565b506020820151611c236020850182611b8b565b506040820151611c366040850182611ba4565b506060820151611c496060850182611ba4565b506080820151611c5c6080850182611ba4565b5060a0820151611c6f60a0850182611ba4565b5060c0820151611c8260c0850182611beb565b50505050565b6000611c948383611bfa565b60e08301905092915050565b6000602082019050919050565b6000611cb882611bb3565b611cc28185611bbe565b9350611ccd83611bcf565b8060005b83811015611cfe578151611ce58882611c88565b9750611cf083611ca0565b925050600181019050611cd1565b5085935050505092915050565b600060a083016000830151611d236000860182611b8b565b506020830151611d366020860182611ba4565b506040830151611d496040860182611ba4565b506060830151611d5c6060860182611ba4565b5060808301518482036080860152611d748282611cad565b9150508091505092915050565b60006020820190508181036000830152611d9b8184611d0b565b905092915050565b600060208284031215611db957611db8611a40565b5b6000611dc784828501611aa5565b91505092915050565b600081519050919050565b600082825260208201905092915050565b6000819050602082019050919050565b6000819050919050565b6000611e21611e1c611e1784611a4a565b611dfc565b611a4a565b9050919050565b6000611e3382611e06565b9050919050565b6000611e4582611e28565b9050919050565b611e5581611e3a565b82525050565b6000611e678383611e4c565b60208301905092915050565b6000602082019050919050565b6000611e8b82611dd0565b611e958185611ddb565b9350611ea083611dec565b8060005b83811015611ed1578151611eb88882611e5b565b9750611ec383611e73565b925050600181019050611ea4565b5085935050505092915050565b60006020820190508181036000830152611ef88184611e80565b905092915050565b600080600060608486031215611f1957611f18611a40565b5b6000611f2786828701611aa5565b9350506020611f3886828701611ae3565b9250506040611f4986828701611b0f565b9150509250925092565b600081519050919050565b600082825260208201905092915050565b6000819050602082019050919050565b60c082016000820151611f956000850182611b8b565b506020820151611fa86020850182611b8b565b506040820151611fbb6040850182611ba4565b506060820151611fce6060850182611ba4565b506080820151611fe16080850182611ba4565b5060a0820151611ff460a0850182611ba4565b50505050565b60006120068383611f7f565b60c08301905092915050565b6000602082019050919050565b600061202a82611f53565b6120348185611f5e565b935061203f83611f6f565b8060005b838110156120705781516120578882611ffa565b975061206283612012565b925050600181019050612043565b5085935050505092915050565b60006020820190508181036000830152612097818461201f565b905092915050565b600080fd5b6000601f19601f8301169050919050565b7f4e487b7100000000000000000000000000000000000000000000000000000000600052604160045260246000fd5b6120ed826120a4565b810181811067ffffffffffffffff8211171561210c5761210b6120b5565b5b80604052505050565b600061211f611a36565b905061212b82826120e4565b919050565b6000604082840312156121465761214561209f565b5b6121506040612115565b9050600061216084828501611aa5565b600083015250602061217484828501611b0f565b60208301525092915050565b60006040828403121561219657612195611a40565b5b60006121a484828501612130565b91505092915050565b600082825260208201905092915050565b60006121c982611dd0565b6121d381856121ad565b93506121de83611dec565b8060005b8381101561220f5781516121f68882611e5b565b975061220183611e73565b9250506001810190506121e2565b5085935050505092915050565b600081519050919050565b600082825260208201905092915050565b6000819050602082019050919050565b60006122548383611ba4565b60208301905092915050565b6000602082019050919050565b60006122788261221c565b6122828185612227565b935061228d83612238565b8060005b838110156122be5781516122a58882612248565b97506122b083612260565b925050600181019050612291565b5085935050505092915050565b60006101008301600083015184820360008601526122e982826121be565b91505060208301518482036020860152612303828261226d565b9150506040830151848203604086015261231d828261226d565b91505060608301518482036060860152612337828261226d565b915050608083015161234c6080860182611ba4565b5060a083015161235f60a0860182611ba4565b5060c083015161237260c0860182611ba4565b5060e083015161238560e0860182611b8b565b508091505092915050565b600060208201905081810360008301526123aa81846122cb565b905092915050565b6123bb81611a6a565b82525050565b60006020820190506123d660008301846123b2565b92915050565b600080fd5b600067ffffffffffffffff8211156123fc576123fb6120b5565b5b602082029050602081019050919050565b600080fd5b600061241d82611a6a565b9050919050565b61242d81612412565b811461243857600080fd5b50565b60008151905061244a81612424565b92915050565b600061246361245e846123e1565b612115565b905080838252602082019050602084028301858111156124865761248561240d565b5b835b818110156124af578061249b888261243b565b845260208401935050602081019050612488565b5050509392505050565b600082601f8301126124ce576124cd6123dc565b5b81516124de848260208601612450565b91505092915050565b6000602082840312156124fd576124fc611a40565b5b600082015167ffffffffffffffff81111561251b5761251a611a45565b5b612527848285016124b9565b91505092915050565b7f4e487b7100000000000000000000000000000000000000000000000000000000600052603260045260246000fd5b60008151905061256e81611af8565b92915050565b60006020828403121561258a57612589611a40565b5b60006125988482850161255f565b91505092915050565b6125aa81611b9a565b81146125b557600080fd5b50565b6000815190506125c7816125a1565b92915050565b6000602082840312156125e3576125e2611a40565b5b60006125f1848285016125b8565b91505092915050565b7f4e487b7100000000000000000000000000000000000000000000000000000000600052601160045260246000fd5b600061263482611b9a565b91507fffffffffffffffffffffffffffffffffffffffffffffffffffffffffffffffff821415612667576126666125fa565b5b600182019050919050565b61267b81611e3a565b82525050565b60006020820190506126966000830184612672565b92915050565b6000815190506126ab81611acc565b92915050565b6000602082840312156126c7576126c6611a40565b5b60006126d58482850161269c565b91505092915050565b60006126e982611b9a565b91506126f483611b9a565b925082821015612707576127066125fa565b5b828203905092915050565b600061271d82611b9a565b915061272883611b9a565b9250827fffffffffffffffffffffffffffffffffffffffffffffffffffffffffffffffff0382111561275d5761275c6125fa565b5b828201905092915050565b600082825260208201905092915050565b7f536166654d6174683a206164646974696f6e206f766572666c6f770000000000600082015250565b60006127af601b83612768565b91506127ba82612779565b602082019050919050565b600060208201905081810360008301526127de816127a2565b9050919050565b600080600080608085870312156127ff576127fe611a40565b5b600061280d878288016125b8565b945050602061281e878288016125b8565b935050604061282f878288016125b8565b9250506060612840878288016125b8565b91505092959194509250565b61285581611bdf565b811461286057600080fd5b50565b6000815190506128728161284c565b92915050565b60006060828403121561288e5761288d61209f565b5b6128986060612115565b905060006128a884828501612863565b60008301525060206128bc848285016125b8565b60208301525060406128d084828501612863565b60408301525092915050565b6000606082840312156128f2576128f1611a40565b5b600061290084828501612878565b91505092915050565b600061291482611b9a565b915061291f83611b9a565b9250817fffffffffffffffffffffffffffffffffffffffffffffffffffffffffffffffff0483118215151615612958576129576125fa565b5b828202905092915050565b7f4e487b7100000000000000000000000000000000000000000000000000000000600052601260045260246000fd5b600061299d82611b9a565b91506129a883611b9a565b9250826129b8576129b7612963565b5b828204905092915050565b7f536166654d6174683a206d756c7469706c69636174696f6e206f766572666c6f60008201527f7700000000000000000000000000000000000000000000000000000000000000602082015250565b6000612a1f602183612768565b9150612a2a826129c3565b604082019050919050565b60006020820190508181036000830152612a4e81612a12565b9050919050565b7f4e487b7100000000000000000000000000000000000000000000000000000000600052602160045260246000fd5b600081519050919050565b60005b83811015612aad578082015181840152602081019050612a92565b83811115612abc576000848401525b50505050565b6000612acd82612a84565b612ad78185612768565b9350612ae7818560208601612a8f565b612af0816120a4565b840191505092915050565b60006020820190508181036000830152612b158184612ac2565b905092915050565b7f4e487b7100000000000000000000000000000000000000000000000000000000600052600160045260246000fdfea2646970667358221220d0c22c9e7b63fae33b622491a9610b786eff4eb5c0df6de7f9193e784094842664736f6c63430008090033",
  "linkReferences": {},
  "deployedLinkReferences": {}
}