{
  "_format": "hh-sol-artifact-1",
  "contractName": "VenusDataProvider",
  "sourceName": "contracts/VenusDataProvider.sol",
  "abi": [
    {
      "inputs": [
        {
          "components": [
            {
              "internalType": "contract IComptroller",
              "name": "comptroller",
              "type": "address"
            },
            {
              "internalType": "address",
              "name": "account",
              "type": "address"
            }
          ],
          "internalType": "struct VenusDataProvider.Data_",
          "name": "args",
          "type": "tuple"
        }
      ],
      "name": "getAccountLiquidity",
      "outputs": [
        {
          "components": [
            {
              "internalType": "contract ICtoken[]",
              "name": "cTokens",
              "type": "address[]"
            },
            {
              "internalType": "uint256[]",
              "name": "collateralBalances",
              "type": "uint256[]"
            },
            {
              "internalType": "uint256[]",
              "name": "borrowBalances",
              "type": "uint256[]"
            },
            {
              "internalType": "uint256[]",
              "name": "assetPrices",
              "type": "uint256[]"
            },
            {
              "internalType": "uint256",
              "name": "shortFall",
              "type": "uint256"
            },
            {
              "internalType": "uint256",
              "name": "liquidity",
              "type": "uint256"
            },
            {
              "internalType": "uint256",
              "name": "healthFactor",
              "type": "uint256"
            },
            {
              "internalType": "address",
              "name": "account",
              "type": "address"
            }
          ],
          "internalType": "struct VenusDataProvider.UserAccountData",
          "name": "",
          "type": "tuple"
        }
      ],
      "stateMutability": "view",
      "type": "function"
    },
    {
      "inputs": [
        {
          "internalType": "contract IComptroller",
          "name": "comptroller",
          "type": "address"
        }
      ],
      "name": "getAllMarkets",
      "outputs": [
        {
          "internalType": "contract ICtoken[]",
          "name": "pTokens",
          "type": "address[]"
        }
      ],
      "stateMutability": "view",
      "type": "function"
    },
    {
      "inputs": [
        {
          "internalType": "contract IComptroller",
          "name": "comptroller",
          "type": "address"
        },
        {
          "internalType": "contract IPriceOracle",
          "name": "priceFeed",
          "type": "address"
        },
        {
          "internalType": "address",
          "name": "WETH",
          "type": "address"
        },
        {
          "components": [
            {
              "internalType": "uint256",
              "name": "from",
              "type": "uint256"
            },
            {
              "internalType": "uint256",
              "name": "to",
              "type": "uint256"
            }
          ],
          "internalType": "struct VenusDataProvider.Range",
          "name": "marketRange",
          "type": "tuple"
        }
      ],
      "name": "getMarkets",
      "outputs": [
        {
          "components": [
            {
              "internalType": "address",
              "name": "cToken",
              "type": "address"
            },
            {
              "internalType": "address",
              "name": "underlyingAsset",
              "type": "address"
            },
            {
              "internalType": "uint256",
              "name": "totalSupplied",
              "type": "uint256"
            },
            {
              "internalType": "uint256",
              "name": "totalBorrowed",
              "type": "uint256"
            },
            {
              "internalType": "uint256",
              "name": "totalAvailable",
              "type": "uint256"
            },
            {
              "internalType": "uint256",
              "name": "assetPrice",
              "type": "uint256"
            }
          ],
          "internalType": "struct VenusDataProvider.MarketData[]",
          "name": "markets",
          "type": "tuple[]"
        }
      ],
      "stateMutability": "nonpayable",
      "type": "function"
    },
    {
      "inputs": [
        {
          "internalType": "contract IComptroller",
          "name": "comptroller",
          "type": "address"
        },
        {
          "internalType": "contract IPriceOracle",
          "name": "priceFeed",
          "type": "address"
        },
        {
          "internalType": "address",
          "name": "WETH",
          "type": "address"
        },
        {
          "internalType": "address",
          "name": "user",
          "type": "address"
        },
        {
          "components": [
            {
              "internalType": "uint256",
              "name": "from",
              "type": "uint256"
            },
            {
              "internalType": "uint256",
              "name": "to",
              "type": "uint256"
            }
          ],
          "internalType": "struct VenusDataProvider.Range",
          "name": "marketRange",
          "type": "tuple"
        }
      ],
      "name": "getUserData",
      "outputs": [
        {
          "components": [
            {
              "internalType": "address",
              "name": "user",
              "type": "address"
            },
            {
              "internalType": "uint256",
              "name": "healthFactor",
              "type": "uint256"
            },
            {
              "internalType": "uint256",
              "name": "shortFall",
              "type": "uint256"
            },
            {
              "internalType": "uint256",
              "name": "liquidity",
              "type": "uint256"
            },
            {
              "components": [
                {
                  "internalType": "address",
                  "name": "cToken",
                  "type": "address"
                },
                {
                  "internalType": "address",
                  "name": "underlyingAsset",
                  "type": "address"
                },
                {
                  "internalType": "uint256",
                  "name": "amountSupplied",
                  "type": "uint256"
                },
                {
                  "internalType": "uint256",
                  "name": "amountBorrowed",
                  "type": "uint256"
                },
                {
                  "internalType": "uint256",
                  "name": "assetPrice",
                  "type": "uint256"
                },
                {
                  "internalType": "uint256",
                  "name": "exchangeRateCurrent",
                  "type": "uint256"
                },
                {
                  "internalType": "bool",
                  "name": "usageAsCollateralEnabled",
                  "type": "bool"
                }
              ],
              "internalType": "struct VenusDataProvider.MarketUserData[]",
              "name": "markets",
              "type": "tuple[]"
            }
          ],
          "internalType": "struct VenusDataProvider.UserData",
          "name": "",
          "type": "tuple"
        }
      ],
      "stateMutability": "nonpayable",
      "type": "function"
    }
  ],
  "bytecode": "0x608060405234801561001057600080fd5b50612c61806100206000396000f3fe608060405234801561001057600080fd5b506004361061004c5760003560e01c80630257ae201461005157806325765a101461008157806365bdb47c146100b1578063dda971d6146100e1575b600080fd5b61006b60048036038101906100669190611c8d565b610111565b6040516100789190611e3c565b60405180910390f35b61009b60048036038101906100969190611e5e565b61053b565b6040516100a891906120a7565b60405180910390f35b6100cb60048036038101906100c691906120c9565b6109b2565b6040516100d89190612204565b60405180910390f35b6100fb60048036038101906100f69190612276565b610a3e565b6040516101089190612486565b60405180910390f35b606060008573ffffffffffffffffffffffffffffffffffffffff1663b0772d0b6040518163ffffffff1660e01b815260040160006040518083038186803b15801561015b57600080fd5b505afa15801561016f573d6000803e3d6000fd5b505050506040513d6000823e3d601f19601f8201168201806040525081019061019891906125b3565b9050826000015183602001516101ae919061262b565b67ffffffffffffffff8111156101c7576101c6611b8c565b5b60405190808252806020026020018201604052801561020057816020015b6101ed611876565b8152602001906001900390816101e55790505b509150600080846000015190505b846020015181101561053057600083828151811061022f5761022e61265f565b5b6020026020010151905060008060008373ffffffffffffffffffffffffffffffffffffffff16636f307dc36040518163ffffffff1660e01b815260040160206040518083038186803b15801561028457600080fd5b505afa9250505080156102b557506040513d601f19601f820116820180604052508101906102b291906126a3565b60015b6102db578992508373ffffffffffffffffffffffffffffffffffffffff1631905061036b565b8093508373ffffffffffffffffffffffffffffffffffffffff166370a08231866040518263ffffffff1660e01b815260040161031791906126df565b60206040518083038186803b15801561032f57600080fd5b505afa158015610343573d6000803e3d6000fd5b505050506040513d601f19601f82011682018060405250810190610367919061270f565b9150505b60008473ffffffffffffffffffffffffffffffffffffffff166347bd37186040518163ffffffff1660e01b815260040160206040518083038186803b1580156103b357600080fd5b505afa1580156103c7573d6000803e3d6000fd5b505050506040513d601f19601f820116820180604052508101906103eb919061270f565b905060006104028284610f6190919063ffffffff16565b905060008d73ffffffffffffffffffffffffffffffffffffffff1663fc57d4df886040518263ffffffff1660e01b815260040161043f919061274b565b60206040518083038186803b15801561045757600080fd5b505afa15801561046b573d6000803e3d6000fd5b505050506040513d601f19601f8201168201806040525081019061048f919061270f565b90506040518060c001604052808873ffffffffffffffffffffffffffffffffffffffff1681526020018773ffffffffffffffffffffffffffffffffffffffff168152602001838152602001848152602001858152602001828152508b8a815181106104fd576104fc61265f565b5b6020026020010181905250888061051390612766565b99505050505050505050808061052890612766565b91505061020e565b505050949350505050565b6105436118d8565b600061058e60405180604001604052808973ffffffffffffffffffffffffffffffffffffffff1681526020018673ffffffffffffffffffffffffffffffffffffffff16815250610a3e565b90506000836000015184602001516105a6919061262b565b67ffffffffffffffff8111156105bf576105be611b8c565b5b6040519080825280602002602001820160405280156105f857816020015b6105e561191d565b8152602001906001900390816105dd5790505b50905060008873ffffffffffffffffffffffffffffffffffffffff1663abfceffc876040518263ffffffff1660e01b815260040161063691906126df565b60006040518083038186803b15801561064e57600080fd5b505afa158015610662573d6000803e3d6000fd5b505050506040513d6000823e3d601f19601f8201168201806040525081019061068b91906125b3565b9050600080866000015190505b8660200151811015610959576000856000015182815181106106bd576106bc61265f565b5b6020026020010151905060008173ffffffffffffffffffffffffffffffffffffffff16636f307dc36040518163ffffffff1660e01b815260040160206040518083038186803b15801561070f57600080fd5b505afa92505050801561074057506040513d601f19601f8201168201806040525081019061073d91906126a3565b60015b61074c578a9050610751565b809150505b60008760200151848151811061076a5761076961265f565b5b6020026020010151905060008860400151858151811061078d5761078c61265f565b5b602002602001015190506000896060015186815181106107b0576107af61265f565b5b6020026020010151905060008573ffffffffffffffffffffffffffffffffffffffff1663bd6d894d6040518163ffffffff1660e01b8152600401602060405180830381600087803b15801561080457600080fd5b505af1158015610818573d6000803e3d6000fd5b505050506040513d601f19601f8201168201806040525081019061083c919061270f565b90506000805b8a518110156108b1578773ffffffffffffffffffffffffffffffffffffffff168b82815181106108755761087461265f565b5b602002602001015173ffffffffffffffffffffffffffffffffffffffff16141561089e57600191505b80806108a990612766565b915050610842565b506040518060e001604052808873ffffffffffffffffffffffffffffffffffffffff1681526020018773ffffffffffffffffffffffffffffffffffffffff1681526020018681526020018581526020018481526020018381526020018215158152508b8a815181106109265761092561265f565b5b6020026020010181905250888061093c90612766565b99505050505050505050808061095190612766565b915050610698565b506040518060a001604052808873ffffffffffffffffffffffffffffffffffffffff1681526020018560c001518152602001856080015181526020018560a0015181526020018481525094505050505095945050505050565b60608173ffffffffffffffffffffffffffffffffffffffff1663b0772d0b6040518163ffffffff1660e01b815260040160006040518083038186803b1580156109fa57600080fd5b505afa158015610a0e573d6000803e3d6000fd5b505050506040513d6000823e3d601f19601f82011682018060405250810190610a3791906125b3565b9050919050565b610a46611988565b610a4e6119e3565b6000610a5d84600001516109b2565b905060008151905060008167ffffffffffffffff811115610a8157610a80611b8c565b5b604051908082528060200260200182016040528015610aaf5781602001602082028036833780820191505090505b50905060008267ffffffffffffffff811115610ace57610acd611b8c565b5b604051908082528060200260200182016040528015610afc5781602001602082028036833780820191505090505b50905060008367ffffffffffffffff811115610b1b57610b1a611b8c565b5b604051908082528060200260200182016040528015610b495781602001602082028036833780820191505090505b50905060005b84811015610dcd576000868281518110610b6c57610b6b61265f565b5b6020026020010151905060008a6000015173ffffffffffffffffffffffffffffffffffffffff16637dc0d1d06040518163ffffffff1660e01b815260040160206040518083038186803b158015610bc257600080fd5b505afa158015610bd6573d6000803e3d6000fd5b505050506040513d601f19601f82011682018060405250810190610bfa91906127c4565b73ffffffffffffffffffffffffffffffffffffffff1663fc57d4df836040518263ffffffff1660e01b8152600401610c32919061274b565b60206040518083038186803b158015610c4a57600080fd5b505afa158015610c5e573d6000803e3d6000fd5b505050506040513d601f19601f82011682018060405250810190610c82919061270f565b90506000610d466040518061010001604052808c81526020018573ffffffffffffffffffffffffffffffffffffffff1681526020018481526020018e6000015173ffffffffffffffffffffffffffffffffffffffff1681526020018e6020015173ffffffffffffffffffffffffffffffffffffffff168152602001898781518110610d1057610d0f61265f565b5b60200260200101518152602001888781518110610d3057610d2f61265f565b5b6020026020010151815260200186815250610fbf565b9050806000015199508060200151878581518110610d6757610d6661265f565b5b6020026020010181815250508060400151868581518110610d8b57610d8a61265f565b5b60200260200101818152505081858581518110610dab57610daa61265f565b5b6020026020010181815250505050508080610dc590612766565b915050610b4f565b5060008087600001511115610e4c57600087602001511115610e2557610e1e8760200151610e10670de0b6b3a76400008a6000015161135690919063ffffffff16565b6113d190919063ffffffff16565b9050610e47565b610e44670de0b6b3a7640000886000015161135690919063ffffffff16565b90505b610e5e565b6d04ee2d6d415b85acef810000000090505b866020015187600001511115610ee4576040518061010001604052808781526020018581526020018481526020018381526020016000815260200188602001518960000151610ead919061262b565b81526020018281526020018a6020015173ffffffffffffffffffffffffffffffffffffffff16815250975050505050505050610f5c565b600087600001518860200151610efa919061262b565b9050604051806101000160405280888152602001868152602001858152602001848152602001828152602001600081526020018381526020018b6020015173ffffffffffffffffffffffffffffffffffffffff16815250985050505050505050505b919050565b6000808284610f7091906127f1565b905083811015610fb5576040517f08c379a0000000000000000000000000000000000000000000000000000000008152600401610fac906128a4565b60405180910390fd5b8091505092915050565b610fc7611a4e565b6000806000806000866020015173ffffffffffffffffffffffffffffffffffffffff1663c37f68e288608001516040518263ffffffff1660e01b815260040161101091906126df565b60806040518083038186803b15801561102857600080fd5b505afa15801561103c573d6000803e3d6000fd5b505050506040513d601f19601f8201168201806040525081019061106091906128c4565b8a600001516040018b600001516060018c60000151608001838152508381525083815250839650505050506000876060015173ffffffffffffffffffffffffffffffffffffffff16638e8f294b89602001516040518263ffffffff1660e01b81526004016110ce91906126df565b60606040518083038186803b1580156110e657600080fd5b505afa1580156110fa573d6000803e3d6000fd5b505050506040513d601f19601f8201168201806040525081019061111e91906129bb565b905060405180602001604052808260200151815250886000015160c001819052506040518060200160405280896000015160800151815250886000015160e001819052508760400151886000015160a00181815250506040518060200160405280896000015160a00151815250886000015161010001819052506111bc886000015160c00151896000015160e001518a60000151610100015161141b565b89600001516101200181905281945050506111f1886000015161012001518960000151604001518a6000015160000151611488565b896000015160000181815250819450505061121d886000015161012001518960000151604001516114f7565b8960a00181815250819450505061124e886000015161010001518960000151606001518a6000015160200151611488565b896000015160200181815250819450505061127a886000015161010001518960000151606001516114f7565b8960c0018181525081945050508173ffffffffffffffffffffffffffffffffffffffff16886020015173ffffffffffffffffffffffffffffffffffffffff16141561131a576112db88600001516101200151878a6000015160200151611488565b896000015160200181815250819450505061130888600001516101000151868a6000015160200151611488565b89600001516020018181525081945050505b60405180606001604052808960000151815260200189600001516040015181526020018960000151606001518152509650505050505050919050565b60008083141561136957600090506113cb565b6000828461137791906129e8565b90508284826113869190612a71565b146113c6576040517f08c379a00000000000000000000000000000000000000000000000000000000081526004016113bd90612b14565b60405180910390fd5b809150505b92915050565b600061141383836040518060400160405280601a81526020017f536166654d6174683a206469766973696f6e206279207a65726f00000000000081525061155e565b905092915050565b6000611425611a75565b60008061143287876115c1565b915091506000600381111561144a57611449612b34565b5b82600381111561145d5761145c612b34565b5b1461146f578181935093505050611480565b61147981866115c1565b9350935050505b935093915050565b600080600080611498878761170c565b91509150600060038111156114b0576114af612b34565b5b8260038111156114c3576114c2612b34565b5b146114d6578160009350935050506114ef565b6114e86114e282611792565b866117b3565b9350935050505b935093915050565b600080600080611507868661170c565b915091506000600381111561151f5761151e612b34565b5b82600381111561153257611531612b34565b5b1461154557816000935093505050611557565b600061155082611792565b9350935050505b9250929050565b600080831182906115a5576040517f08c379a000000000000000000000000000000000000000000000000000000000815260040161159c9190612bda565b60405180910390fd5b50600083856115b49190612a71565b9050809150509392505050565b60006115cb611a75565b6000806115e0866000015186600001516117eb565b91509150600060038111156115f8576115f7612b34565b5b82600381111561160b5761160a612b34565b5b1461162c578160405180602001604052806000815250935093505050611705565b60008061164d6002670de0b6b3a76400006116479190612a71565b846117b3565b915091506000600381111561166557611664612b34565b5b82600381111561167857611677612b34565b5b1461169b5781604051806020016040528060008152509550955050505050611705565b6000806116b083670de0b6b3a7640000611843565b91509150600060038111156116c8576116c7612b34565b5b8260038111156116db576116da612b34565b5b146116e9576116e8612bfc565b5b6000604051806020016040528083815250975097505050505050505b9250929050565b6000611716611a75565b6000806117278660000151866117eb565b915091506000600381111561173f5761173e612b34565b5b82600381111561175257611751612b34565b5b1461177357816040518060200160405280600081525093509350505061178b565b60006040518060200160405280838152509350935050505b9250929050565b6000670de0b6b3a764000082600001516117ac9190612a71565b9050919050565b600080600083856117c491906127f1565b90508481106117da5760008192509250506117e4565b6002600092509250505b9250929050565b6000806000841415611803576000809150915061183c565b6000838561181191906129e8565b90508385826118209190612a71565b146118335760026000925092505061183c565b60008192509250505b9250929050565b600080600083141561185c57600160009150915061186f565b6000838561186a9190612a71565b915091505b9250929050565b6040518060c00160405280600073ffffffffffffffffffffffffffffffffffffffff168152602001600073ffffffffffffffffffffffffffffffffffffffff168152602001600081526020016000815260200160008152602001600081525090565b6040518060a00160405280600073ffffffffffffffffffffffffffffffffffffffff168152602001600081526020016000815260200160008152602001606081525090565b6040518060e00160405280600073ffffffffffffffffffffffffffffffffffffffff168152602001600073ffffffffffffffffffffffffffffffffffffffff168152602001600081526020016000815260200160008152602001600081526020016000151581525090565b60405180610100016040528060608152602001606081526020016060815260200160608152602001600081526020016000815260200160008152602001600073ffffffffffffffffffffffffffffffffffffffff1681525090565b604051806101400160405280600081526020016000815260200160008152602001600081526020016000815260200160008152602001611a21611a75565b8152602001611a2e611a75565b8152602001611a3b611a75565b8152602001611a48611a75565b81525090565b6040518060600160405280611a616119e3565b815260200160008152602001600081525090565b6040518060200160405280600081525090565b6000604051905090565b600080fd5b600080fd5b600073ffffffffffffffffffffffffffffffffffffffff82169050919050565b6000611ac782611a9c565b9050919050565b6000611ad982611abc565b9050919050565b611ae981611ace565b8114611af457600080fd5b50565b600081359050611b0681611ae0565b92915050565b6000611b1782611abc565b9050919050565b611b2781611b0c565b8114611b3257600080fd5b50565b600081359050611b4481611b1e565b92915050565b611b5381611abc565b8114611b5e57600080fd5b50565b600081359050611b7081611b4a565b92915050565b600080fd5b6000601f19601f8301169050919050565b7f4e487b7100000000000000000000000000000000000000000000000000000000600052604160045260246000fd5b611bc482611b7b565b810181811067ffffffffffffffff82111715611be357611be2611b8c565b5b80604052505050565b6000611bf6611a88565b9050611c028282611bbb565b919050565b6000819050919050565b611c1a81611c07565b8114611c2557600080fd5b50565b600081359050611c3781611c11565b92915050565b600060408284031215611c5357611c52611b76565b5b611c5d6040611bec565b90506000611c6d84828501611c28565b6000830152506020611c8184828501611c28565b60208301525092915050565b60008060008060a08587031215611ca757611ca6611a92565b5b6000611cb587828801611af7565b9450506020611cc687828801611b35565b9350506040611cd787828801611b61565b9250506060611ce887828801611c3d565b91505092959194509250565b600081519050919050565b600082825260208201905092915050565b6000819050602082019050919050565b611d2981611abc565b82525050565b611d3881611c07565b82525050565b60c082016000820151611d546000850182611d20565b506020820151611d676020850182611d20565b506040820151611d7a6040850182611d2f565b506060820151611d8d6060850182611d2f565b506080820151611da06080850182611d2f565b5060a0820151611db360a0850182611d2f565b50505050565b6000611dc58383611d3e565b60c08301905092915050565b6000602082019050919050565b6000611de982611cf4565b611df38185611cff565b9350611dfe83611d10565b8060005b83811015611e2f578151611e168882611db9565b9750611e2183611dd1565b925050600181019050611e02565b5085935050505092915050565b60006020820190508181036000830152611e568184611dde565b905092915050565b600080600080600060c08688031215611e7a57611e79611a92565b5b6000611e8888828901611af7565b9550506020611e9988828901611b35565b9450506040611eaa88828901611b61565b9350506060611ebb88828901611b61565b9250506080611ecc88828901611c3d565b9150509295509295909350565b600081519050919050565b600082825260208201905092915050565b6000819050602082019050919050565b60008115159050919050565b611f1a81611f05565b82525050565b60e082016000820151611f366000850182611d20565b506020820151611f496020850182611d20565b506040820151611f5c6040850182611d2f565b506060820151611f6f6060850182611d2f565b506080820151611f826080850182611d2f565b5060a0820151611f9560a0850182611d2f565b5060c0820151611fa860c0850182611f11565b50505050565b6000611fba8383611f20565b60e08301905092915050565b6000602082019050919050565b6000611fde82611ed9565b611fe88185611ee4565b9350611ff383611ef5565b8060005b8381101561202457815161200b8882611fae565b975061201683611fc6565b925050600181019050611ff7565b5085935050505092915050565b600060a0830160008301516120496000860182611d20565b50602083015161205c6020860182611d2f565b50604083015161206f6040860182611d2f565b5060608301516120826060860182611d2f565b506080830151848203608086015261209a8282611fd3565b9150508091505092915050565b600060208201905081810360008301526120c18184612031565b905092915050565b6000602082840312156120df576120de611a92565b5b60006120ed84828501611af7565b91505092915050565b600081519050919050565b600082825260208201905092915050565b6000819050602082019050919050565b6000819050919050565b600061214761214261213d84611a9c565b612122565b611a9c565b9050919050565b60006121598261212c565b9050919050565b600061216b8261214e565b9050919050565b61217b81612160565b82525050565b600061218d8383612172565b60208301905092915050565b6000602082019050919050565b60006121b1826120f6565b6121bb8185612101565b93506121c683612112565b8060005b838110156121f75781516121de8882612181565b97506121e983612199565b9250506001810190506121ca565b5085935050505092915050565b6000602082019050818103600083015261221e81846121a6565b905092915050565b60006040828403121561223c5761223b611b76565b5b6122466040611bec565b9050600061225684828501611af7565b600083015250602061226a84828501611b61565b60208301525092915050565b60006040828403121561228c5761228b611a92565b5b600061229a84828501612226565b91505092915050565b600082825260208201905092915050565b60006122bf826120f6565b6122c981856122a3565b93506122d483612112565b8060005b838110156123055781516122ec8882612181565b97506122f783612199565b9250506001810190506122d8565b5085935050505092915050565b600081519050919050565b600082825260208201905092915050565b6000819050602082019050919050565b600061234a8383611d2f565b60208301905092915050565b6000602082019050919050565b600061236e82612312565b612378818561231d565b93506123838361232e565b8060005b838110156123b457815161239b888261233e565b97506123a683612356565b925050600181019050612387565b5085935050505092915050565b60006101008301600083015184820360008601526123df82826122b4565b915050602083015184820360208601526123f98282612363565b915050604083015184820360408601526124138282612363565b9150506060830151848203606086015261242d8282612363565b91505060808301516124426080860182611d2f565b5060a083015161245560a0860182611d2f565b5060c083015161246860c0860182611d2f565b5060e083015161247b60e0860182611d20565b508091505092915050565b600060208201905081810360008301526124a081846123c1565b905092915050565b600080fd5b600067ffffffffffffffff8211156124c8576124c7611b8c565b5b602082029050602081019050919050565b600080fd5b60006124e982611abc565b9050919050565b6124f9816124de565b811461250457600080fd5b50565b600081519050612516816124f0565b92915050565b600061252f61252a846124ad565b611bec565b90508083825260208201905060208402830185811115612552576125516124d9565b5b835b8181101561257b57806125678882612507565b845260208401935050602081019050612554565b5050509392505050565b600082601f83011261259a576125996124a8565b5b81516125aa84826020860161251c565b91505092915050565b6000602082840312156125c9576125c8611a92565b5b600082015167ffffffffffffffff8111156125e7576125e6611a97565b5b6125f384828501612585565b91505092915050565b7f4e487b7100000000000000000000000000000000000000000000000000000000600052601160045260246000fd5b600061263682611c07565b915061264183611c07565b925082821015612654576126536125fc565b5b828203905092915050565b7f4e487b7100000000000000000000000000000000000000000000000000000000600052603260045260246000fd5b60008151905061269d81611b4a565b92915050565b6000602082840312156126b9576126b8611a92565b5b60006126c78482850161268e565b91505092915050565b6126d981611abc565b82525050565b60006020820190506126f460008301846126d0565b92915050565b60008151905061270981611c11565b92915050565b60006020828403121561272557612724611a92565b5b6000612733848285016126fa565b91505092915050565b61274581612160565b82525050565b6000602082019050612760600083018461273c565b92915050565b600061277182611c07565b91507fffffffffffffffffffffffffffffffffffffffffffffffffffffffffffffffff8214156127a4576127a36125fc565b5b600182019050919050565b6000815190506127be81611b1e565b92915050565b6000602082840312156127da576127d9611a92565b5b60006127e8848285016127af565b91505092915050565b60006127fc82611c07565b915061280783611c07565b9250827fffffffffffffffffffffffffffffffffffffffffffffffffffffffffffffffff0382111561283c5761283b6125fc565b5b828201905092915050565b600082825260208201905092915050565b7f536166654d6174683a206164646974696f6e206f766572666c6f770000000000600082015250565b600061288e601b83612847565b915061289982612858565b602082019050919050565b600060208201905081810360008301526128bd81612881565b9050919050565b600080600080608085870312156128de576128dd611a92565b5b60006128ec878288016126fa565b94505060206128fd878288016126fa565b935050604061290e878288016126fa565b925050606061291f878288016126fa565b91505092959194509250565b61293481611f05565b811461293f57600080fd5b50565b6000815190506129518161292b565b92915050565b60006060828403121561296d5761296c611b76565b5b6129776060611bec565b9050600061298784828501612942565b600083015250602061299b848285016126fa565b60208301525060406129af84828501612942565b60408301525092915050565b6000606082840312156129d1576129d0611a92565b5b60006129df84828501612957565b91505092915050565b60006129f382611c07565b91506129fe83611c07565b9250817fffffffffffffffffffffffffffffffffffffffffffffffffffffffffffffffff0483118215151615612a3757612a366125fc565b5b828202905092915050565b7f4e487b7100000000000000000000000000000000000000000000000000000000600052601260045260246000fd5b6000612a7c82611c07565b9150612a8783611c07565b925082612a9757612a96612a42565b5b828204905092915050565b7f536166654d6174683a206d756c7469706c69636174696f6e206f766572666c6f60008201527f7700000000000000000000000000000000000000000000000000000000000000602082015250565b6000612afe602183612847565b9150612b0982612aa2565b604082019050919050565b60006020820190508181036000830152612b2d81612af1565b9050919050565b7f4e487b7100000000000000000000000000000000000000000000000000000000600052602160045260246000fd5b600081519050919050565b60005b83811015612b8c578082015181840152602081019050612b71565b83811115612b9b576000848401525b50505050565b6000612bac82612b63565b612bb68185612847565b9350612bc6818560208601612b6e565b612bcf81611b7b565b840191505092915050565b60006020820190508181036000830152612bf48184612ba1565b905092915050565b7f4e487b7100000000000000000000000000000000000000000000000000000000600052600160045260246000fdfea2646970667358221220ecf563526e92358158e6dfb28083d17608a337c13ae2bd4b32a9ee82372c01e164736f6c63430008090033",
  "linkReferences": {},
  "deployedLinkReferences": {}
}