{
  "_format": "hh-sol-artifact-1",
  "contractName": "AaveLiquidator",
  "sourceName": "contracts/AaveLiquidator.sol",
  "abi": [
    {
      "inputs": [
        {
          "internalType": "address",
          "name": "_admin",
          "type": "address"
        },
        {
          "internalType": "address",
          "name": "_treasury",
          "type": "address"
        },
        {
          "internalType": "address payable",
          "name": "_swapper",
          "type": "address"
        },
        {
          "internalType": "address[]",
          "name": "_approvedLendingPools",
          "type": "address[]"
        }
      ],
      "stateMutability": "nonpayable",
      "type": "constructor"
    },
    {
      "anonymous": false,
      "inputs": [
        {
          "indexed": false,
          "internalType": "address",
          "name": "liquidator",
          "type": "address"
        },
        {
          "indexed": false,
          "internalType": "address",
          "name": "debt",
          "type": "address"
        },
        {
          "indexed": false,
          "internalType": "address",
          "name": "collateral",
          "type": "address"
        },
        {
          "indexed": false,
          "internalType": "uint256",
          "name": "debtAmount",
          "type": "uint256"
        },
        {
          "indexed": false,
          "internalType": "uint256",
          "name": "collateralAmount",
          "type": "uint256"
        }
      ],
      "name": "Liquidation",
      "type": "event"
    },
    {
      "inputs": [
        {
          "internalType": "address",
          "name": "pool",
          "type": "address"
        }
      ],
      "name": "approveLendingPool",
      "outputs": [],
      "stateMutability": "nonpayable",
      "type": "function"
    },
    {
      "inputs": [
        {
          "internalType": "address",
          "name": "pool",
          "type": "address"
        }
      ],
      "name": "disapproveLendingPool",
      "outputs": [],
      "stateMutability": "nonpayable",
      "type": "function"
    },
    {
      "inputs": [
        {
          "internalType": "address[]",
          "name": "assets",
          "type": "address[]"
        },
        {
          "internalType": "uint256[]",
          "name": "amounts",
          "type": "uint256[]"
        },
        {
          "internalType": "uint256[]",
          "name": "premiums",
          "type": "uint256[]"
        },
        {
          "internalType": "address",
          "name": "sender",
          "type": "address"
        },
        {
          "internalType": "bytes",
          "name": "data",
          "type": "bytes"
        }
      ],
      "name": "executeOperation",
      "outputs": [
        {
          "internalType": "bool",
          "name": "",
          "type": "bool"
        }
      ],
      "stateMutability": "nonpayable",
      "type": "function"
    },
    {
      "inputs": [
        {
          "internalType": "address",
          "name": "_token",
          "type": "address"
        }
      ],
      "name": "getCash",
      "outputs": [],
      "stateMutability": "nonpayable",
      "type": "function"
    },
    {
      "inputs": [
        {
          "internalType": "address",
          "name": "_token",
          "type": "address"
        },
        {
          "internalType": "address",
          "name": "to",
          "type": "address"
        }
      ],
      "name": "getCashSend",
      "outputs": [],
      "stateMutability": "nonpayable",
      "type": "function"
    },
    {
      "inputs": [
        {
          "components": [
            {
              "internalType": "contract ILendingPool",
              "name": "lendingPool",
              "type": "address"
            },
            {
              "internalType": "contract IPriceOracle",
              "name": "priceOracle",
              "type": "address"
            },
            {
              "internalType": "address",
              "name": "debt",
              "type": "address"
            },
            {
              "internalType": "address",
              "name": "collateral",
              "type": "address"
            },
            {
              "internalType": "address",
              "name": "aTokenCollateral",
              "type": "address"
            },
            {
              "internalType": "uint256",
              "name": "debtAmount",
              "type": "uint256"
            },
            {
              "internalType": "uint256",
              "name": "stableDebtAmount",
              "type": "uint256"
            },
            {
              "internalType": "uint256",
              "name": "variableDebtAmount",
              "type": "uint256"
            },
            {
              "internalType": "uint256",
              "name": "collateralAmount",
              "type": "uint256"
            },
            {
              "internalType": "uint256",
              "name": "debtDecimals",
              "type": "uint256"
            },
            {
              "internalType": "uint256",
              "name": "collateralDecimals",
              "type": "uint256"
            },
            {
              "internalType": "uint256",
              "name": "feePlusSlippage",
              "type": "uint256"
            },
            {
              "internalType": "uint256",
              "name": "minSwapOut",
              "type": "uint256"
            },
            {
              "internalType": "bytes",
              "name": "swapData",
              "type": "bytes"
            }
          ],
          "internalType": "struct AaveLiquidator.liquidateArgs",
          "name": "args",
          "type": "tuple"
        }
      ],
      "name": "liquidate",
      "outputs": [],
      "stateMutability": "nonpayable",
      "type": "function"
    },
    {
      "inputs": [
        {
          "internalType": "address",
          "name": "_admin",
          "type": "address"
        }
      ],
      "name": "setAdmin",
      "outputs": [],
      "stateMutability": "nonpayable",
      "type": "function"
    },
    {
      "inputs": [
        {
          "internalType": "uint256",
          "name": "_fee",
          "type": "uint256"
        }
      ],
      "name": "setFee",
      "outputs": [],
      "stateMutability": "nonpayable",
      "type": "function"
    },
    {
      "inputs": [
        {
          "internalType": "address payable",
          "name": "_swapper",
          "type": "address"
        }
      ],
      "name": "setSwapper",
      "outputs": [],
      "stateMutability": "nonpayable",
      "type": "function"
    },
    {
      "inputs": [
        {
          "internalType": "address",
          "name": "_treasury",
          "type": "address"
        }
      ],
      "name": "setTreasury",
      "outputs": [],
      "stateMutability": "nonpayable",
      "type": "function"
    }
  ],
  "bytecode": "0x60806040526127106002553480156200001757600080fd5b5060405162003e8138038062003e8183398181016040528101906200003d9190620003d5565b836000806101000a81548173ffffffffffffffffffffffffffffffffffffffff021916908373ffffffffffffffffffffffffffffffffffffffff16021790555082600160006101000a81548173ffffffffffffffffffffffffffffffffffffffff021916908373ffffffffffffffffffffffffffffffffffffffff16021790555081600360006101000a81548173ffffffffffffffffffffffffffffffffffffffff021916908373ffffffffffffffffffffffffffffffffffffffff16021790555060005b8151811015620001975760016004600084848151811062000128576200012762000466565b5b602002602001015173ffffffffffffffffffffffffffffffffffffffff1673ffffffffffffffffffffffffffffffffffffffff16815260200190815260200160002060006101000a81548160ff02191690831515021790555080806200018e90620004ce565b91505062000102565b50505050506200051c565b6000604051905090565b600080fd5b600080fd5b600073ffffffffffffffffffffffffffffffffffffffff82169050919050565b6000620001e382620001b6565b9050919050565b620001f581620001d6565b81146200020157600080fd5b50565b6000815190506200021581620001ea565b92915050565b60006200022882620001b6565b9050919050565b6200023a816200021b565b81146200024657600080fd5b50565b6000815190506200025a816200022f565b92915050565b600080fd5b6000601f19601f8301169050919050565b7f4e487b7100000000000000000000000000000000000000000000000000000000600052604160045260246000fd5b620002b08262000265565b810181811067ffffffffffffffff82111715620002d257620002d162000276565b5b80604052505050565b6000620002e7620001a2565b9050620002f58282620002a5565b919050565b600067ffffffffffffffff82111562000318576200031762000276565b5b602082029050602081019050919050565b600080fd5b6000620003456200033f84620002fa565b620002db565b905080838252602082019050602084028301858111156200036b576200036a62000329565b5b835b8181101562000398578062000383888262000204565b8452602084019350506020810190506200036d565b5050509392505050565b600082601f830112620003ba57620003b962000260565b5b8151620003cc8482602086016200032e565b91505092915050565b60008060008060808587031215620003f257620003f1620001ac565b5b6000620004028782880162000204565b9450506020620004158782880162000204565b9350506040620004288782880162000249565b925050606085015167ffffffffffffffff8111156200044c576200044b620001b1565b5b6200045a87828801620003a2565b91505092959194509250565b7f4e487b7100000000000000000000000000000000000000000000000000000000600052603260045260246000fd5b7f4e487b7100000000000000000000000000000000000000000000000000000000600052601160045260246000fd5b6000819050919050565b6000620004db82620004c4565b91507fffffffffffffffffffffffffffffffffffffffffffffffffffffffffffffffff82141562000511576200051062000495565b5b600182019050919050565b613955806200052c6000396000f3fe608060405234801561001057600080fd5b506004361061009e5760003560e01c8063920f5c8411610066578063920f5c841461012f578063995e5def1461015f5780639c82f2a41461017b578063a94352a314610197578063f0f44260146101b35761009e565b8063362daf82146100a35780635d2c5559146100bf578063607b463a146100db57806369fe0e2d146100f7578063704b6c0214610113575b600080fd5b6100bd60048036038101906100b8919061202e565b6101cf565b005b6100d960048036038101906100d4919061206e565b610320565b005b6100f560048036038101906100f0919061206e565b610409565b005b610111600480360381019061010c91906120d1565b610579565b005b61012d6004803603810190610128919061206e565b610611565b005b610149600480360381019061014491906123cf565b6106e2565b60405161015691906124d5565b60405180910390f35b610179600480360381019061017491906126e0565b610ddc565b005b61019560048036038101906101909190612767565b611711565b005b6101b160048036038101906101ac919061206e565b6117e3565b005b6101cd60048036038101906101c8919061206e565b6118cc565b005b60008054906101000a900473ffffffffffffffffffffffffffffffffffffffff1673ffffffffffffffffffffffffffffffffffffffff163373ffffffffffffffffffffffffffffffffffffffff161461025d576040517f08c379a0000000000000000000000000000000000000000000000000000000008152600401610254906127f1565b60405180910390fd5b600082905060008173ffffffffffffffffffffffffffffffffffffffff166370a08231306040518263ffffffff1660e01b815260040161029d9190612820565b60206040518083038186803b1580156102b557600080fd5b505afa1580156102c9573d6000803e3d6000fd5b505050506040513d601f19601f820116820180604052508101906102ed9190612850565b905061031a83828473ffffffffffffffffffffffffffffffffffffffff1661199e9092919063ffffffff16565b50505050565b60008054906101000a900473ffffffffffffffffffffffffffffffffffffffff1673ffffffffffffffffffffffffffffffffffffffff163373ffffffffffffffffffffffffffffffffffffffff16146103ae576040517f08c379a00000000000000000000000000000000000000000000000000000000081526004016103a5906127f1565b60405180910390fd5b6000600460008373ffffffffffffffffffffffffffffffffffffffff1673ffffffffffffffffffffffffffffffffffffffff16815260200190815260200160002060006101000a81548160ff02191690831515021790555050565b60008054906101000a900473ffffffffffffffffffffffffffffffffffffffff1673ffffffffffffffffffffffffffffffffffffffff163373ffffffffffffffffffffffffffffffffffffffff1614610497576040517f08c379a000000000000000000000000000000000000000000000000000000000815260040161048e906127f1565b60405180910390fd5b600081905060008173ffffffffffffffffffffffffffffffffffffffff166370a08231306040518263ffffffff1660e01b81526004016104d79190612820565b60206040518083038186803b1580156104ef57600080fd5b505afa158015610503573d6000803e3d6000fd5b505050506040513d601f19601f820116820180604052508101906105279190612850565b905061057460008054906101000a900473ffffffffffffffffffffffffffffffffffffffff16828473ffffffffffffffffffffffffffffffffffffffff1661199e9092919063ffffffff16565b505050565b60008054906101000a900473ffffffffffffffffffffffffffffffffffffffff1673ffffffffffffffffffffffffffffffffffffffff163373ffffffffffffffffffffffffffffffffffffffff1614610607576040517f08c379a00000000000000000000000000000000000000000000000000000000081526004016105fe906127f1565b60405180910390fd5b8060028190555050565b60008054906101000a900473ffffffffffffffffffffffffffffffffffffffff1673ffffffffffffffffffffffffffffffffffffffff163373ffffffffffffffffffffffffffffffffffffffff161461069f576040517f08c379a0000000000000000000000000000000000000000000000000000000008152600401610696906127f1565b60405180910390fd5b806000806101000a81548173ffffffffffffffffffffffffffffffffffffffff021916908373ffffffffffffffffffffffffffffffffffffffff16021790555050565b6000600460003373ffffffffffffffffffffffffffffffffffffffff1673ffffffffffffffffffffffffffffffffffffffff16815260200190815260200160002060009054906101000a900460ff16610770576040517f08c379a0000000000000000000000000000000000000000000000000000000008152600401610767906128c9565b60405180910390fd5b600080600080600080600080600061079660006101208d611a249092919063ffffffff16565b8060200190518101906107a991906128fe565b9850985098509850985098509850985098508873ffffffffffffffffffffffffffffffffffffffff163273ffffffffffffffffffffffffffffffffffffffff1614610829576040517f08c379a000000000000000000000000000000000000000000000000000000000815260040161082090612a3a565b60405180910390fd5b600061086c8e60008151811061084257610841612a5a565b5b602002602001015161085e600289611b4290919063ffffffff16565b611bbd90919063ffffffff16565b90508873ffffffffffffffffffffffffffffffffffffffff1663095ea7b333836040518363ffffffff1660e01b81526004016108a9929190612a98565b602060405180830381600087803b1580156108c357600080fd5b505af11580156108d7573d6000803e3d6000fd5b505050506040513d601f19601f820116820180604052508101906108fb9190612aed565b5060008514610998573373ffffffffffffffffffffffffffffffffffffffff1663573ade818a8760018e6040518563ffffffff1660e01b81526004016109449493929190612b5f565b602060405180830381600087803b15801561095e57600080fd5b505af1158015610972573d6000803e3d6000fd5b505050506040513d601f19601f820116820180604052508101906109969190612850565b505b60008414610a34573373ffffffffffffffffffffffffffffffffffffffff1663573ade818a8660028e6040518563ffffffff1660e01b81526004016109e09493929190612bdf565b602060405180830381600087803b1580156109fa57600080fd5b505af1158015610a0e573d6000803e3d6000fd5b505050506040513d601f19601f82011682018060405250810190610a329190612850565b505b8673ffffffffffffffffffffffffffffffffffffffff166323b872dd8b30866040518463ffffffff1660e01b8152600401610a7193929190612c24565b602060405180830381600087803b158015610a8b57600080fd5b505af1158015610a9f573d6000803e3d6000fd5b505050506040513d601f19601f82011682018060405250810190610ac39190612aed565b503373ffffffffffffffffffffffffffffffffffffffff166369328dec8985306040518463ffffffff1660e01b8152600401610b0193929190612c5b565b602060405180830381600087803b158015610b1b57600080fd5b505af1158015610b2f573d6000803e3d6000fd5b505050506040513d601f19601f82011682018060405250810190610b539190612850565b506101208c511115610dc557610b82610120808e51610b729190612cc1565b8e611a249092919063ffffffff16565b9b50610bc0610bb1620f4240610ba360025487611b4290919063ffffffff16565b611c1b90919063ffffffff16565b84611c6590919063ffffffff16565b9250610c0f600360009054906101000a900473ffffffffffffffffffffffffffffffffffffffff16848a73ffffffffffffffffffffffffffffffffffffffff1661199e9092919063ffffffff16565b600360009054906101000a900473ffffffffffffffffffffffffffffffffffffffff1673ffffffffffffffffffffffffffffffffffffffff16636df0e4a8848e8c6040518463ffffffff1660e01b8152600401610c6e93929190612d7d565b602060405180830381600087803b158015610c8857600080fd5b505af1925050508015610cb957506040513d601f19601f82011682018060405250810190610cb69190612850565b60015b610cf8576040517f08c379a0000000000000000000000000000000000000000000000000000000008152600401610cef90612e07565b60405180910390fd5b50818973ffffffffffffffffffffffffffffffffffffffff166370a08231306040518263ffffffff1660e01b8152600401610d339190612820565b60206040518083038186803b158015610d4b57600080fd5b505afa158015610d5f573d6000803e3d6000fd5b505050506040513d601f19601f82011682018060405250810190610d839190612850565b1015610dc4576040517f08c379a0000000000000000000000000000000000000000000000000000000008152600401610dbb90612e73565b60405180910390fd5b5b60019a505050505050505050505095945050505050565b6000610ea9826101400151600a610df39190612fc6565b610e9b846101000151856020015173ffffffffffffffffffffffffffffffffffffffff1663b3596f0787606001516040518263ffffffff1660e01b8152600401610e3d9190612820565b60206040518083038186803b158015610e5557600080fd5b505afa158015610e69573d6000803e3d6000fd5b505050506040513d601f19601f82011682018060405250810190610e8d9190612850565b611b4290919063ffffffff16565b611c1b90919063ffffffff16565b90506000610f77836101200151600a610ec29190612fc6565b610f698560a00151866020015173ffffffffffffffffffffffffffffffffffffffff1663b3596f0788604001516040518263ffffffff1660e01b8152600401610f0b9190612820565b60206040518083038186803b158015610f2357600080fd5b505afa158015610f37573d6000803e3d6000fd5b505050506040513d601f19601f82011682018060405250810190610f5b9190612850565b611b4290919063ffffffff16565b611c1b90919063ffffffff16565b9050610fb8610fa9620f4240610f9b86610160015185611b4290919063ffffffff16565b611c1b90919063ffffffff16565b82611bbd90919063ffffffff16565b821015610ffa576040517f08c379a0000000000000000000000000000000000000000000000000000000008152600401610ff19061305d565b60405180910390fd5b61106282611054856101000151611046611037620f42406110298a610160015189611b4290919063ffffffff16565b611c1b90919063ffffffff16565b86611bbd90919063ffffffff16565b611b4290919063ffffffff16565b611c1b90919063ffffffff16565b83610100018181525050826101000151836080015173ffffffffffffffffffffffffffffffffffffffff1663dd62ed3e33306040518363ffffffff1660e01b81526004016110b192919061307d565b60206040518083038186803b1580156110c957600080fd5b505afa1580156110dd573d6000803e3d6000fd5b505050506040513d601f19601f820116820180604052508101906111019190612850565b1015611142576040517f08c379a0000000000000000000000000000000000000000000000000000000008152600401611139906130f2565b60405180910390fd5b6000600167ffffffffffffffff81111561115f5761115e612114565b5b60405190808252806020026020018201604052801561118d5781602001602082028036833780820191505090505b5090506000600167ffffffffffffffff8111156111ad576111ac612114565b5b6040519080825280602002602001820160405280156111db5781602001602082028036833780820191505090505b5090506000600167ffffffffffffffff8111156111fb576111fa612114565b5b6040519080825280602002602001820160405280156112295781602001602082028036833780820191505090505b50905060008360008151811061124257611241612a5a565b5b60200260200101818152505085604001518260008151811061126757611266612a5a565b5b602002602001019073ffffffffffffffffffffffffffffffffffffffff16908173ffffffffffffffffffffffffffffffffffffffff16815250508560a00151816000815181106112ba576112b9612a5a565b5b6020026020010181815250506000338760400151886060015189608001518a60a001518b60c001518c60e001518d61010001518e610180015160405160200161130b99989796959493929190613112565b6040516020818303038152906040529050611334876101a0015182611caf90919063ffffffff16565b90506000876040015173ffffffffffffffffffffffffffffffffffffffff166370a08231306040518263ffffffff1660e01b81526004016113759190612820565b60206040518083038186803b15801561138d57600080fd5b505afa1580156113a1573d6000803e3d6000fd5b505050506040513d601f19601f820116820180604052508101906113c59190612850565b9050876000015173ffffffffffffffffffffffffffffffffffffffff1663ab9c4b5d30868689308860006040518863ffffffff1660e01b81526004016114119796959493929190613338565b600060405180830381600087803b15801561142b57600080fd5b505af115801561143f573d6000803e3d6000fd5b5050505060008860400151905060008960600151905060008273ffffffffffffffffffffffffffffffffffffffff166370a08231306040518263ffffffff1660e01b81526004016114909190612820565b60206040518083038186803b1580156114a857600080fd5b505afa1580156114bc573d6000803e3d6000fd5b505050506040513d601f19601f820116820180604052508101906114e09190612850565b90508a6060015173ffffffffffffffffffffffffffffffffffffffff168b6040015173ffffffffffffffffffffffffffffffffffffffff1614156115a157600061156e61155f611550620f42406115426002548a611b4290919063ffffffff16565b611c1b90919063ffffffff16565b87611bbd90919063ffffffff16565b83611c6590919063ffffffff16565b905061159b33828673ffffffffffffffffffffffffffffffffffffffff1661199e9092919063ffffffff16565b506115df565b6115de336115b88684611c6590919063ffffffff16565b8573ffffffffffffffffffffffffffffffffffffffff1661199e9092919063ffffffff16565b5b6116b4600160009054906101000a900473ffffffffffffffffffffffffffffffffffffffff168373ffffffffffffffffffffffffffffffffffffffff166370a08231306040518263ffffffff1660e01b815260040161163e9190612820565b60206040518083038186803b15801561165657600080fd5b505afa15801561166a573d6000803e3d6000fd5b505050506040513d601f19601f8201168201806040525081019061168e9190612850565b8473ffffffffffffffffffffffffffffffffffffffff1661199e9092919063ffffffff16565b7fd58706648644be277f6999c826f65f98128c29c6846a892b929a304a7f19e3eb338c604001518d606001518e60a001518f61010001516040516116fc9594939291906133c3565b60405180910390a15050505050505050505050565b60008054906101000a900473ffffffffffffffffffffffffffffffffffffffff1673ffffffffffffffffffffffffffffffffffffffff163373ffffffffffffffffffffffffffffffffffffffff161461179f576040517f08c379a0000000000000000000000000000000000000000000000000000000008152600401611796906127f1565b60405180910390fd5b80600360006101000a81548173ffffffffffffffffffffffffffffffffffffffff021916908373ffffffffffffffffffffffffffffffffffffffff16021790555050565b60008054906101000a900473ffffffffffffffffffffffffffffffffffffffff1673ffffffffffffffffffffffffffffffffffffffff163373ffffffffffffffffffffffffffffffffffffffff1614611871576040517f08c379a0000000000000000000000000000000000000000000000000000000008152600401611868906127f1565b60405180910390fd5b6001600460008373ffffffffffffffffffffffffffffffffffffffff1673ffffffffffffffffffffffffffffffffffffffff16815260200190815260200160002060006101000a81548160ff02191690831515021790555050565b60008054906101000a900473ffffffffffffffffffffffffffffffffffffffff1673ffffffffffffffffffffffffffffffffffffffff163373ffffffffffffffffffffffffffffffffffffffff161461195a576040517f08c379a0000000000000000000000000000000000000000000000000000000008152600401611951906127f1565b60405180910390fd5b80600160006101000a81548173ffffffffffffffffffffffffffffffffffffffff021916908373ffffffffffffffffffffffffffffffffffffffff16021790555050565b611a1f8363a9059cbb60e01b84846040516024016119bd929190612a98565b604051602081830303815290604052907bffffffffffffffffffffffffffffffffffffffffffffffffffffffff19166020820180517bffffffffffffffffffffffffffffffffffffffffffffffffffffffff8381831617835250505050611d39565b505050565b606081601f83611a349190613416565b1015611a75576040517f08c379a0000000000000000000000000000000000000000000000000000000008152600401611a6c906134b8565b60405180910390fd5b8183611a819190613416565b84511015611ac4576040517f08c379a0000000000000000000000000000000000000000000000000000000008152600401611abb90613524565b60405180910390fd5b6060821560008114611ae55760405191506000825260208201604052611b36565b6040519150601f8416801560200281840101858101878315602002848b0101015b81831015611b235780518352602083019250602081019050611b06565b50868552601f19601f8301166040525050505b50809150509392505050565b600080831415611b555760009050611bb7565b60008284611b639190613544565b9050828482611b7291906135cd565b14611bb2576040517f08c379a0000000000000000000000000000000000000000000000000000000008152600401611ba990613670565b60405180910390fd5b809150505b92915050565b6000808284611bcc9190613416565b905083811015611c11576040517f08c379a0000000000000000000000000000000000000000000000000000000008152600401611c08906136dc565b60405180910390fd5b8091505092915050565b6000611c5d83836040518060400160405280601a81526020017f536166654d6174683a206469766973696f6e206279207a65726f000000000000815250611eaa565b905092915050565b6000611ca783836040518060400160405280601e81526020017f536166654d6174683a207375627472616374696f6e206f766572666c6f770000815250611f0d565b905092915050565b6060806040519050835180825260208201818101602087015b81831015611ce55780518352602083019250602081019050611cc8565b50855192508351830184528091508282019050602086015b81831015611d1a5780518352602083019250602081019050611cfd565b50601f19601f8851850115830101166040525050508091505092915050565b611d588273ffffffffffffffffffffffffffffffffffffffff16611f71565b611d97576040517f08c379a0000000000000000000000000000000000000000000000000000000008152600401611d8e90613748565b60405180910390fd5b6000808373ffffffffffffffffffffffffffffffffffffffff1683604051611dbf91906137a4565b6000604051808303816000865af19150503d8060008114611dfc576040519150601f19603f3d011682016040523d82523d6000602084013e611e01565b606091505b509150915081611e46576040517f08c379a0000000000000000000000000000000000000000000000000000000008152600401611e3d90613807565b60405180910390fd5b600081511115611ea45780806020019051810190611e649190612aed565b611ea3576040517f08c379a0000000000000000000000000000000000000000000000000000000008152600401611e9a90613899565b60405180910390fd5b5b50505050565b60008083118290611ef1576040517f08c379a0000000000000000000000000000000000000000000000000000000008152600401611ee891906138fd565b60405180910390fd5b5060008385611f0091906135cd565b9050809150509392505050565b6000838311158290611f55576040517f08c379a0000000000000000000000000000000000000000000000000000000008152600401611f4c91906138fd565b60405180910390fd5b5060008385611f649190612cc1565b9050809150509392505050565b60008060007fc5d2460186f7233c927e7db2dcc703c0e500b653ca82273b7bfad8045d85a47060001b9050833f9150808214158015611fb357506000801b8214155b92505050919050565b6000604051905090565b600080fd5b600080fd5b600073ffffffffffffffffffffffffffffffffffffffff82169050919050565b6000611ffb82611fd0565b9050919050565b61200b81611ff0565b811461201657600080fd5b50565b60008135905061202881612002565b92915050565b6000806040838503121561204557612044611fc6565b5b600061205385828601612019565b925050602061206485828601612019565b9150509250929050565b60006020828403121561208457612083611fc6565b5b600061209284828501612019565b91505092915050565b6000819050919050565b6120ae8161209b565b81146120b957600080fd5b50565b6000813590506120cb816120a5565b92915050565b6000602082840312156120e7576120e6611fc6565b5b60006120f5848285016120bc565b91505092915050565b600080fd5b6000601f19601f8301169050919050565b7f4e487b7100000000000000000000000000000000000000000000000000000000600052604160045260246000fd5b61214c82612103565b810181811067ffffffffffffffff8211171561216b5761216a612114565b5b80604052505050565b600061217e611fbc565b905061218a8282612143565b919050565b600067ffffffffffffffff8211156121aa576121a9612114565b5b602082029050602081019050919050565b600080fd5b60006121d36121ce8461218f565b612174565b905080838252602082019050602084028301858111156121f6576121f56121bb565b5b835b8181101561221f578061220b8882612019565b8452602084019350506020810190506121f8565b5050509392505050565b600082601f83011261223e5761223d6120fe565b5b813561224e8482602086016121c0565b91505092915050565b600067ffffffffffffffff82111561227257612271612114565b5b602082029050602081019050919050565b600061229661229184612257565b612174565b905080838252602082019050602084028301858111156122b9576122b86121bb565b5b835b818110156122e257806122ce88826120bc565b8452602084019350506020810190506122bb565b5050509392505050565b600082601f830112612301576123006120fe565b5b8135612311848260208601612283565b91505092915050565b600080fd5b600067ffffffffffffffff82111561233a57612339612114565b5b61234382612103565b9050602081019050919050565b82818337600083830152505050565b600061237261236d8461231f565b612174565b90508281526020810184848401111561238e5761238d61231a565b5b612399848285612350565b509392505050565b600082601f8301126123b6576123b56120fe565b5b81356123c684826020860161235f565b91505092915050565b600080600080600060a086880312156123eb576123ea611fc6565b5b600086013567ffffffffffffffff81111561240957612408611fcb565b5b61241588828901612229565b955050602086013567ffffffffffffffff81111561243657612435611fcb565b5b612442888289016122ec565b945050604086013567ffffffffffffffff81111561246357612462611fcb565b5b61246f888289016122ec565b935050606061248088828901612019565b925050608086013567ffffffffffffffff8111156124a1576124a0611fcb565b5b6124ad888289016123a1565b9150509295509295909350565b60008115159050919050565b6124cf816124ba565b82525050565b60006020820190506124ea60008301846124c6565b92915050565b600080fd5b600080fd5b600061250582611ff0565b9050919050565b612515816124fa565b811461252057600080fd5b50565b6000813590506125328161250c565b92915050565b600061254382611ff0565b9050919050565b61255381612538565b811461255e57600080fd5b50565b6000813590506125708161254a565b92915050565b60006101c0828403121561258d5761258c6124f0565b5b6125986101c0612174565b905060006125a884828501612523565b60008301525060206125bc84828501612561565b60208301525060406125d084828501612019565b60408301525060606125e484828501612019565b60608301525060806125f884828501612019565b60808301525060a061260c848285016120bc565b60a08301525060c0612620848285016120bc565b60c08301525060e0612634848285016120bc565b60e083015250610100612649848285016120bc565b6101008301525061012061265f848285016120bc565b61012083015250610140612675848285016120bc565b6101408301525061016061268b848285016120bc565b610160830152506101806126a1848285016120bc565b610180830152506101a082013567ffffffffffffffff8111156126c7576126c66124f5565b5b6126d3848285016123a1565b6101a08301525092915050565b6000602082840312156126f6576126f5611fc6565b5b600082013567ffffffffffffffff81111561271457612713611fcb565b5b61272084828501612576565b91505092915050565b600061273482611fd0565b9050919050565b61274481612729565b811461274f57600080fd5b50565b6000813590506127618161273b565b92915050565b60006020828403121561277d5761277c611fc6565b5b600061278b84828501612752565b91505092915050565b600082825260208201905092915050565b7f6e6f742061646d696e0000000000000000000000000000000000000000000000600082015250565b60006127db600983612794565b91506127e6826127a5565b602082019050919050565b6000602082019050818103600083015261280a816127ce565b9050919050565b61281a81611ff0565b82525050565b60006020820190506128356000830184612811565b92915050565b60008151905061284a816120a5565b92915050565b60006020828403121561286657612865611fc6565b5b60006128748482850161283b565b91505092915050565b7f6c656e64696e6720706f6f6c206e6f7420617070726f76656400000000000000600082015250565b60006128b3601983612794565b91506128be8261287d565b602082019050919050565b600060208201905081810360008301526128e2816128a6565b9050919050565b6000815190506128f88161273b565b92915050565b60008060008060008060008060006101208a8c03121561292157612920611fc6565b5b600061292f8c828d016128e9565b99505060206129408c828d016128e9565b98505060406129518c828d016128e9565b97505060606129628c828d016128e9565b96505060806129738c828d0161283b565b95505060a06129848c828d0161283b565b94505060c06129958c828d0161283b565b93505060e06129a68c828d0161283b565b9250506101006129b88c828d0161283b565b9150509295985092959850929598565b7f4c69717569646174696f6e2063616e206f6e6c7920626520706572666f726d6560008201527f6420627920757365720000000000000000000000000000000000000000000000602082015250565b6000612a24602983612794565b9150612a2f826129c8565b604082019050919050565b60006020820190508181036000830152612a5381612a17565b9050919050565b7f4e487b7100000000000000000000000000000000000000000000000000000000600052603260045260246000fd5b612a928161209b565b82525050565b6000604082019050612aad6000830185612811565b612aba6020830184612a89565b9392505050565b612aca816124ba565b8114612ad557600080fd5b50565b600081519050612ae781612ac1565b92915050565b600060208284031215612b0357612b02611fc6565b5b6000612b1184828501612ad8565b91505092915050565b6000819050919050565b6000819050919050565b6000612b49612b44612b3f84612b1a565b612b24565b61209b565b9050919050565b612b5981612b2e565b82525050565b6000608082019050612b746000830187612811565b612b816020830186612a89565b612b8e6040830185612b50565b612b9b6060830184612811565b95945050505050565b6000819050919050565b6000612bc9612bc4612bbf84612ba4565b612b24565b61209b565b9050919050565b612bd981612bae565b82525050565b6000608082019050612bf46000830187612811565b612c016020830186612a89565b612c0e6040830185612bd0565b612c1b6060830184612811565b95945050505050565b6000606082019050612c396000830186612811565b612c466020830185612811565b612c536040830184612a89565b949350505050565b6000606082019050612c706000830186612811565b612c7d6020830185612a89565b612c8a6040830184612811565b949350505050565b7f4e487b7100000000000000000000000000000000000000000000000000000000600052601160045260246000fd5b6000612ccc8261209b565b9150612cd78361209b565b925082821015612cea57612ce9612c92565b5b828203905092915050565b600081519050919050565b600082825260208201905092915050565b60005b83811015612d2f578082015181840152602081019050612d14565b83811115612d3e576000848401525b50505050565b6000612d4f82612cf5565b612d598185612d00565b9350612d69818560208601612d11565b612d7281612103565b840191505092915050565b6000606082019050612d926000830186612a89565b8181036020830152612da48185612d44565b9050612db36040830184612811565b949350505050565b7f73776170206661696c6564000000000000000000000000000000000000000000600082015250565b6000612df1600b83612794565b9150612dfc82612dbb565b602082019050919050565b60006020820190508181036000830152612e2081612de4565b9050919050565b7f536c69707061676520686967686572207468616e206578706563746564000000600082015250565b6000612e5d601d83612794565b9150612e6882612e27565b602082019050919050565b60006020820190508181036000830152612e8c81612e50565b9050919050565b60008160011c9050919050565b6000808291508390505b6001851115612eea57808604811115612ec657612ec5612c92565b5b6001851615612ed55780820291505b8081029050612ee385612e93565b9450612eaa565b94509492505050565b600082612f035760019050612fbf565b81612f115760009050612fbf565b8160018114612f275760028114612f3157612f60565b6001915050612fbf565b60ff841115612f4357612f42612c92565b5b8360020a915084821115612f5a57612f59612c92565b5b50612fbf565b5060208310610133831016604e8410600b8410161715612f955782820a905083811115612f9057612f8f612c92565b5b612fbf565b612fa28484846001612ea0565b92509050818404811115612fb957612fb8612c92565b5b81810290505b9392505050565b6000612fd18261209b565b9150612fdc8361209b565b92506130097fffffffffffffffffffffffffffffffffffffffffffffffffffffffffffffffff8484612ef3565b905092915050565b7f436f6c6c61746572616c2076616c756520746f6f206c6f770000000000000000600082015250565b6000613047601883612794565b915061305282613011565b602082019050919050565b600060208201905081810360008301526130768161303a565b9050919050565b60006040820190506130926000830185612811565b61309f6020830184612811565b9392505050565b7f4e6f20416c6c6f77616e63650000000000000000000000000000000000000000600082015250565b60006130dc600c83612794565b91506130e7826130a6565b602082019050919050565b6000602082019050818103600083015261310b816130cf565b9050919050565b600061012082019050613128600083018c612811565b613135602083018b612811565b613142604083018a612811565b61314f6060830189612811565b61315c6080830188612a89565b61316960a0830187612a89565b61317660c0830186612a89565b61318360e0830185612a89565b613191610100830184612a89565b9a9950505050505050505050565b600081519050919050565b600082825260208201905092915050565b6000819050602082019050919050565b6131d481611ff0565b82525050565b60006131e683836131cb565b60208301905092915050565b6000602082019050919050565b600061320a8261319f565b61321481856131aa565b935061321f836131bb565b8060005b8381101561325057815161323788826131da565b9750613242836131f2565b925050600181019050613223565b5085935050505092915050565b600081519050919050565b600082825260208201905092915050565b6000819050602082019050919050565b6132928161209b565b82525050565b60006132a48383613289565b60208301905092915050565b6000602082019050919050565b60006132c88261325d565b6132d28185613268565b93506132dd83613279565b8060005b8381101561330e5781516132f58882613298565b9750613300836132b0565b9250506001810190506132e1565b5085935050505092915050565b600061ffff82169050919050565b6133328161331b565b82525050565b600060e08201905061334d600083018a612811565b818103602083015261335f81896131ff565b9050818103604083015261337381886132bd565b9050818103606083015261338781876132bd565b90506133966080830186612811565b81810360a08301526133a88185612d44565b90506133b760c0830184613329565b98975050505050505050565b600060a0820190506133d86000830188612811565b6133e56020830187612811565b6133f26040830186612811565b6133ff6060830185612a89565b61340c6080830184612a89565b9695505050505050565b60006134218261209b565b915061342c8361209b565b9250827fffffffffffffffffffffffffffffffffffffffffffffffffffffffffffffffff0382111561346157613460612c92565b5b828201905092915050565b7f736c6963655f6f766572666c6f77000000000000000000000000000000000000600082015250565b60006134a2600e83612794565b91506134ad8261346c565b602082019050919050565b600060208201905081810360008301526134d181613495565b9050919050565b7f736c6963655f6f75744f66426f756e6473000000000000000000000000000000600082015250565b600061350e601183612794565b9150613519826134d8565b602082019050919050565b6000602082019050818103600083015261353d81613501565b9050919050565b600061354f8261209b565b915061355a8361209b565b9250817fffffffffffffffffffffffffffffffffffffffffffffffffffffffffffffffff048311821515161561359357613592612c92565b5b828202905092915050565b7f4e487b7100000000000000000000000000000000000000000000000000000000600052601260045260246000fd5b60006135d88261209b565b91506135e38361209b565b9250826135f3576135f261359e565b5b828204905092915050565b7f536166654d6174683a206d756c7469706c69636174696f6e206f766572666c6f60008201527f7700000000000000000000000000000000000000000000000000000000000000602082015250565b600061365a602183612794565b9150613665826135fe565b604082019050919050565b600060208201905081810360008301526136898161364d565b9050919050565b7f536166654d6174683a206164646974696f6e206f766572666c6f770000000000600082015250565b60006136c6601b83612794565b91506136d182613690565b602082019050919050565b600060208201905081810360008301526136f5816136b9565b9050919050565b7f5361666545524332303a2063616c6c20746f206e6f6e2d636f6e747261637400600082015250565b6000613732601f83612794565b915061373d826136fc565b602082019050919050565b6000602082019050818103600083015261376181613725565b9050919050565b600081905092915050565b600061377e82612cf5565b6137888185613768565b9350613798818560208601612d11565b80840191505092915050565b60006137b08284613773565b915081905092915050565b7f5361666545524332303a206c6f772d6c6576656c2063616c6c206661696c6564600082015250565b60006137f1602083612794565b91506137fc826137bb565b602082019050919050565b60006020820190508181036000830152613820816137e4565b9050919050565b7f5361666545524332303a204552433230206f7065726174696f6e20646964206e60008201527f6f74207375636365656400000000000000000000000000000000000000000000602082015250565b6000613883602a83612794565b915061388e82613827565b604082019050919050565b600060208201905081810360008301526138b281613876565b9050919050565b600081519050919050565b60006138cf826138b9565b6138d98185612794565b93506138e9818560208601612d11565b6138f281612103565b840191505092915050565b6000602082019050818103600083015261391781846138c4565b90509291505056fea2646970667358221220fe8f85786ddbac89d83ea1b99a6df87d16110f0d5aae73eab03c0d9d214361f864736f6c63430008090033",
  "linkReferences": {},
  "deployedLinkReferences": {}
}