{
  "_format": "hh-sol-artifact-1",
  "contractName": "AaveLeverage",
  "sourceName": "contracts/AaveLeverage.sol",
  "abi": [
    {
      "inputs": [
        {
          "internalType": "address",
          "name": "_admin",
          "type": "address"
        },
        {
          "internalType": "address payable",
          "name": "_swapper",
          "type": "address"
        },
        {
          "internalType": "address[]",
          "name": "_approvedLendingPools",
          "type": "address[]"
        }
      ],
      "stateMutability": "nonpayable",
      "type": "constructor"
    },
    {
      "anonymous": false,
      "inputs": [
        {
          "indexed": false,
          "internalType": "address",
          "name": "leverager",
          "type": "address"
        },
        {
          "indexed": false,
          "internalType": "address",
          "name": "collateral",
          "type": "address"
        },
        {
          "indexed": false,
          "internalType": "address",
          "name": "debt",
          "type": "address"
        },
        {
          "indexed": false,
          "internalType": "uint256",
          "name": "collateralAmount",
          "type": "uint256"
        },
        {
          "indexed": false,
          "internalType": "uint256",
          "name": "debtAmount",
          "type": "uint256"
        }
      ],
      "name": "Leverage",
      "type": "event"
    },
    {
      "inputs": [
        {
          "internalType": "address",
          "name": "pool",
          "type": "address"
        }
      ],
      "name": "approveLendingPool",
      "outputs": [],
      "stateMutability": "nonpayable",
      "type": "function"
    },
    {
      "inputs": [
        {
          "internalType": "address",
          "name": "pool",
          "type": "address"
        }
      ],
      "name": "disapproveLendingPool",
      "outputs": [],
      "stateMutability": "nonpayable",
      "type": "function"
    },
    {
      "inputs": [
        {
          "internalType": "address",
          "name": "_token",
          "type": "address"
        }
      ],
      "name": "getCash",
      "outputs": [],
      "stateMutability": "nonpayable",
      "type": "function"
    },
    {
      "inputs": [
        {
          "internalType": "address",
          "name": "_admin",
          "type": "address"
        }
      ],
      "name": "setAdmin",
      "outputs": [],
      "stateMutability": "nonpayable",
      "type": "function"
    },
    {
      "inputs": [
        {
          "internalType": "address payable",
          "name": "_swapper",
          "type": "address"
        }
      ],
      "name": "setSwapper",
      "outputs": [],
      "stateMutability": "nonpayable",
      "type": "function"
    },
    {
      "inputs": [
        {
          "components": [
            {
              "internalType": "contract ILendingPool",
              "name": "lendingPool",
              "type": "address"
            },
            {
              "internalType": "contract IPriceOracle",
              "name": "priceOracle",
              "type": "address"
            },
            {
              "internalType": "address",
              "name": "collateral",
              "type": "address"
            },
            {
              "internalType": "address",
              "name": "debt",
              "type": "address"
            },
            {
              "internalType": "uint256",
              "name": "collateralAmount",
              "type": "uint256"
            },
            {
              "internalType": "uint256",
              "name": "estimatedLeveragedCollateralAmount",
              "type": "uint256"
            },
            {
              "internalType": "uint256",
              "name": "cRatio",
              "type": "uint256"
            },
            {
              "internalType": "uint256",
              "name": "collateralDecimals",
              "type": "uint256"
            },
            {
              "internalType": "uint256",
              "name": "debtDecimals",
              "type": "uint256"
            },
            {
              "internalType": "uint256",
              "name": "interestRateMode",
              "type": "uint256"
            },
            {
              "internalType": "uint256",
              "name": "loops",
              "type": "uint256"
            },
            {
              "internalType": "bytes",
              "name": "swapData",
              "type": "bytes"
            }
          ],
          "internalType": "struct AaveLeverage.WindArgs",
          "name": "args",
          "type": "tuple"
        }
      ],
      "name": "wind",
      "outputs": [],
      "stateMutability": "nonpayable",
      "type": "function"
    }
  ],
  "bytecode": "0x60806040526127106001553480156200001757600080fd5b50604051620024e4380380620024e483398181016040528101906200003d919062000393565b826000806101000a81548173ffffffffffffffffffffffffffffffffffffffff021916908373ffffffffffffffffffffffffffffffffffffffff16021790555081600260006101000a81548173ffffffffffffffffffffffffffffffffffffffff021916908373ffffffffffffffffffffffffffffffffffffffff16021790555060005b81518110156200015657600160036000848481518110620000e757620000e66200040e565b5b602002602001015173ffffffffffffffffffffffffffffffffffffffff1673ffffffffffffffffffffffffffffffffffffffff16815260200190815260200160002060006101000a81548160ff02191690831515021790555080806200014d9062000476565b915050620000c1565b50505050620004c4565b6000604051905090565b600080fd5b600080fd5b600073ffffffffffffffffffffffffffffffffffffffff82169050919050565b6000620001a18262000174565b9050919050565b620001b38162000194565b8114620001bf57600080fd5b50565b600081519050620001d381620001a8565b92915050565b6000620001e68262000174565b9050919050565b620001f881620001d9565b81146200020457600080fd5b50565b6000815190506200021881620001ed565b92915050565b600080fd5b6000601f19601f8301169050919050565b7f4e487b7100000000000000000000000000000000000000000000000000000000600052604160045260246000fd5b6200026e8262000223565b810181811067ffffffffffffffff8211171562000290576200028f62000234565b5b80604052505050565b6000620002a562000160565b9050620002b3828262000263565b919050565b600067ffffffffffffffff821115620002d657620002d562000234565b5b602082029050602081019050919050565b600080fd5b600062000303620002fd84620002b8565b62000299565b90508083825260208201905060208402830185811115620003295762000328620002e7565b5b835b81811015620003565780620003418882620001c2565b8452602084019350506020810190506200032b565b5050509392505050565b600082601f8301126200037857620003776200021e565b5b81516200038a848260208601620002ec565b91505092915050565b600080600060608486031215620003af57620003ae6200016a565b5b6000620003bf86828701620001c2565b9350506020620003d28682870162000207565b925050604084015167ffffffffffffffff811115620003f657620003f56200016f565b5b620004048682870162000360565b9150509250925092565b7f4e487b7100000000000000000000000000000000000000000000000000000000600052603260045260246000fd5b7f4e487b7100000000000000000000000000000000000000000000000000000000600052601160045260246000fd5b6000819050919050565b600062000483826200046c565b91507fffffffffffffffffffffffffffffffffffffffffffffffffffffffffffffffff821415620004b957620004b86200043d565b5b600182019050919050565b61201080620004d46000396000f3fe608060405234801561001057600080fd5b50600436106100625760003560e01c80635d2c555914610067578063607b463a14610083578063704b6c021461009f5780639c82f2a4146100bb578063a94352a3146100d7578063dbbec593146100f3575b600080fd5b610081600480360381019061007c9190611224565b61010f565b005b61009d60048036038101906100989190611224565b6101f8565b005b6100b960048036038101906100b49190611224565b610368565b005b6100d560048036038101906100d0919061128f565b610439565b005b6100f160048036038101906100ec9190611224565b61050b565b005b61010d600480360381019061010891906115fc565b6105f4565b005b60008054906101000a900473ffffffffffffffffffffffffffffffffffffffff1673ffffffffffffffffffffffffffffffffffffffff163373ffffffffffffffffffffffffffffffffffffffff161461019d576040517f08c379a0000000000000000000000000000000000000000000000000000000008152600401610194906116a2565b60405180910390fd5b6000600360008373ffffffffffffffffffffffffffffffffffffffff1673ffffffffffffffffffffffffffffffffffffffff16815260200190815260200160002060006101000a81548160ff02191690831515021790555050565b60008054906101000a900473ffffffffffffffffffffffffffffffffffffffff1673ffffffffffffffffffffffffffffffffffffffff163373ffffffffffffffffffffffffffffffffffffffff1614610286576040517f08c379a000000000000000000000000000000000000000000000000000000000815260040161027d906116a2565b60405180910390fd5b600081905060008173ffffffffffffffffffffffffffffffffffffffff166370a08231306040518263ffffffff1660e01b81526004016102c691906116d1565b60206040518083038186803b1580156102de57600080fd5b505afa1580156102f2573d6000803e3d6000fd5b505050506040513d601f19601f820116820180604052508101906103169190611701565b905061036360008054906101000a900473ffffffffffffffffffffffffffffffffffffffff16828473ffffffffffffffffffffffffffffffffffffffff16610dbf9092919063ffffffff16565b505050565b60008054906101000a900473ffffffffffffffffffffffffffffffffffffffff1673ffffffffffffffffffffffffffffffffffffffff163373ffffffffffffffffffffffffffffffffffffffff16146103f6576040517f08c379a00000000000000000000000000000000000000000000000000000000081526004016103ed906116a2565b60405180910390fd5b806000806101000a81548173ffffffffffffffffffffffffffffffffffffffff021916908373ffffffffffffffffffffffffffffffffffffffff16021790555050565b60008054906101000a900473ffffffffffffffffffffffffffffffffffffffff1673ffffffffffffffffffffffffffffffffffffffff163373ffffffffffffffffffffffffffffffffffffffff16146104c7576040517f08c379a00000000000000000000000000000000000000000000000000000000081526004016104be906116a2565b60405180910390fd5b80600260006101000a81548173ffffffffffffffffffffffffffffffffffffffff021916908373ffffffffffffffffffffffffffffffffffffffff16021790555050565b60008054906101000a900473ffffffffffffffffffffffffffffffffffffffff1673ffffffffffffffffffffffffffffffffffffffff163373ffffffffffffffffffffffffffffffffffffffff1614610599576040517f08c379a0000000000000000000000000000000000000000000000000000000008152600401610590906116a2565b60405180910390fd5b6001600360008373ffffffffffffffffffffffffffffffffffffffff1673ffffffffffffffffffffffffffffffffffffffff16815260200190815260200160002060006101000a81548160ff02191690831515021790555050565b600081604001519050600082606001519050610637333085608001518573ffffffffffffffffffffffffffffffffffffffff16610e45909392919063ffffffff16565b8173ffffffffffffffffffffffffffffffffffffffff1663095ea7b3846000015160648660800151610669919061175d565b6040518363ffffffff1660e01b81526004016106869291906117c6565b602060405180830381600087803b1580156106a057600080fd5b505af11580156106b4573d6000803e3d6000fd5b505050506040513d601f19601f820116820180604052508101906106d89190611827565b506000836020015173ffffffffffffffffffffffffffffffffffffffff1663b3596f0785604001516040518263ffffffff1660e01b815260040161071c91906116d1565b60206040518083038186803b15801561073457600080fd5b505afa158015610748573d6000803e3d6000fd5b505050506040513d601f19601f8201168201806040525081019061076c9190611701565b90506000846020015173ffffffffffffffffffffffffffffffffffffffff1663b3596f0786606001516040518263ffffffff1660e01b81526004016107b191906116d1565b60206040518083038186803b1580156107c957600080fd5b505afa1580156107dd573d6000803e3d6000fd5b505050506040513d601f19601f820116820180604052508101906108019190611701565b9050600080600080610842620f42406108348b6101000151600a6108259190611987565b89610ece90919063ffffffff16565b610ece90919063ffffffff16565b9050600061087f8a60c001516108718c60e00151600a6108629190611987565b89610ece90919063ffffffff16565b610ece90919063ffffffff16565b905060005b8a6101400151811015610c58578973ffffffffffffffffffffffffffffffffffffffff166370a08231306040518263ffffffff1660e01b81526004016108ca91906116d1565b60206040518083038186803b1580156108e257600080fd5b505afa1580156108f6573d6000803e3d6000fd5b505050506040513d601f19601f8201168201806040525081019061091a9190611701565b9550610941826109338589610ece90919063ffffffff16565b610f4990919063ffffffff16565b9450858461094f91906119d2565b93508a6000015173ffffffffffffffffffffffffffffffffffffffff1663e8eda9df8c60400151883360006040518563ffffffff1660e01b81526004016109999493929190611a7b565b600060405180830381600087803b1580156109b357600080fd5b505af11580156109c7573d6000803e3d6000fd5b505050508a6000015173ffffffffffffffffffffffffffffffffffffffff1663a415bcad8c60600151878e61012001516000336040518663ffffffff1660e01b8152600401610a1a959493929190611ac0565b600060405180830381600087803b158015610a3457600080fd5b505af1158015610a48573d6000803e3d6000fd5b5050505060008973ffffffffffffffffffffffffffffffffffffffff166370a08231306040518263ffffffff1660e01b8152600401610a8791906116d1565b60206040518083038186803b158015610a9f57600080fd5b505afa158015610ab3573d6000803e3d6000fd5b505050506040513d601f19601f82011682018060405250810190610ad79190611701565b90508973ffffffffffffffffffffffffffffffffffffffff1663a9059cbb600260009054906101000a900473ffffffffffffffffffffffffffffffffffffffff16836040518363ffffffff1660e01b8152600401610b369291906117c6565b602060405180830381600087803b158015610b5057600080fd5b505af1158015610b64573d6000803e3d6000fd5b505050506040513d601f19601f82011682018060405250810190610b889190611827565b50600260009054906101000a900473ffffffffffffffffffffffffffffffffffffffff1673ffffffffffffffffffffffffffffffffffffffff16636df0e4a8828e61016001518f604001516040518463ffffffff1660e01b8152600401610bf193929190611b9b565b602060405180830381600087803b158015610c0b57600080fd5b505af1158015610c1f573d6000803e3d6000fd5b505050506040513d601f19601f82011682018060405250810190610c439190611701565b50508080610c5090611bd9565b915050610884565b508873ffffffffffffffffffffffffffffffffffffffff166370a08231306040518263ffffffff1660e01b8152600401610c9291906116d1565b60206040518083038186803b158015610caa57600080fd5b505afa158015610cbe573d6000803e3d6000fd5b505050506040513d601f19601f82011682018060405250810190610ce29190611701565b94508483610cf091906119d2565b9250896000015173ffffffffffffffffffffffffffffffffffffffff1663e8eda9df8b60400151873360006040518563ffffffff1660e01b8152600401610d3a9493929190611a7b565b600060405180830381600087803b158015610d5457600080fd5b505af1158015610d68573d6000803e3d6000fd5b505050508960a00151831015610db3576040517f08c379a0000000000000000000000000000000000000000000000000000000008152600401610daa90611c6e565b60405180910390fd5b50505050505050505050565b610e408363a9059cbb60e01b8484604051602401610dde9291906117c6565b604051602081830303815290604052907bffffffffffffffffffffffffffffffffffffffffffffffffffffffff19166020820180517bffffffffffffffffffffffffffffffffffffffffffffffffffffffff8381831617835250505050610f93565b505050565b610ec8846323b872dd60e01b858585604051602401610e6693929190611c8e565b604051602081830303815290604052907bffffffffffffffffffffffffffffffffffffffffffffffffffffffff19166020820180517bffffffffffffffffffffffffffffffffffffffffffffffffffffffff8381831617835250505050610f93565b50505050565b600080831415610ee15760009050610f43565b60008284610eef919061175d565b9050828482610efe9190611cf4565b14610f3e576040517f08c379a0000000000000000000000000000000000000000000000000000000008152600401610f3590611d97565b60405180910390fd5b809150505b92915050565b6000610f8b83836040518060400160405280601a81526020017f536166654d6174683a206469766973696f6e206279207a65726f000000000000815250611104565b905092915050565b610fb28273ffffffffffffffffffffffffffffffffffffffff16611167565b610ff1576040517f08c379a0000000000000000000000000000000000000000000000000000000008152600401610fe890611e03565b60405180910390fd5b6000808373ffffffffffffffffffffffffffffffffffffffff16836040516110199190611e5f565b6000604051808303816000865af19150503d8060008114611056576040519150601f19603f3d011682016040523d82523d6000602084013e61105b565b606091505b5091509150816110a0576040517f08c379a000000000000000000000000000000000000000000000000000000000815260040161109790611ec2565b60405180910390fd5b6000815111156110fe57808060200190518101906110be9190611827565b6110fd576040517f08c379a00000000000000000000000000000000000000000000000000000000081526004016110f490611f54565b60405180910390fd5b5b50505050565b6000808311829061114b576040517f08c379a00000000000000000000000000000000000000000000000000000000081526004016111429190611fb8565b60405180910390fd5b506000838561115a9190611cf4565b9050809150509392505050565b60008060007fc5d2460186f7233c927e7db2dcc703c0e500b653ca82273b7bfad8045d85a47060001b9050833f91508082141580156111a957506000801b8214155b92505050919050565b6000604051905090565b600080fd5b600080fd5b600073ffffffffffffffffffffffffffffffffffffffff82169050919050565b60006111f1826111c6565b9050919050565b611201816111e6565b811461120c57600080fd5b50565b60008135905061121e816111f8565b92915050565b60006020828403121561123a576112396111bc565b5b60006112488482850161120f565b91505092915050565b600061125c826111c6565b9050919050565b61126c81611251565b811461127757600080fd5b50565b60008135905061128981611263565b92915050565b6000602082840312156112a5576112a46111bc565b5b60006112b38482850161127a565b91505092915050565b600080fd5b6000601f19601f8301169050919050565b7f4e487b7100000000000000000000000000000000000000000000000000000000600052604160045260246000fd5b61130a826112c1565b810181811067ffffffffffffffff82111715611329576113286112d2565b5b80604052505050565b600061133c6111b2565b90506113488282611301565b919050565b600080fd5b600061135d826111e6565b9050919050565b61136d81611352565b811461137857600080fd5b50565b60008135905061138a81611364565b92915050565b600061139b826111e6565b9050919050565b6113ab81611390565b81146113b657600080fd5b50565b6000813590506113c8816113a2565b92915050565b6000819050919050565b6113e1816113ce565b81146113ec57600080fd5b50565b6000813590506113fe816113d8565b92915050565b600080fd5b600080fd5b600067ffffffffffffffff821115611429576114286112d2565b5b611432826112c1565b9050602081019050919050565b82818337600083830152505050565b600061146161145c8461140e565b611332565b90508281526020810184848401111561147d5761147c611409565b5b61148884828561143f565b509392505050565b600082601f8301126114a5576114a4611404565b5b81356114b584826020860161144e565b91505092915050565b600061018082840312156114d5576114d46112bc565b5b6114e0610180611332565b905060006114f08482850161137b565b6000830152506020611504848285016113b9565b60208301525060406115188482850161120f565b604083015250606061152c8482850161120f565b6060830152506080611540848285016113ef565b60808301525060a0611554848285016113ef565b60a08301525060c0611568848285016113ef565b60c08301525060e061157c848285016113ef565b60e083015250610100611591848285016113ef565b610100830152506101206115a7848285016113ef565b610120830152506101406115bd848285016113ef565b6101408301525061016082013567ffffffffffffffff8111156115e3576115e261134d565b5b6115ef84828501611490565b6101608301525092915050565b600060208284031215611612576116116111bc565b5b600082013567ffffffffffffffff8111156116305761162f6111c1565b5b61163c848285016114be565b91505092915050565b600082825260208201905092915050565b7f6e6f742061646d696e0000000000000000000000000000000000000000000000600082015250565b600061168c600983611645565b915061169782611656565b602082019050919050565b600060208201905081810360008301526116bb8161167f565b9050919050565b6116cb816111e6565b82525050565b60006020820190506116e660008301846116c2565b92915050565b6000815190506116fb816113d8565b92915050565b600060208284031215611717576117166111bc565b5b6000611725848285016116ec565b91505092915050565b7f4e487b7100000000000000000000000000000000000000000000000000000000600052601160045260246000fd5b6000611768826113ce565b9150611773836113ce565b9250817fffffffffffffffffffffffffffffffffffffffffffffffffffffffffffffffff04831182151516156117ac576117ab61172e565b5b828202905092915050565b6117c0816113ce565b82525050565b60006040820190506117db60008301856116c2565b6117e860208301846117b7565b9392505050565b60008115159050919050565b611804816117ef565b811461180f57600080fd5b50565b600081519050611821816117fb565b92915050565b60006020828403121561183d5761183c6111bc565b5b600061184b84828501611812565b91505092915050565b60008160011c9050919050565b6000808291508390505b60018511156118ab578086048111156118875761188661172e565b5b60018516156118965780820291505b80810290506118a485611854565b945061186b565b94509492505050565b6000826118c45760019050611980565b816118d25760009050611980565b81600181146118e857600281146118f257611921565b6001915050611980565b60ff8411156119045761190361172e565b5b8360020a91508482111561191b5761191a61172e565b5b50611980565b5060208310610133831016604e8410600b84101617156119565782820a9050838111156119515761195061172e565b5b611980565b6119638484846001611861565b9250905081840481111561197a5761197961172e565b5b81810290505b9392505050565b6000611992826113ce565b915061199d836113ce565b92506119ca7fffffffffffffffffffffffffffffffffffffffffffffffffffffffffffffffff84846118b4565b905092915050565b60006119dd826113ce565b91506119e8836113ce565b9250827fffffffffffffffffffffffffffffffffffffffffffffffffffffffffffffffff03821115611a1d57611a1c61172e565b5b828201905092915050565b6000819050919050565b600061ffff82169050919050565b6000819050919050565b6000611a65611a60611a5b84611a28565b611a40565b611a32565b9050919050565b611a7581611a4a565b82525050565b6000608082019050611a9060008301876116c2565b611a9d60208301866117b7565b611aaa60408301856116c2565b611ab76060830184611a6c565b95945050505050565b600060a082019050611ad560008301886116c2565b611ae260208301876117b7565b611aef60408301866117b7565b611afc6060830185611a6c565b611b0960808301846116c2565b9695505050505050565b600081519050919050565b600082825260208201905092915050565b60005b83811015611b4d578082015181840152602081019050611b32565b83811115611b5c576000848401525b50505050565b6000611b6d82611b13565b611b778185611b1e565b9350611b87818560208601611b2f565b611b90816112c1565b840191505092915050565b6000606082019050611bb060008301866117b7565b8181036020830152611bc28185611b62565b9050611bd160408301846116c2565b949350505050565b6000611be4826113ce565b91507fffffffffffffffffffffffffffffffffffffffffffffffffffffffffffffffff821415611c1757611c1661172e565b5b600182019050919050565b7f4c65766572616765206661696c65640000000000000000000000000000000000600082015250565b6000611c58600f83611645565b9150611c6382611c22565b602082019050919050565b60006020820190508181036000830152611c8781611c4b565b9050919050565b6000606082019050611ca360008301866116c2565b611cb060208301856116c2565b611cbd60408301846117b7565b949350505050565b7f4e487b7100000000000000000000000000000000000000000000000000000000600052601260045260246000fd5b6000611cff826113ce565b9150611d0a836113ce565b925082611d1a57611d19611cc5565b5b828204905092915050565b7f536166654d6174683a206d756c7469706c69636174696f6e206f766572666c6f60008201527f7700000000000000000000000000000000000000000000000000000000000000602082015250565b6000611d81602183611645565b9150611d8c82611d25565b604082019050919050565b60006020820190508181036000830152611db081611d74565b9050919050565b7f5361666545524332303a2063616c6c20746f206e6f6e2d636f6e747261637400600082015250565b6000611ded601f83611645565b9150611df882611db7565b602082019050919050565b60006020820190508181036000830152611e1c81611de0565b9050919050565b600081905092915050565b6000611e3982611b13565b611e438185611e23565b9350611e53818560208601611b2f565b80840191505092915050565b6000611e6b8284611e2e565b915081905092915050565b7f5361666545524332303a206c6f772d6c6576656c2063616c6c206661696c6564600082015250565b6000611eac602083611645565b9150611eb782611e76565b602082019050919050565b60006020820190508181036000830152611edb81611e9f565b9050919050565b7f5361666545524332303a204552433230206f7065726174696f6e20646964206e60008201527f6f74207375636365656400000000000000000000000000000000000000000000602082015250565b6000611f3e602a83611645565b9150611f4982611ee2565b604082019050919050565b60006020820190508181036000830152611f6d81611f31565b9050919050565b600081519050919050565b6000611f8a82611f74565b611f948185611645565b9350611fa4818560208601611b2f565b611fad816112c1565b840191505092915050565b60006020820190508181036000830152611fd28184611f7f565b90509291505056fea26469706673582212208a5daa829a7cae5428711defa4443736995c05fa1cbf87bb6c1c3f14a435135464736f6c63430008090033",
  "linkReferences": {},
  "deployedLinkReferences": {}
}