{
  "_format": "hh-sol-artifact-1",
  "contractName": "CompoundLiquidator",
  "sourceName": "contracts/CompoundLiquidator.sol",
  "abi": [
    {
      "inputs": [
        {
          "internalType": "address",
          "name": "_admin",
          "type": "address"
        },
        {
          "internalType": "address",
          "name": "_treasury",
          "type": "address"
        },
        {
          "internalType": "address payable",
          "name": "_swapper",
          "type": "address"
        },
        {
          "internalType": "address",
          "name": "_WETH",
          "type": "address"
        },
        {
          "internalType": "address[]",
          "name": "_approvedLendingPools",
          "type": "address[]"
        }
      ],
      "stateMutability": "nonpayable",
      "type": "constructor"
    },
    {
      "anonymous": false,
      "inputs": [
        {
          "indexed": false,
          "internalType": "address",
          "name": "liquidator",
          "type": "address"
        },
        {
          "indexed": false,
          "internalType": "address",
          "name": "debt",
          "type": "address"
        },
        {
          "indexed": false,
          "internalType": "address",
          "name": "collateral",
          "type": "address"
        },
        {
          "indexed": false,
          "internalType": "uint256",
          "name": "debtAmount",
          "type": "uint256"
        },
        {
          "indexed": false,
          "internalType": "uint256",
          "name": "collateralAmount",
          "type": "uint256"
        }
      ],
      "name": "Liquidation",
      "type": "event"
    },
    {
      "stateMutability": "nonpayable",
      "type": "fallback"
    },
    {
      "inputs": [
        {
          "internalType": "address",
          "name": "pool",
          "type": "address"
        }
      ],
      "name": "approveLendingPool",
      "outputs": [],
      "stateMutability": "nonpayable",
      "type": "function"
    },
    {
      "inputs": [
        {
          "internalType": "address",
          "name": "pool",
          "type": "address"
        }
      ],
      "name": "disapproveLendingPool",
      "outputs": [],
      "stateMutability": "nonpayable",
      "type": "function"
    },
    {
      "inputs": [
        {
          "internalType": "address[]",
          "name": "assets",
          "type": "address[]"
        },
        {
          "internalType": "uint256[]",
          "name": "amounts",
          "type": "uint256[]"
        },
        {
          "internalType": "uint256[]",
          "name": "premiums",
          "type": "uint256[]"
        },
        {
          "internalType": "address",
          "name": "sender",
          "type": "address"
        },
        {
          "internalType": "bytes",
          "name": "data",
          "type": "bytes"
        }
      ],
      "name": "executeOperation",
      "outputs": [
        {
          "internalType": "bool",
          "name": "",
          "type": "bool"
        }
      ],
      "stateMutability": "nonpayable",
      "type": "function"
    },
    {
      "inputs": [
        {
          "internalType": "address",
          "name": "_token",
          "type": "address"
        }
      ],
      "name": "getCash",
      "outputs": [],
      "stateMutability": "nonpayable",
      "type": "function"
    },
    {
      "inputs": [
        {
          "internalType": "address",
          "name": "_token",
          "type": "address"
        },
        {
          "internalType": "address",
          "name": "to",
          "type": "address"
        }
      ],
      "name": "getCashSend",
      "outputs": [],
      "stateMutability": "nonpayable",
      "type": "function"
    },
    {
      "inputs": [
        {
          "components": [
            {
              "internalType": "contract ILendingPool",
              "name": "lendingPool",
              "type": "address"
            },
            {
              "internalType": "contract IPriceOracle",
              "name": "priceOracle",
              "type": "address"
            },
            {
              "internalType": "address",
              "name": "cTokenDebt",
              "type": "address"
            },
            {
              "internalType": "address",
              "name": "cTokenCollateral",
              "type": "address"
            },
            {
              "internalType": "address",
              "name": "debt",
              "type": "address"
            },
            {
              "internalType": "address",
              "name": "collateral",
              "type": "address"
            },
            {
              "internalType": "uint256",
              "name": "debtAmount",
              "type": "uint256"
            },
            {
              "internalType": "uint256",
              "name": "collateralAmount",
              "type": "uint256"
            },
            {
              "internalType": "uint256",
              "name": "collateralCTokenAmount",
              "type": "uint256"
            },
            {
              "internalType": "uint256",
              "name": "collateralCTokenDecimals",
              "type": "uint256"
            },
            {
              "internalType": "uint256",
              "name": "feePlusSlippage",
              "type": "uint256"
            },
            {
              "internalType": "uint256",
              "name": "minSwapOut",
              "type": "uint256"
            },
            {
              "internalType": "bytes",
              "name": "swapData",
              "type": "bytes"
            }
          ],
          "internalType": "struct CompoundLiquidator.aaveLiquidateArgs",
          "name": "args",
          "type": "tuple"
        }
      ],
      "name": "liquidate",
      "outputs": [],
      "stateMutability": "nonpayable",
      "type": "function"
    },
    {
      "inputs": [
        {
          "internalType": "address",
          "name": "_admin",
          "type": "address"
        }
      ],
      "name": "setAdmin",
      "outputs": [],
      "stateMutability": "nonpayable",
      "type": "function"
    },
    {
      "inputs": [
        {
          "internalType": "uint256",
          "name": "_fee",
          "type": "uint256"
        }
      ],
      "name": "setFee",
      "outputs": [],
      "stateMutability": "nonpayable",
      "type": "function"
    },
    {
      "inputs": [
        {
          "internalType": "address payable",
          "name": "_swapper",
          "type": "address"
        }
      ],
      "name": "setSwapper",
      "outputs": [],
      "stateMutability": "nonpayable",
      "type": "function"
    },
    {
      "inputs": [
        {
          "internalType": "address",
          "name": "_treasury",
          "type": "address"
        }
      ],
      "name": "setTreasury",
      "outputs": [],
      "stateMutability": "nonpayable",
      "type": "function"
    },
    {
      "inputs": [
        {
          "components": [
            {
              "internalType": "contract IUniswapV2Pair",
              "name": "pool",
              "type": "address"
            },
            {
              "internalType": "bool",
              "name": "debtIsToken0",
              "type": "bool"
            },
            {
              "internalType": "address",
              "name": "repayToken",
              "type": "address"
            },
            {
              "internalType": "contract IPriceOracle",
              "name": "priceOracle",
              "type": "address"
            },
            {
              "internalType": "address",
              "name": "cTokenDebt",
              "type": "address"
            },
            {
              "internalType": "address",
              "name": "cTokenCollateral",
              "type": "address"
            },
            {
              "internalType": "address",
              "name": "debt",
              "type": "address"
            },
            {
              "internalType": "address",
              "name": "collateral",
              "type": "address"
            },
            {
              "internalType": "uint256",
              "name": "debtAmount",
              "type": "uint256"
            },
            {
              "internalType": "uint256",
              "name": "collateralAmount",
              "type": "uint256"
            },
            {
              "internalType": "uint256",
              "name": "collateralCTokenAmount",
              "type": "uint256"
            },
            {
              "internalType": "uint256",
              "name": "collateralCTokenDecimals",
              "type": "uint256"
            },
            {
              "internalType": "uint256",
              "name": "feePlusSlippage",
              "type": "uint256"
            },
            {
              "internalType": "uint256",
              "name": "minSwapOut",
              "type": "uint256"
            },
            {
              "internalType": "bytes",
              "name": "swapData",
              "type": "bytes"
            }
          ],
          "internalType": "struct CompoundLiquidator.v2LiquidateArgs",
          "name": "args",
          "type": "tuple"
        }
      ],
      "name": "v2Liquidate",
      "outputs": [],
      "stateMutability": "nonpayable",
      "type": "function"
    },
    {
      "inputs": [
        {
          "components": [
            {
              "internalType": "contract IPriceOracle",
              "name": "priceOracle",
              "type": "address"
            },
            {
              "internalType": "address",
              "name": "cTokenDebt",
              "type": "address"
            },
            {
              "internalType": "address",
              "name": "cTokenCollateral",
              "type": "address"
            },
            {
              "internalType": "uint256",
              "name": "debtAmount",
              "type": "uint256"
            },
            {
              "internalType": "uint256",
              "name": "collateralAmount",
              "type": "uint256"
            },
            {
              "internalType": "uint256",
              "name": "collateralCTokenAmount",
              "type": "uint256"
            },
            {
              "internalType": "uint256",
              "name": "collateralCTokenDecimals",
              "type": "uint256"
            },
            {
              "internalType": "uint256",
              "name": "feePlusSlippage",
              "type": "uint256"
            }
          ],
          "internalType": "struct CompoundLiquidator.validateArgs",
          "name": "args",
          "type": "tuple"
        }
      ],
      "name": "validateLiquidation",
      "outputs": [
        {
          "internalType": "uint256",
          "name": "",
          "type": "uint256"
        },
        {
          "internalType": "uint256",
          "name": "",
          "type": "uint256"
        }
      ],
      "stateMutability": "nonpayable",
      "type": "function"
    },
    {
      "stateMutability": "payable",
      "type": "receive"
    }
  ],
  "bytecode": "0x60806040526127106003553480156200001757600080fd5b50604051620056dc380380620056dc83398181016040528101906200003d919062000417565b846000806101000a81548173ffffffffffffffffffffffffffffffffffffffff021916908373ffffffffffffffffffffffffffffffffffffffff16021790555083600160006101000a81548173ffffffffffffffffffffffffffffffffffffffff021916908373ffffffffffffffffffffffffffffffffffffffff16021790555082600460006101000a81548173ffffffffffffffffffffffffffffffffffffffff021916908373ffffffffffffffffffffffffffffffffffffffff16021790555081600260006101000a81548173ffffffffffffffffffffffffffffffffffffffff021916908373ffffffffffffffffffffffffffffffffffffffff16021790555060005b8151811015620001d857600160056000848481518110620001695762000168620004be565b5b602002602001015173ffffffffffffffffffffffffffffffffffffffff1673ffffffffffffffffffffffffffffffffffffffff16815260200190815260200160002060006101000a81548160ff0219169083151502179055508080620001cf9062000526565b91505062000143565b50505050505062000574565b6000604051905090565b600080fd5b600080fd5b600073ffffffffffffffffffffffffffffffffffffffff82169050919050565b60006200022582620001f8565b9050919050565b620002378162000218565b81146200024357600080fd5b50565b60008151905062000257816200022c565b92915050565b60006200026a82620001f8565b9050919050565b6200027c816200025d565b81146200028857600080fd5b50565b6000815190506200029c8162000271565b92915050565b600080fd5b6000601f19601f8301169050919050565b7f4e487b7100000000000000000000000000000000000000000000000000000000600052604160045260246000fd5b620002f282620002a7565b810181811067ffffffffffffffff82111715620003145762000313620002b8565b5b80604052505050565b600062000329620001e4565b9050620003378282620002e7565b919050565b600067ffffffffffffffff8211156200035a5762000359620002b8565b5b602082029050602081019050919050565b600080fd5b60006200038762000381846200033c565b6200031d565b90508083825260208201905060208402830185811115620003ad57620003ac6200036b565b5b835b81811015620003da5780620003c5888262000246565b845260208401935050602081019050620003af565b5050509392505050565b600082601f830112620003fc57620003fb620002a2565b5b81516200040e84826020860162000370565b91505092915050565b600080600080600060a08688031215620004365762000435620001ee565b5b6000620004468882890162000246565b9550506020620004598882890162000246565b94505060406200046c888289016200028b565b93505060606200047f8882890162000246565b925050608086015167ffffffffffffffff811115620004a357620004a2620001f3565b5b620004b188828901620003e4565b9150509295509295909350565b7f4e487b7100000000000000000000000000000000000000000000000000000000600052603260045260246000fd5b7f4e487b7100000000000000000000000000000000000000000000000000000000600052601160045260246000fd5b6000819050919050565b600062000533826200051c565b91507fffffffffffffffffffffffffffffffffffffffffffffffffffffffffffffffff821415620005695762000568620004ed565b5b600182019050919050565b61515880620005846000396000f3fe6080604052600436106100ab5760003560e01c8063920f5c8411610064578063920f5c84146102c35780639c82f2a414610300578063a94352a314610329578063cc244cee14610352578063ea40d3501461037b578063f0f44260146103a4576100b2565b8063362daf82146101b85780635d2c5559146101e1578063607b463a1461020a57806369fe0e2d14610233578063704b6c021461025c57806380195f8c14610285576100b2565b366100b257005b3480156100be57600080fd5b5060003660606000806101226024606087878080601f016020809104026020016040519081016040528093929190818152602001838380828437600081840152601f19601f820116905080830192505050505050506103cd9092919063ffffffff16565b8060200190518101906101359190613341565b915091506101ab82826101a660a4808a8a905061015291906133b0565b8a8a8080601f016020809104026020016040519081016040528093929190818152602001838380828437600081840152601f19601f820116905080830192505050505050506103cd9092919063ffffffff16565b6104eb565b5050915050805190602001f35b3480156101c457600080fd5b506101df60048036038101906101da9190613442565b610c76565b005b3480156101ed57600080fd5b5061020860048036038101906102039190613482565b610dc7565b005b34801561021657600080fd5b50610231600480360381019061022c9190613482565b610eb0565b005b34801561023f57600080fd5b5061025a600480360381019061025591906134c4565b611020565b005b34801561026857600080fd5b50610283600480360381019061027e9190613482565b6110b8565b005b34801561029157600080fd5b506102ac60048036038101906102a7919061368f565b611189565b6040516102ba9291906136cc565b60405180910390f35b3480156102cf57600080fd5b506102ea60048036038101906102e5919061393a565b611594565b6040516102f79190613a40565b60405180910390f35b34801561030c57600080fd5b5061032760048036038101906103229190613a99565b611e5b565b005b34801561033557600080fd5b50610350600480360381019061034b9190613482565b611f2d565b005b34801561035e57600080fd5b5061037960048036038101906103749190613c58565b612016565b005b34801561038757600080fd5b506103a2600480360381019061039d9190613e8b565b612691565b005b3480156103b057600080fd5b506103cb60048036038101906103c69190613482565b612d04565b005b606081601f836103dd9190613ed4565b101561041e576040517f08c379a000000000000000000000000000000000000000000000000000000000815260040161041590613f87565b60405180910390fd5b818361042a9190613ed4565b8451101561046d576040517f08c379a000000000000000000000000000000000000000000000000000000000815260040161046490613ff3565b60405180910390fd5b606082156000811461048e57604051915060008252602082016040526104df565b6040519150601f8416801560200281840101858101878315602002848b0101015b818310156104cc57805183526020830192506020810190506104af565b50868552601f19601f8301166040525050505b50809150509392505050565b60008060008060008060008060008061051260006101408d6103cd9092919063ffffffff16565b8060200190518101906105259190614028565b99509950995099509950995099509950995099508973ffffffffffffffffffffffffffffffffffffffff163273ffffffffffffffffffffffffffffffffffffffff16146105a7576040517f08c379a000000000000000000000000000000000000000000000000000000000815260040161059e90614179565b60405180910390fd5b600260009054906101000a900473ffffffffffffffffffffffffffffffffffffffff1673ffffffffffffffffffffffffffffffffffffffff168973ffffffffffffffffffffffffffffffffffffffff1614156106fb57600260009054906101000a900473ffffffffffffffffffffffffffffffffffffffff1673ffffffffffffffffffffffffffffffffffffffff16632e1a7d4d856040518263ffffffff1660e01b81526004016106589190614199565b600060405180830381600087803b15801561067257600080fd5b505af1158015610686573d6000803e3d6000fd5b505050508673ffffffffffffffffffffffffffffffffffffffff1663e5974619858c6040518363ffffffff1660e01b81526004016106c491906141c3565b6000604051808303818588803b1580156106dd57600080fd5b505af11580156106f1573d6000803e3d6000fd5b5050505050610818565b8873ffffffffffffffffffffffffffffffffffffffff1663095ea7b388866040518363ffffffff1660e01b81526004016107369291906141de565b602060405180830381600087803b15801561075057600080fd5b505af1158015610764573d6000803e3d6000fd5b505050506040513d601f19601f82011682018060405250810190610788919061421c565b508673ffffffffffffffffffffffffffffffffffffffff16632608f8188b866040518363ffffffff1660e01b81526004016107c49291906141de565b602060405180830381600087803b1580156107de57600080fd5b505af11580156107f2573d6000803e3d6000fd5b505050506040513d601f19601f820116820180604052508101906108169190614249565b505b8573ffffffffffffffffffffffffffffffffffffffff166323b872dd8b30856040518463ffffffff1660e01b815260040161085593929190614276565b602060405180830381600087803b15801561086f57600080fd5b505af1158015610883573d6000803e3d6000fd5b505050506040513d601f19601f820116820180604052508101906108a7919061421c565b508573ffffffffffffffffffffffffffffffffffffffff1663db006a758773ffffffffffffffffffffffffffffffffffffffff166370a08231306040518263ffffffff1660e01b81526004016108fd91906141c3565b60206040518083038186803b15801561091557600080fd5b505afa158015610929573d6000803e3d6000fd5b505050506040513d601f19601f8201168201806040525081019061094d9190614249565b6040518263ffffffff1660e01b81526004016109699190614199565b602060405180830381600087803b15801561098357600080fd5b505af1158015610997573d6000803e3d6000fd5b505050506040513d601f19601f820116820180604052508101906109bb9190614249565b50600260009054906101000a900473ffffffffffffffffffffffffffffffffffffffff1673ffffffffffffffffffffffffffffffffffffffff168873ffffffffffffffffffffffffffffffffffffffff161415610a9657600260009054906101000a900473ffffffffffffffffffffffffffffffffffffffff1673ffffffffffffffffffffffffffffffffffffffff1663d0e30db0476040518263ffffffff1660e01b81526004016000604051808303818588803b158015610a7c57600080fd5b505af1158015610a90573d6000803e3d6000fd5b50505050505b6101408b511115610c3c57610ac4610140808d51610ab491906133b0565b8d6103cd9092919063ffffffff16565b9a50610b02610af3620f4240610ae560035487612dd690919063ffffffff16565b612e5190919063ffffffff16565b84612e9b90919063ffffffff16565b9250610b51600460009054906101000a900473ffffffffffffffffffffffffffffffffffffffff16848a73ffffffffffffffffffffffffffffffffffffffff16612ee59092919063ffffffff16565b600460009054906101000a900473ffffffffffffffffffffffffffffffffffffffff1673ffffffffffffffffffffffffffffffffffffffff16636df0e4a8848d886040518463ffffffff1660e01b8152600401610bb093929190614335565b602060405180830381600087803b158015610bca57600080fd5b505af1925050508015610bfb57506040513d601f19601f82011682018060405250810190610bf89190614249565b60015b610c3a576040517f08c379a0000000000000000000000000000000000000000000000000000000008152600401610c31906143bf565b60405180910390fd5b505b610c6733828773ffffffffffffffffffffffffffffffffffffffff16612ee59092919063ffffffff16565b50505050505050505050505050565b60008054906101000a900473ffffffffffffffffffffffffffffffffffffffff1673ffffffffffffffffffffffffffffffffffffffff163373ffffffffffffffffffffffffffffffffffffffff1614610d04576040517f08c379a0000000000000000000000000000000000000000000000000000000008152600401610cfb9061442b565b60405180910390fd5b600082905060008173ffffffffffffffffffffffffffffffffffffffff166370a08231306040518263ffffffff1660e01b8152600401610d4491906141c3565b60206040518083038186803b158015610d5c57600080fd5b505afa158015610d70573d6000803e3d6000fd5b505050506040513d601f19601f82011682018060405250810190610d949190614249565b9050610dc183828473ffffffffffffffffffffffffffffffffffffffff16612ee59092919063ffffffff16565b50505050565b60008054906101000a900473ffffffffffffffffffffffffffffffffffffffff1673ffffffffffffffffffffffffffffffffffffffff163373ffffffffffffffffffffffffffffffffffffffff1614610e55576040517f08c379a0000000000000000000000000000000000000000000000000000000008152600401610e4c9061442b565b60405180910390fd5b6000600560008373ffffffffffffffffffffffffffffffffffffffff1673ffffffffffffffffffffffffffffffffffffffff16815260200190815260200160002060006101000a81548160ff02191690831515021790555050565b60008054906101000a900473ffffffffffffffffffffffffffffffffffffffff1673ffffffffffffffffffffffffffffffffffffffff163373ffffffffffffffffffffffffffffffffffffffff1614610f3e576040517f08c379a0000000000000000000000000000000000000000000000000000000008152600401610f359061442b565b60405180910390fd5b600081905060008173ffffffffffffffffffffffffffffffffffffffff166370a08231306040518263ffffffff1660e01b8152600401610f7e91906141c3565b60206040518083038186803b158015610f9657600080fd5b505afa158015610faa573d6000803e3d6000fd5b505050506040513d601f19601f82011682018060405250810190610fce9190614249565b905061101b60008054906101000a900473ffffffffffffffffffffffffffffffffffffffff16828473ffffffffffffffffffffffffffffffffffffffff16612ee59092919063ffffffff16565b505050565b60008054906101000a900473ffffffffffffffffffffffffffffffffffffffff1673ffffffffffffffffffffffffffffffffffffffff163373ffffffffffffffffffffffffffffffffffffffff16146110ae576040517f08c379a00000000000000000000000000000000000000000000000000000000081526004016110a59061442b565b60405180910390fd5b8060038190555050565b60008054906101000a900473ffffffffffffffffffffffffffffffffffffffff1673ffffffffffffffffffffffffffffffffffffffff163373ffffffffffffffffffffffffffffffffffffffff1614611146576040517f08c379a000000000000000000000000000000000000000000000000000000000815260040161113d9061442b565b60405180910390fd5b806000806101000a81548173ffffffffffffffffffffffffffffffffffffffff021916908373ffffffffffffffffffffffffffffffffffffffff16021790555050565b600080600083604001519050600061123a8560800151866000015173ffffffffffffffffffffffffffffffffffffffff1663fc57d4df856040518263ffffffff1660e01b81526004016111dc91906144aa565b60206040518083038186803b1580156111f457600080fd5b505afa158015611208573d6000803e3d6000fd5b505050506040513d601f19601f8201168201806040525081019061122c9190614249565b612dd690919063ffffffff16565b905060006112e58660600151876000015173ffffffffffffffffffffffffffffffffffffffff1663fc57d4df89602001516040518263ffffffff1660e01b815260040161128791906144aa565b60206040518083038186803b15801561129f57600080fd5b505afa1580156112b3573d6000803e3d6000fd5b505050506040513d601f19601f820116820180604052508101906112d79190614249565b612dd690919063ffffffff16565b9050611325611316620f42406113088960e0015185612dd690919063ffffffff16565b612e5190919063ffffffff16565b82612f6b90919063ffffffff16565b821015611367576040517f08c379a000000000000000000000000000000000000000000000000000000000815260040161135e90614511565b60405180910390fd5b6000866080015190506113d6836113c889608001516113ba6113ab620f424061139d8e60e001518a612dd690919063ffffffff16565b612e5190919063ffffffff16565b87612f6b90919063ffffffff16565b612dd690919063ffffffff16565b612e5190919063ffffffff16565b8760800181815250506114a38473ffffffffffffffffffffffffffffffffffffffff1663bd6d894d6040518163ffffffff1660e01b8152600401602060405180830381600087803b15801561142a57600080fd5b505af115801561143e573d6000803e3d6000fd5b505050506040513d601f19601f820116820180604052508101906114629190614249565b6114958960c00151600a6114769190613ed4565b600a6114829190614664565b8a60800151612dd690919063ffffffff16565b612e5190919063ffffffff16565b8760a00181815250508660a001518473ffffffffffffffffffffffffffffffffffffffff1663dd62ed3e33306040518363ffffffff1660e01b81526004016114ec9291906146af565b60206040518083038186803b15801561150457600080fd5b505afa158015611518573d6000803e3d6000fd5b505050506040513d601f19601f8201168201806040525081019061153c9190614249565b101561157d576040517f08c379a000000000000000000000000000000000000000000000000000000000815260040161157490614724565b60405180910390fd5b86608001518760a001519550955050505050915091565b6000600560003373ffffffffffffffffffffffffffffffffffffffff1673ffffffffffffffffffffffffffffffffffffffff16815260200190815260200160002060009054906101000a900460ff16611622576040517f08c379a000000000000000000000000000000000000000000000000000000000815260040161161990614790565b60405180910390fd5b60008060008060008060008061164660006101008c6103cd9092919063ffffffff16565b80602001905181019061165991906147b0565b975097509750975097509750975097508773ffffffffffffffffffffffffffffffffffffffff163273ffffffffffffffffffffffffffffffffffffffff16146116d7576040517f08c379a00000000000000000000000000000000000000000000000000000000081526004016116ce90614179565b60405180910390fd5b600061171a8d6000815181106116f0576116ef614866565b5b602002602001015161170c600287612dd690919063ffffffff16565b612f6b90919063ffffffff16565b90508773ffffffffffffffffffffffffffffffffffffffff1663095ea7b333836040518363ffffffff1660e01b81526004016117579291906141de565b602060405180830381600087803b15801561177157600080fd5b505af1158015611785573d6000803e3d6000fd5b505050506040513d601f19601f820116820180604052508101906117a9919061421c565b50600260009054906101000a900473ffffffffffffffffffffffffffffffffffffffff1673ffffffffffffffffffffffffffffffffffffffff168873ffffffffffffffffffffffffffffffffffffffff1614156118fe57600260009054906101000a900473ffffffffffffffffffffffffffffffffffffffff1673ffffffffffffffffffffffffffffffffffffffff16632e1a7d4d856040518263ffffffff1660e01b815260040161185b9190614199565b600060405180830381600087803b15801561187557600080fd5b505af1158015611889573d6000803e3d6000fd5b505050508573ffffffffffffffffffffffffffffffffffffffff1663e5974619858b6040518363ffffffff1660e01b81526004016118c791906141c3565b6000604051808303818588803b1580156118e057600080fd5b505af11580156118f4573d6000803e3d6000fd5b5050505050611a1b565b8773ffffffffffffffffffffffffffffffffffffffff1663095ea7b387866040518363ffffffff1660e01b81526004016119399291906141de565b602060405180830381600087803b15801561195357600080fd5b505af1158015611967573d6000803e3d6000fd5b505050506040513d601f19601f8201168201806040525081019061198b919061421c565b508573ffffffffffffffffffffffffffffffffffffffff16632608f8188a866040518363ffffffff1660e01b81526004016119c79291906141de565b602060405180830381600087803b1580156119e157600080fd5b505af11580156119f5573d6000803e3d6000fd5b505050506040513d601f19601f82011682018060405250810190611a199190614249565b505b8473ffffffffffffffffffffffffffffffffffffffff166323b872dd8a30856040518463ffffffff1660e01b8152600401611a5893929190614276565b602060405180830381600087803b158015611a7257600080fd5b505af1158015611a86573d6000803e3d6000fd5b505050506040513d601f19601f82011682018060405250810190611aaa919061421c565b508473ffffffffffffffffffffffffffffffffffffffff1663db006a758673ffffffffffffffffffffffffffffffffffffffff166370a08231306040518263ffffffff1660e01b8152600401611b0091906141c3565b60206040518083038186803b158015611b1857600080fd5b505afa158015611b2c573d6000803e3d6000fd5b505050506040513d601f19601f82011682018060405250810190611b509190614249565b6040518263ffffffff1660e01b8152600401611b6c9190614199565b602060405180830381600087803b158015611b8657600080fd5b505af1158015611b9a573d6000803e3d6000fd5b505050506040513d601f19601f82011682018060405250810190611bbe9190614249565b50600260009054906101000a900473ffffffffffffffffffffffffffffffffffffffff1673ffffffffffffffffffffffffffffffffffffffff168773ffffffffffffffffffffffffffffffffffffffff161415611c9957600260009054906101000a900473ffffffffffffffffffffffffffffffffffffffff1673ffffffffffffffffffffffffffffffffffffffff1663d0e30db0476040518263ffffffff1660e01b81526004016000604051808303818588803b158015611c7f57600080fd5b505af1158015611c93573d6000803e3d6000fd5b50505050505b6101008b511115611e4557611cc7610100808d51611cb791906133b0565b8d6103cd9092919063ffffffff16565b9a50611d05611cf6620f4240611ce860035487612dd690919063ffffffff16565b612e5190919063ffffffff16565b84612e9b90919063ffffffff16565b9250611d54600460009054906101000a900473ffffffffffffffffffffffffffffffffffffffff16848973ffffffffffffffffffffffffffffffffffffffff16612ee59092919063ffffffff16565b6000819050600460009054906101000a900473ffffffffffffffffffffffffffffffffffffffff1673ffffffffffffffffffffffffffffffffffffffff16636df0e4a8858e8c6040518463ffffffff1660e01b8152600401611db893929190614335565b602060405180830381600087803b158015611dd257600080fd5b505af1925050508015611e0357506040513d601f19601f82011682018060405250810190611e009190614249565b60015b611e42576040517f08c379a0000000000000000000000000000000000000000000000000000000008152600401611e39906143bf565b60405180910390fd5b50505b6001995050505050505050505095945050505050565b60008054906101000a900473ffffffffffffffffffffffffffffffffffffffff1673ffffffffffffffffffffffffffffffffffffffff163373ffffffffffffffffffffffffffffffffffffffff1614611ee9576040517f08c379a0000000000000000000000000000000000000000000000000000000008152600401611ee09061442b565b60405180910390fd5b80600460006101000a81548173ffffffffffffffffffffffffffffffffffffffff021916908373ffffffffffffffffffffffffffffffffffffffff16021790555050565b60008054906101000a900473ffffffffffffffffffffffffffffffffffffffff1673ffffffffffffffffffffffffffffffffffffffff163373ffffffffffffffffffffffffffffffffffffffff1614611fbb576040517f08c379a0000000000000000000000000000000000000000000000000000000008152600401611fb29061442b565b60405180910390fd5b6001600560008373ffffffffffffffffffffffffffffffffffffffff1673ffffffffffffffffffffffffffffffffffffffff16815260200190815260200160002060006101000a81548160ff02191690831515021790555050565b6120bd604051806101000160405280836020015173ffffffffffffffffffffffffffffffffffffffff168152602001836040015173ffffffffffffffffffffffffffffffffffffffff168152602001836060015173ffffffffffffffffffffffffffffffffffffffff1681526020018360c0015181526020018360e00151815260200183610100015181526020018361012001518152602001836101400151815250611189565b8260e0018361010001828152508281525050506000600167ffffffffffffffff8111156120ed576120ec613507565b5b60405190808252806020026020018201604052801561211b5781602001602082028036833780820191505090505b5090506000600167ffffffffffffffff81111561213b5761213a613507565b5b6040519080825280602002602001820160405280156121695781602001602082028036833780820191505090505b5090506000600167ffffffffffffffff81111561218957612188613507565b5b6040519080825280602002602001820160405280156121b75781602001602082028036833780820191505090505b5090506000836000815181106121d0576121cf614866565b5b6020026020010181815250508360800151826000815181106121f5576121f4614866565b5b602002602001019073ffffffffffffffffffffffffffffffffffffffff16908173ffffffffffffffffffffffffffffffffffffffff16815250508360c001518160008151811061224857612247614866565b5b60200260200101818152505060003385608001518660a00151876040015188606001518960c001518a60e001518b6101000151604051602001612292989796959493929190614895565b60405160208183030381529060405290506122bb85610180015182612fc990919063ffffffff16565b905060008560800151905060008660a00151905060008273ffffffffffffffffffffffffffffffffffffffff166370a08231306040518263ffffffff1660e01b815260040161230a91906141c3565b60206040518083038186803b15801561232257600080fd5b505afa158015612336573d6000803e3d6000fd5b505050506040513d601f19601f8201168201806040525081019061235a9190614249565b9050876000015173ffffffffffffffffffffffffffffffffffffffff1663ab9c4b5d3088888b308a60006040518863ffffffff1660e01b81526004016123a69796959493929190614aac565b600060405180830381600087803b1580156123c057600080fd5b505af11580156123d4573d6000803e3d6000fd5b5050505060008373ffffffffffffffffffffffffffffffffffffffff166370a08231306040518263ffffffff1660e01b815260040161241391906141c3565b60206040518083038186803b15801561242b57600080fd5b505afa15801561243f573d6000803e3d6000fd5b505050506040513d601f19601f820116820180604052508101906124639190614249565b90508860a0015173ffffffffffffffffffffffffffffffffffffffff16896080015173ffffffffffffffffffffffffffffffffffffffff1614156125245760006124f16124e26124d3620f42406124c560035488612dd690919063ffffffff16565b612e5190919063ffffffff16565b85612f6b90919063ffffffff16565b83612e9b90919063ffffffff16565b905061251e33828773ffffffffffffffffffffffffffffffffffffffff16612ee59092919063ffffffff16565b50612562565b6125613361253b8484612e9b90919063ffffffff16565b8673ffffffffffffffffffffffffffffffffffffffff16612ee59092919063ffffffff16565b5b612637600160009054906101000a900473ffffffffffffffffffffffffffffffffffffffff168473ffffffffffffffffffffffffffffffffffffffff166370a08231306040518263ffffffff1660e01b81526004016125c191906141c3565b60206040518083038186803b1580156125d957600080fd5b505afa1580156125ed573d6000803e3d6000fd5b505050506040513d601f19601f820116820180604052508101906126119190614249565b8573ffffffffffffffffffffffffffffffffffffffff16612ee59092919063ffffffff16565b7fd58706648644be277f6999c826f65f98128c29c6846a892b929a304a7f19e3eb338a608001518b60a001518c60c001518d60e0015160405161267e959493929190614b37565b60405180910390a1505050505050505050565b61273a604051806101000160405280836060015173ffffffffffffffffffffffffffffffffffffffff168152602001836080015173ffffffffffffffffffffffffffffffffffffffff1681526020018360a0015173ffffffffffffffffffffffffffffffffffffffff1681526020018361010001518152602001836101200151815260200183610140015181526020018361016001518152602001836101800151815250611189565b8261012001836101400182815250828152505050600080826000015173ffffffffffffffffffffffffffffffffffffffff16630902f1ac6040518163ffffffff1660e01b815260040160606040518083038186803b15801561279b57600080fd5b505afa1580156127af573d6000803e3d6000fd5b505050506040513d601f19601f820116820180604052508101906127d39190614c0c565b506dffffffffffffffffffffffffffff1691506dffffffffffffffffffffffffffff169150600061282a84610100015185602001516128125784612814565b835b86602001516128235784612825565b855b613053565b9050836040015173ffffffffffffffffffffffffffffffffffffffff168460c0015173ffffffffffffffffffffffffffffffffffffffff1614156128965761289381856020015161287b578361287d565b845b866020015161288c578561288e565b845b613053565b90505b6000338560c001518660e0015187608001518860a0015189604001518a61010001518b61012001518c61014001518a6040516020016128de9a99989796959493929190614c5f565b6040516020818303038152906040529050612907856101c0015182612fc990919063ffffffff16565b905060008560c00151905060008660e00151905060008273ffffffffffffffffffffffffffffffffffffffff166370a08231306040518263ffffffff1660e01b815260040161295691906141c3565b60206040518083038186803b15801561296e57600080fd5b505afa158015612982573d6000803e3d6000fd5b505050506040513d601f19601f820116820180604052508101906129a69190614249565b9050876000015173ffffffffffffffffffffffffffffffffffffffff1663022c0d9f89602001516129d85760006129df565b8961010001515b8a602001516129f3578a61010001516129f6565b60005b30886040518563ffffffff1660e01b8152600401612a179493929190614cfb565b600060405180830381600087803b158015612a3157600080fd5b505af1158015612a45573d6000803e3d6000fd5b5050505060008373ffffffffffffffffffffffffffffffffffffffff166370a08231306040518263ffffffff1660e01b8152600401612a8491906141c3565b60206040518083038186803b158015612a9c57600080fd5b505afa158015612ab0573d6000803e3d6000fd5b505050506040513d601f19601f82011682018060405250810190612ad49190614249565b90508860e0015173ffffffffffffffffffffffffffffffffffffffff168960c0015173ffffffffffffffffffffffffffffffffffffffff161415612b95576000612b62612b53612b44620f4240612b3660035488612dd690919063ffffffff16565b612e5190919063ffffffff16565b85612f6b90919063ffffffff16565b83612e9b90919063ffffffff16565b9050612b8f33828773ffffffffffffffffffffffffffffffffffffffff16612ee59092919063ffffffff16565b50612bd3565b612bd233612bac8484612e9b90919063ffffffff16565b8673ffffffffffffffffffffffffffffffffffffffff16612ee59092919063ffffffff16565b5b612ca8600160009054906101000a900473ffffffffffffffffffffffffffffffffffffffff168473ffffffffffffffffffffffffffffffffffffffff166370a08231306040518263ffffffff1660e01b8152600401612c3291906141c3565b60206040518083038186803b158015612c4a57600080fd5b505afa158015612c5e573d6000803e3d6000fd5b505050506040513d601f19601f82011682018060405250810190612c829190614249565b8573ffffffffffffffffffffffffffffffffffffffff16612ee59092919063ffffffff16565b7fd58706648644be277f6999c826f65f98128c29c6846a892b929a304a7f19e3eb338a60c001518b60e001518c61010001518d6101200151604051612cf1959493929190614b37565b60405180910390a1505050505050505050565b60008054906101000a900473ffffffffffffffffffffffffffffffffffffffff1673ffffffffffffffffffffffffffffffffffffffff163373ffffffffffffffffffffffffffffffffffffffff1614612d92576040517f08c379a0000000000000000000000000000000000000000000000000000000008152600401612d899061442b565b60405180910390fd5b80600160006101000a81548173ffffffffffffffffffffffffffffffffffffffff021916908373ffffffffffffffffffffffffffffffffffffffff16021790555050565b600080831415612de95760009050612e4b565b60008284612df79190614d47565b9050828482612e069190614dd0565b14612e46576040517f08c379a0000000000000000000000000000000000000000000000000000000008152600401612e3d90614e73565b60405180910390fd5b809150505b92915050565b6000612e9383836040518060400160405280601a81526020017f536166654d6174683a206469766973696f6e206279207a65726f000000000000815250613074565b905092915050565b6000612edd83836040518060400160405280601e81526020017f536166654d6174683a207375627472616374696f6e206f766572666c6f7700008152506130d7565b905092915050565b612f668363a9059cbb60e01b8484604051602401612f049291906141de565b604051602081830303815290604052907bffffffffffffffffffffffffffffffffffffffffffffffffffffffff19166020820180517bffffffffffffffffffffffffffffffffffffffffffffffffffffffff838183161783525050505061313b565b505050565b6000808284612f7a9190613ed4565b905083811015612fbf576040517f08c379a0000000000000000000000000000000000000000000000000000000008152600401612fb690614edf565b60405180910390fd5b8091505092915050565b6060806040519050835180825260208201818101602087015b81831015612fff5780518352602083019250602081019050612fe2565b50855192508351830184528091508282019050602086015b818310156130345780518352602083019250602081019050613017565b50601f19601f8851850115830101166040525050508091505092915050565b60006103e8848402026103e585840302600181830401925050509392505050565b600080831182906130bb576040517f08c379a00000000000000000000000000000000000000000000000000000000081526004016130b29190614f43565b60405180910390fd5b50600083856130ca9190614dd0565b9050809150509392505050565b600083831115829061311f576040517f08c379a00000000000000000000000000000000000000000000000000000000081526004016131169190614f43565b60405180910390fd5b506000838561312e91906133b0565b9050809150509392505050565b61315a8273ffffffffffffffffffffffffffffffffffffffff166132ac565b613199576040517f08c379a000000000000000000000000000000000000000000000000000000000815260040161319090614fb1565b60405180910390fd5b6000808373ffffffffffffffffffffffffffffffffffffffff16836040516131c1919061500d565b6000604051808303816000865af19150503d80600081146131fe576040519150601f19603f3d011682016040523d82523d6000602084013e613203565b606091505b509150915081613248576040517f08c379a000000000000000000000000000000000000000000000000000000000815260040161323f90615070565b60405180910390fd5b6000815111156132a65780806020019051810190613266919061421c565b6132a5576040517f08c379a000000000000000000000000000000000000000000000000000000000815260040161329c90615102565b60405180910390fd5b5b50505050565b60008060007fc5d2460186f7233c927e7db2dcc703c0e500b653ca82273b7bfad8045d85a47060001b9050833f91508082141580156132ee57506000801b8214155b92505050919050565b6000604051905090565b600080fd5b600080fd5b6000819050919050565b61331e8161330b565b811461332957600080fd5b50565b60008151905061333b81613315565b92915050565b6000806040838503121561335857613357613301565b5b60006133668582860161332c565b92505060206133778582860161332c565b9150509250929050565b7f4e487b7100000000000000000000000000000000000000000000000000000000600052601160045260246000fd5b60006133bb8261330b565b91506133c68361330b565b9250828210156133d9576133d8613381565b5b828203905092915050565b600073ffffffffffffffffffffffffffffffffffffffff82169050919050565b600061340f826133e4565b9050919050565b61341f81613404565b811461342a57600080fd5b50565b60008135905061343c81613416565b92915050565b6000806040838503121561345957613458613301565b5b60006134678582860161342d565b92505060206134788582860161342d565b9150509250929050565b60006020828403121561349857613497613301565b5b60006134a68482850161342d565b91505092915050565b6000813590506134be81613315565b92915050565b6000602082840312156134da576134d9613301565b5b60006134e8848285016134af565b91505092915050565b600080fd5b6000601f19601f8301169050919050565b7f4e487b7100000000000000000000000000000000000000000000000000000000600052604160045260246000fd5b61353f826134f6565b810181811067ffffffffffffffff8211171561355e5761355d613507565b5b80604052505050565b60006135716132f7565b905061357d8282613536565b919050565b600080fd5b600061359282613404565b9050919050565b6135a281613587565b81146135ad57600080fd5b50565b6000813590506135bf81613599565b92915050565b600061010082840312156135dc576135db6134f1565b5b6135e7610100613567565b905060006135f7848285016135b0565b600083015250602061360b8482850161342d565b602083015250604061361f8482850161342d565b6040830152506060613633848285016134af565b6060830152506080613647848285016134af565b60808301525060a061365b848285016134af565b60a08301525060c061366f848285016134af565b60c08301525060e0613683848285016134af565b60e08301525092915050565b600061010082840312156136a6576136a5613301565b5b60006136b4848285016135c5565b91505092915050565b6136c68161330b565b82525050565b60006040820190506136e160008301856136bd565b6136ee60208301846136bd565b9392505050565b600080fd5b600067ffffffffffffffff82111561371557613714613507565b5b602082029050602081019050919050565b600080fd5b600061373e613739846136fa565b613567565b9050808382526020820190506020840283018581111561376157613760613726565b5b835b8181101561378a5780613776888261342d565b845260208401935050602081019050613763565b5050509392505050565b600082601f8301126137a9576137a86136f5565b5b81356137b984826020860161372b565b91505092915050565b600067ffffffffffffffff8211156137dd576137dc613507565b5b602082029050602081019050919050565b60006138016137fc846137c2565b613567565b9050808382526020820190506020840283018581111561382457613823613726565b5b835b8181101561384d578061383988826134af565b845260208401935050602081019050613826565b5050509392505050565b600082601f83011261386c5761386b6136f5565b5b813561387c8482602086016137ee565b91505092915050565b600080fd5b600067ffffffffffffffff8211156138a5576138a4613507565b5b6138ae826134f6565b9050602081019050919050565b82818337600083830152505050565b60006138dd6138d88461388a565b613567565b9050828152602081018484840111156138f9576138f8613885565b5b6139048482856138bb565b509392505050565b600082601f830112613921576139206136f5565b5b81356139318482602086016138ca565b91505092915050565b600080600080600060a0868803121561395657613955613301565b5b600086013567ffffffffffffffff81111561397457613973613306565b5b61398088828901613794565b955050602086013567ffffffffffffffff8111156139a1576139a0613306565b5b6139ad88828901613857565b945050604086013567ffffffffffffffff8111156139ce576139cd613306565b5b6139da88828901613857565b93505060606139eb8882890161342d565b925050608086013567ffffffffffffffff811115613a0c57613a0b613306565b5b613a188882890161390c565b9150509295509295909350565b60008115159050919050565b613a3a81613a25565b82525050565b6000602082019050613a556000830184613a31565b92915050565b6000613a66826133e4565b9050919050565b613a7681613a5b565b8114613a8157600080fd5b50565b600081359050613a9381613a6d565b92915050565b600060208284031215613aaf57613aae613301565b5b6000613abd84828501613a84565b91505092915050565b6000613ad182613404565b9050919050565b613ae181613ac6565b8114613aec57600080fd5b50565b600081359050613afe81613ad8565b92915050565b60006101a08284031215613b1b57613b1a6134f1565b5b613b266101a0613567565b90506000613b3684828501613aef565b6000830152506020613b4a848285016135b0565b6020830152506040613b5e8482850161342d565b6040830152506060613b728482850161342d565b6060830152506080613b868482850161342d565b60808301525060a0613b9a8482850161342d565b60a08301525060c0613bae848285016134af565b60c08301525060e0613bc2848285016134af565b60e083015250610100613bd7848285016134af565b61010083015250610120613bed848285016134af565b61012083015250610140613c03848285016134af565b61014083015250610160613c19848285016134af565b6101608301525061018082013567ffffffffffffffff811115613c3f57613c3e613582565b5b613c4b8482850161390c565b6101808301525092915050565b600060208284031215613c6e57613c6d613301565b5b600082013567ffffffffffffffff811115613c8c57613c8b613306565b5b613c9884828501613b04565b91505092915050565b6000613cac82613404565b9050919050565b613cbc81613ca1565b8114613cc757600080fd5b50565b600081359050613cd981613cb3565b92915050565b613ce881613a25565b8114613cf357600080fd5b50565b600081359050613d0581613cdf565b92915050565b60006101e08284031215613d2257613d216134f1565b5b613d2d6101e0613567565b90506000613d3d84828501613cca565b6000830152506020613d5184828501613cf6565b6020830152506040613d658482850161342d565b6040830152506060613d79848285016135b0565b6060830152506080613d8d8482850161342d565b60808301525060a0613da18482850161342d565b60a08301525060c0613db58482850161342d565b60c08301525060e0613dc98482850161342d565b60e083015250610100613dde848285016134af565b61010083015250610120613df4848285016134af565b61012083015250610140613e0a848285016134af565b61014083015250610160613e20848285016134af565b61016083015250610180613e36848285016134af565b610180830152506101a0613e4c848285016134af565b6101a0830152506101c082013567ffffffffffffffff811115613e7257613e71613582565b5b613e7e8482850161390c565b6101c08301525092915050565b600060208284031215613ea157613ea0613301565b5b600082013567ffffffffffffffff811115613ebf57613ebe613306565b5b613ecb84828501613d0b565b91505092915050565b6000613edf8261330b565b9150613eea8361330b565b9250827fffffffffffffffffffffffffffffffffffffffffffffffffffffffffffffffff03821115613f1f57613f1e613381565b5b828201905092915050565b600082825260208201905092915050565b7f736c6963655f6f766572666c6f77000000000000000000000000000000000000600082015250565b6000613f71600e83613f2a565b9150613f7c82613f3b565b602082019050919050565b60006020820190508181036000830152613fa081613f64565b9050919050565b7f736c6963655f6f75744f66426f756e6473000000000000000000000000000000600082015250565b6000613fdd601183613f2a565b9150613fe882613fa7565b602082019050919050565b6000602082019050818103600083015261400c81613fd0565b9050919050565b60008151905061402281613a6d565b92915050565b6000806000806000806000806000806101408b8d03121561404c5761404b613301565b5b600061405a8d828e01614013565b9a5050602061406b8d828e01614013565b995050604061407c8d828e01614013565b985050606061408d8d828e01614013565b975050608061409e8d828e01614013565b96505060a06140af8d828e01614013565b95505060c06140c08d828e0161332c565b94505060e06140d18d828e0161332c565b9350506101006140e38d828e0161332c565b9250506101206140f58d828e0161332c565b9150509295989b9194979a5092959850565b7f4c69717569646174696f6e2063616e206f6e6c7920626520706572666f726d6560008201527f6420627920757365720000000000000000000000000000000000000000000000602082015250565b6000614163602983613f2a565b915061416e82614107565b604082019050919050565b6000602082019050818103600083015261419281614156565b9050919050565b60006020820190506141ae60008301846136bd565b92915050565b6141bd81613404565b82525050565b60006020820190506141d860008301846141b4565b92915050565b60006040820190506141f360008301856141b4565b61420060208301846136bd565b9392505050565b60008151905061421681613cdf565b92915050565b60006020828403121561423257614231613301565b5b600061424084828501614207565b91505092915050565b60006020828403121561425f5761425e613301565b5b600061426d8482850161332c565b91505092915050565b600060608201905061428b60008301866141b4565b61429860208301856141b4565b6142a560408301846136bd565b949350505050565b600081519050919050565b600082825260208201905092915050565b60005b838110156142e75780820151818401526020810190506142cc565b838111156142f6576000848401525b50505050565b6000614307826142ad565b61431181856142b8565b93506143218185602086016142c9565b61432a816134f6565b840191505092915050565b600060608201905061434a60008301866136bd565b818103602083015261435c81856142fc565b905061436b60408301846141b4565b949350505050565b7f73776170206661696c6564000000000000000000000000000000000000000000600082015250565b60006143a9600b83613f2a565b91506143b482614373565b602082019050919050565b600060208201905081810360008301526143d88161439c565b9050919050565b7f6e6f742061646d696e0000000000000000000000000000000000000000000000600082015250565b6000614415600983613f2a565b9150614420826143df565b602082019050919050565b6000602082019050818103600083015261444481614408565b9050919050565b6000819050919050565b600061447061446b614466846133e4565b61444b565b6133e4565b9050919050565b600061448282614455565b9050919050565b600061449482614477565b9050919050565b6144a481614489565b82525050565b60006020820190506144bf600083018461449b565b92915050565b7f436f6c6c61746572616c2076616c756520746f6f206c6f770000000000000000600082015250565b60006144fb601883613f2a565b9150614506826144c5565b602082019050919050565b6000602082019050818103600083015261452a816144ee565b9050919050565b60008160011c9050919050565b6000808291508390505b60018511156145885780860481111561456457614563613381565b5b60018516156145735780820291505b808102905061458185614531565b9450614548565b94509492505050565b6000826145a1576001905061465d565b816145af576000905061465d565b81600181146145c557600281146145cf576145fe565b600191505061465d565b60ff8411156145e1576145e0613381565b5b8360020a9150848211156145f8576145f7613381565b5b5061465d565b5060208310610133831016604e8410600b84101617156146335782820a90508381111561462e5761462d613381565b5b61465d565b614640848484600161453e565b9250905081840481111561465757614656613381565b5b81810290505b9392505050565b600061466f8261330b565b915061467a8361330b565b92506146a77fffffffffffffffffffffffffffffffffffffffffffffffffffffffffffffffff8484614591565b905092915050565b60006040820190506146c460008301856141b4565b6146d160208301846141b4565b9392505050565b7f4e6f20416c6c6f77616e63650000000000000000000000000000000000000000600082015250565b600061470e600c83613f2a565b9150614719826146d8565b602082019050919050565b6000602082019050818103600083015261473d81614701565b9050919050565b7f6c656e64696e6720706f6f6c206e6f7420617070726f76656400000000000000600082015250565b600061477a601983613f2a565b915061478582614744565b602082019050919050565b600060208201905081810360008301526147a98161476d565b9050919050565b600080600080600080600080610100898b0312156147d1576147d0613301565b5b60006147df8b828c01614013565b98505060206147f08b828c01614013565b97505060406148018b828c01614013565b96505060606148128b828c01614013565b95505060806148238b828c01614013565b94505060a06148348b828c0161332c565b93505060c06148458b828c0161332c565b92505060e06148568b828c0161332c565b9150509295985092959890939650565b7f4e487b7100000000000000000000000000000000000000000000000000000000600052603260045260246000fd5b6000610100820190506148ab600083018b6141b4565b6148b8602083018a6141b4565b6148c560408301896141b4565b6148d260608301886141b4565b6148df60808301876141b4565b6148ec60a08301866136bd565b6148f960c08301856136bd565b61490660e08301846136bd565b9998505050505050505050565b600081519050919050565b600082825260208201905092915050565b6000819050602082019050919050565b61494881613404565b82525050565b600061495a838361493f565b60208301905092915050565b6000602082019050919050565b600061497e82614913565b614988818561491e565b93506149938361492f565b8060005b838110156149c45781516149ab888261494e565b97506149b683614966565b925050600181019050614997565b5085935050505092915050565b600081519050919050565b600082825260208201905092915050565b6000819050602082019050919050565b614a068161330b565b82525050565b6000614a1883836149fd565b60208301905092915050565b6000602082019050919050565b6000614a3c826149d1565b614a4681856149dc565b9350614a51836149ed565b8060005b83811015614a82578151614a698882614a0c565b9750614a7483614a24565b925050600181019050614a55565b5085935050505092915050565b600061ffff82169050919050565b614aa681614a8f565b82525050565b600060e082019050614ac1600083018a6141b4565b8181036020830152614ad38189614973565b90508181036040830152614ae78188614a31565b90508181036060830152614afb8187614a31565b9050614b0a60808301866141b4565b81810360a0830152614b1c81856142fc565b9050614b2b60c0830184614a9d565b98975050505050505050565b600060a082019050614b4c60008301886141b4565b614b5960208301876141b4565b614b6660408301866141b4565b614b7360608301856136bd565b614b8060808301846136bd565b9695505050505050565b60006dffffffffffffffffffffffffffff82169050919050565b614bad81614b8a565b8114614bb857600080fd5b50565b600081519050614bca81614ba4565b92915050565b600063ffffffff82169050919050565b614be981614bd0565b8114614bf457600080fd5b50565b600081519050614c0681614be0565b92915050565b600080600060608486031215614c2557614c24613301565b5b6000614c3386828701614bbb565b9350506020614c4486828701614bbb565b9250506040614c5586828701614bf7565b9150509250925092565b600061014082019050614c75600083018d6141b4565b614c82602083018c6141b4565b614c8f604083018b6141b4565b614c9c606083018a6141b4565b614ca960808301896141b4565b614cb660a08301886141b4565b614cc360c08301876136bd565b614cd060e08301866136bd565b614cde6101008301856136bd565b614cec6101208301846136bd565b9b9a5050505050505050505050565b6000608082019050614d1060008301876136bd565b614d1d60208301866136bd565b614d2a60408301856141b4565b8181036060830152614d3c81846142fc565b905095945050505050565b6000614d528261330b565b9150614d5d8361330b565b9250817fffffffffffffffffffffffffffffffffffffffffffffffffffffffffffffffff0483118215151615614d9657614d95613381565b5b828202905092915050565b7f4e487b7100000000000000000000000000000000000000000000000000000000600052601260045260246000fd5b6000614ddb8261330b565b9150614de68361330b565b925082614df657614df5614da1565b5b828204905092915050565b7f536166654d6174683a206d756c7469706c69636174696f6e206f766572666c6f60008201527f7700000000000000000000000000000000000000000000000000000000000000602082015250565b6000614e5d602183613f2a565b9150614e6882614e01565b604082019050919050565b60006020820190508181036000830152614e8c81614e50565b9050919050565b7f536166654d6174683a206164646974696f6e206f766572666c6f770000000000600082015250565b6000614ec9601b83613f2a565b9150614ed482614e93565b602082019050919050565b60006020820190508181036000830152614ef881614ebc565b9050919050565b600081519050919050565b6000614f1582614eff565b614f1f8185613f2a565b9350614f2f8185602086016142c9565b614f38816134f6565b840191505092915050565b60006020820190508181036000830152614f5d8184614f0a565b905092915050565b7f5361666545524332303a2063616c6c20746f206e6f6e2d636f6e747261637400600082015250565b6000614f9b601f83613f2a565b9150614fa682614f65565b602082019050919050565b60006020820190508181036000830152614fca81614f8e565b9050919050565b600081905092915050565b6000614fe7826142ad565b614ff18185614fd1565b93506150018185602086016142c9565b80840191505092915050565b60006150198284614fdc565b915081905092915050565b7f5361666545524332303a206c6f772d6c6576656c2063616c6c206661696c6564600082015250565b600061505a602083613f2a565b915061506582615024565b602082019050919050565b600060208201905081810360008301526150898161504d565b9050919050565b7f5361666545524332303a204552433230206f7065726174696f6e20646964206e60008201527f6f74207375636365656400000000000000000000000000000000000000000000602082015250565b60006150ec602a83613f2a565b91506150f782615090565b604082019050919050565b6000602082019050818103600083015261511b816150df565b905091905056fea264697066735822122087645e4a81f93189d532d3d1e55be66d37a093d34826891a092e0ffc79b01cb364736f6c63430008090033",
  "linkReferences": {},
  "deployedLinkReferences": {}
}