{
  "_format": "hh-sol-artifact-1",
  "contractName": "StarlayLiquidator",
  "sourceName": "contracts/StarlayLiquidator.sol",
  "abi": [
    {
      "inputs": [
        {
          "internalType": "address",
          "name": "_admin",
          "type": "address"
        },
        {
          "internalType": "address",
          "name": "_treasury",
          "type": "address"
        },
        {
          "internalType": "address payable",
          "name": "_swapper",
          "type": "address"
        },
        {
          "internalType": "address[]",
          "name": "_approvedLendingPools",
          "type": "address[]"
        }
      ],
      "stateMutability": "nonpayable",
      "type": "constructor"
    },
    {
      "anonymous": false,
      "inputs": [
        {
          "indexed": false,
          "internalType": "address",
          "name": "liquidator",
          "type": "address"
        },
        {
          "indexed": false,
          "internalType": "address",
          "name": "debt",
          "type": "address"
        },
        {
          "indexed": false,
          "internalType": "address",
          "name": "collateral",
          "type": "address"
        },
        {
          "indexed": false,
          "internalType": "uint256",
          "name": "debtAmount",
          "type": "uint256"
        },
        {
          "indexed": false,
          "internalType": "uint256",
          "name": "collateralAmount",
          "type": "uint256"
        }
      ],
      "name": "Liquidation",
      "type": "event"
    },
    {
      "inputs": [
        {
          "internalType": "address",
          "name": "pool",
          "type": "address"
        }
      ],
      "name": "approveLendingPool",
      "outputs": [],
      "stateMutability": "nonpayable",
      "type": "function"
    },
    {
      "inputs": [
        {
          "internalType": "address",
          "name": "pool",
          "type": "address"
        }
      ],
      "name": "disapproveLendingPool",
      "outputs": [],
      "stateMutability": "nonpayable",
      "type": "function"
    },
    {
      "inputs": [
        {
          "internalType": "address[]",
          "name": "assets",
          "type": "address[]"
        },
        {
          "internalType": "uint256[]",
          "name": "amounts",
          "type": "uint256[]"
        },
        {
          "internalType": "uint256[]",
          "name": "premiums",
          "type": "uint256[]"
        },
        {
          "internalType": "address",
          "name": "sender",
          "type": "address"
        },
        {
          "internalType": "bytes",
          "name": "data",
          "type": "bytes"
        }
      ],
      "name": "executeOperation",
      "outputs": [
        {
          "internalType": "bool",
          "name": "",
          "type": "bool"
        }
      ],
      "stateMutability": "nonpayable",
      "type": "function"
    },
    {
      "inputs": [
        {
          "internalType": "address",
          "name": "_token",
          "type": "address"
        }
      ],
      "name": "getCash",
      "outputs": [],
      "stateMutability": "nonpayable",
      "type": "function"
    },
    {
      "inputs": [
        {
          "internalType": "address",
          "name": "_token",
          "type": "address"
        },
        {
          "internalType": "address",
          "name": "to",
          "type": "address"
        }
      ],
      "name": "getCashSend",
      "outputs": [],
      "stateMutability": "nonpayable",
      "type": "function"
    },
    {
      "inputs": [
        {
          "components": [
            {
              "internalType": "contract ILendingPool",
              "name": "lendingPool",
              "type": "address"
            },
            {
              "internalType": "contract IPriceOracle",
              "name": "priceOracle",
              "type": "address"
            },
            {
              "internalType": "address",
              "name": "debt",
              "type": "address"
            },
            {
              "internalType": "address",
              "name": "collateral",
              "type": "address"
            },
            {
              "internalType": "address",
              "name": "aTokenCollateral",
              "type": "address"
            },
            {
              "internalType": "uint256",
              "name": "debtAmount",
              "type": "uint256"
            },
            {
              "internalType": "uint256",
              "name": "stableDebtAmount",
              "type": "uint256"
            },
            {
              "internalType": "uint256",
              "name": "variableDebtAmount",
              "type": "uint256"
            },
            {
              "internalType": "uint256",
              "name": "collateralAmount",
              "type": "uint256"
            },
            {
              "internalType": "uint256",
              "name": "debtDecimals",
              "type": "uint256"
            },
            {
              "internalType": "uint256",
              "name": "collateralDecimals",
              "type": "uint256"
            },
            {
              "internalType": "uint256",
              "name": "feePlusSlippage",
              "type": "uint256"
            },
            {
              "internalType": "uint256",
              "name": "minSwapOut",
              "type": "uint256"
            },
            {
              "internalType": "bytes",
              "name": "swapData",
              "type": "bytes"
            }
          ],
          "internalType": "struct AaveLiquidator.liquidateArgs",
          "name": "args",
          "type": "tuple"
        }
      ],
      "name": "liquidate",
      "outputs": [],
      "stateMutability": "nonpayable",
      "type": "function"
    },
    {
      "inputs": [
        {
          "internalType": "address",
          "name": "_admin",
          "type": "address"
        }
      ],
      "name": "setAdmin",
      "outputs": [],
      "stateMutability": "nonpayable",
      "type": "function"
    },
    {
      "inputs": [
        {
          "internalType": "uint256",
          "name": "_fee",
          "type": "uint256"
        }
      ],
      "name": "setFee",
      "outputs": [],
      "stateMutability": "nonpayable",
      "type": "function"
    },
    {
      "inputs": [
        {
          "internalType": "address payable",
          "name": "_swapper",
          "type": "address"
        }
      ],
      "name": "setSwapper",
      "outputs": [],
      "stateMutability": "nonpayable",
      "type": "function"
    },
    {
      "inputs": [
        {
          "internalType": "address",
          "name": "_treasury",
          "type": "address"
        }
      ],
      "name": "setTreasury",
      "outputs": [],
      "stateMutability": "nonpayable",
      "type": "function"
    },
    {
      "stateMutability": "payable",
      "type": "receive"
    }
  ],
  "bytecode": "0x60806040526127106002553480156200001757600080fd5b5060405162003f0938038062003f0983398181016040528101906200003d9190620003dd565b83838383836000806101000a81548173ffffffffffffffffffffffffffffffffffffffff021916908373ffffffffffffffffffffffffffffffffffffffff16021790555082600160006101000a81548173ffffffffffffffffffffffffffffffffffffffff021916908373ffffffffffffffffffffffffffffffffffffffff16021790555081600360006101000a81548173ffffffffffffffffffffffffffffffffffffffff021916908373ffffffffffffffffffffffffffffffffffffffff16021790555060005b81518110156200019b576001600460008484815181106200012c576200012b6200046e565b5b602002602001015173ffffffffffffffffffffffffffffffffffffffff1673ffffffffffffffffffffffffffffffffffffffff16815260200190815260200160002060006101000a81548160ff02191690831515021790555080806200019290620004d6565b91505062000106565b50505050505050505062000524565b6000604051905090565b600080fd5b600080fd5b600073ffffffffffffffffffffffffffffffffffffffff82169050919050565b6000620001eb82620001be565b9050919050565b620001fd81620001de565b81146200020957600080fd5b50565b6000815190506200021d81620001f2565b92915050565b60006200023082620001be565b9050919050565b620002428162000223565b81146200024e57600080fd5b50565b600081519050620002628162000237565b92915050565b600080fd5b6000601f19601f8301169050919050565b7f4e487b7100000000000000000000000000000000000000000000000000000000600052604160045260246000fd5b620002b8826200026d565b810181811067ffffffffffffffff82111715620002da57620002d96200027e565b5b80604052505050565b6000620002ef620001aa565b9050620002fd8282620002ad565b919050565b600067ffffffffffffffff82111562000320576200031f6200027e565b5b602082029050602081019050919050565b600080fd5b60006200034d620003478462000302565b620002e3565b9050808382526020820190506020840283018581111562000373576200037262000331565b5b835b81811015620003a057806200038b88826200020c565b84526020840193505060208101905062000375565b5050509392505050565b600082601f830112620003c257620003c162000268565b5b8151620003d484826020860162000336565b91505092915050565b60008060008060808587031215620003fa57620003f9620001b4565b5b60006200040a878288016200020c565b94505060206200041d878288016200020c565b9350506040620004308782880162000251565b925050606085015167ffffffffffffffff811115620004545762000453620001b9565b5b6200046287828801620003aa565b91505092959194509250565b7f4e487b7100000000000000000000000000000000000000000000000000000000600052603260045260246000fd5b7f4e487b7100000000000000000000000000000000000000000000000000000000600052601160045260246000fd5b6000819050919050565b6000620004e382620004cc565b91507fffffffffffffffffffffffffffffffffffffffffffffffffffffffffffffffff8214156200051957620005186200049d565b5b600182019050919050565b6139d580620005346000396000f3fe6080604052600436106100955760003560e01c8063920f5c8411610059578063920f5c841461016e578063995e5def146101ab5780639c82f2a4146101d4578063a94352a3146101fd578063f0f44260146102265761009c565b8063362daf82146100a15780635d2c5559146100ca578063607b463a146100f357806369fe0e2d1461011c578063704b6c02146101455761009c565b3661009c57005b600080fd5b3480156100ad57600080fd5b506100c860048036038101906100c391906120ae565b61024f565b005b3480156100d657600080fd5b506100f160048036038101906100ec91906120ee565b6103a0565b005b3480156100ff57600080fd5b5061011a600480360381019061011591906120ee565b610489565b005b34801561012857600080fd5b50610143600480360381019061013e9190612151565b6105f9565b005b34801561015157600080fd5b5061016c600480360381019061016791906120ee565b610691565b005b34801561017a57600080fd5b506101956004803603810190610190919061244f565b610762565b6040516101a29190612555565b60405180910390f35b3480156101b757600080fd5b506101d260048036038101906101cd9190612760565b610e5c565b005b3480156101e057600080fd5b506101fb60048036038101906101f691906127e7565b611791565b005b34801561020957600080fd5b50610224600480360381019061021f91906120ee565b611863565b005b34801561023257600080fd5b5061024d600480360381019061024891906120ee565b61194c565b005b60008054906101000a900473ffffffffffffffffffffffffffffffffffffffff1673ffffffffffffffffffffffffffffffffffffffff163373ffffffffffffffffffffffffffffffffffffffff16146102dd576040517f08c379a00000000000000000000000000000000000000000000000000000000081526004016102d490612871565b60405180910390fd5b600082905060008173ffffffffffffffffffffffffffffffffffffffff166370a08231306040518263ffffffff1660e01b815260040161031d91906128a0565b60206040518083038186803b15801561033557600080fd5b505afa158015610349573d6000803e3d6000fd5b505050506040513d601f19601f8201168201806040525081019061036d91906128d0565b905061039a83828473ffffffffffffffffffffffffffffffffffffffff16611a1e9092919063ffffffff16565b50505050565b60008054906101000a900473ffffffffffffffffffffffffffffffffffffffff1673ffffffffffffffffffffffffffffffffffffffff163373ffffffffffffffffffffffffffffffffffffffff161461042e576040517f08c379a000000000000000000000000000000000000000000000000000000000815260040161042590612871565b60405180910390fd5b6000600460008373ffffffffffffffffffffffffffffffffffffffff1673ffffffffffffffffffffffffffffffffffffffff16815260200190815260200160002060006101000a81548160ff02191690831515021790555050565b60008054906101000a900473ffffffffffffffffffffffffffffffffffffffff1673ffffffffffffffffffffffffffffffffffffffff163373ffffffffffffffffffffffffffffffffffffffff1614610517576040517f08c379a000000000000000000000000000000000000000000000000000000000815260040161050e90612871565b60405180910390fd5b600081905060008173ffffffffffffffffffffffffffffffffffffffff166370a08231306040518263ffffffff1660e01b815260040161055791906128a0565b60206040518083038186803b15801561056f57600080fd5b505afa158015610583573d6000803e3d6000fd5b505050506040513d601f19601f820116820180604052508101906105a791906128d0565b90506105f460008054906101000a900473ffffffffffffffffffffffffffffffffffffffff16828473ffffffffffffffffffffffffffffffffffffffff16611a1e9092919063ffffffff16565b505050565b60008054906101000a900473ffffffffffffffffffffffffffffffffffffffff1673ffffffffffffffffffffffffffffffffffffffff163373ffffffffffffffffffffffffffffffffffffffff1614610687576040517f08c379a000000000000000000000000000000000000000000000000000000000815260040161067e90612871565b60405180910390fd5b8060028190555050565b60008054906101000a900473ffffffffffffffffffffffffffffffffffffffff1673ffffffffffffffffffffffffffffffffffffffff163373ffffffffffffffffffffffffffffffffffffffff161461071f576040517f08c379a000000000000000000000000000000000000000000000000000000000815260040161071690612871565b60405180910390fd5b806000806101000a81548173ffffffffffffffffffffffffffffffffffffffff021916908373ffffffffffffffffffffffffffffffffffffffff16021790555050565b6000600460003373ffffffffffffffffffffffffffffffffffffffff1673ffffffffffffffffffffffffffffffffffffffff16815260200190815260200160002060009054906101000a900460ff166107f0576040517f08c379a00000000000000000000000000000000000000000000000000000000081526004016107e790612949565b60405180910390fd5b600080600080600080600080600061081660006101208d611aa49092919063ffffffff16565b806020019051810190610829919061297e565b9850985098509850985098509850985098508873ffffffffffffffffffffffffffffffffffffffff163273ffffffffffffffffffffffffffffffffffffffff16146108a9576040517f08c379a00000000000000000000000000000000000000000000000000000000081526004016108a090612aba565b60405180910390fd5b60006108ec8e6000815181106108c2576108c1612ada565b5b60200260200101516108de600289611bc290919063ffffffff16565b611c3d90919063ffffffff16565b90508873ffffffffffffffffffffffffffffffffffffffff1663095ea7b333836040518363ffffffff1660e01b8152600401610929929190612b18565b602060405180830381600087803b15801561094357600080fd5b505af1158015610957573d6000803e3d6000fd5b505050506040513d601f19601f8201168201806040525081019061097b9190612b6d565b5060008514610a18573373ffffffffffffffffffffffffffffffffffffffff1663573ade818a8760018e6040518563ffffffff1660e01b81526004016109c49493929190612bdf565b602060405180830381600087803b1580156109de57600080fd5b505af11580156109f2573d6000803e3d6000fd5b505050506040513d601f19601f82011682018060405250810190610a1691906128d0565b505b60008414610ab4573373ffffffffffffffffffffffffffffffffffffffff1663573ade818a8660028e6040518563ffffffff1660e01b8152600401610a609493929190612c5f565b602060405180830381600087803b158015610a7a57600080fd5b505af1158015610a8e573d6000803e3d6000fd5b505050506040513d601f19601f82011682018060405250810190610ab291906128d0565b505b8673ffffffffffffffffffffffffffffffffffffffff166323b872dd8b30866040518463ffffffff1660e01b8152600401610af193929190612ca4565b602060405180830381600087803b158015610b0b57600080fd5b505af1158015610b1f573d6000803e3d6000fd5b505050506040513d601f19601f82011682018060405250810190610b439190612b6d565b503373ffffffffffffffffffffffffffffffffffffffff166369328dec8985306040518463ffffffff1660e01b8152600401610b8193929190612cdb565b602060405180830381600087803b158015610b9b57600080fd5b505af1158015610baf573d6000803e3d6000fd5b505050506040513d601f19601f82011682018060405250810190610bd391906128d0565b506101208c511115610e4557610c02610120808e51610bf29190612d41565b8e611aa49092919063ffffffff16565b9b50610c40610c31620f4240610c2360025487611bc290919063ffffffff16565b611c9b90919063ffffffff16565b84611ce590919063ffffffff16565b9250610c8f600360009054906101000a900473ffffffffffffffffffffffffffffffffffffffff16848a73ffffffffffffffffffffffffffffffffffffffff16611a1e9092919063ffffffff16565b600360009054906101000a900473ffffffffffffffffffffffffffffffffffffffff1673ffffffffffffffffffffffffffffffffffffffff16636df0e4a8848e8c6040518463ffffffff1660e01b8152600401610cee93929190612dfd565b602060405180830381600087803b158015610d0857600080fd5b505af1925050508015610d3957506040513d601f19601f82011682018060405250810190610d3691906128d0565b60015b610d78576040517f08c379a0000000000000000000000000000000000000000000000000000000008152600401610d6f90612e87565b60405180910390fd5b50818973ffffffffffffffffffffffffffffffffffffffff166370a08231306040518263ffffffff1660e01b8152600401610db391906128a0565b60206040518083038186803b158015610dcb57600080fd5b505afa158015610ddf573d6000803e3d6000fd5b505050506040513d601f19601f82011682018060405250810190610e0391906128d0565b1015610e44576040517f08c379a0000000000000000000000000000000000000000000000000000000008152600401610e3b90612ef3565b60405180910390fd5b5b60019a505050505050505050505095945050505050565b6000610f29826101400151600a610e739190613046565b610f1b846101000151856020015173ffffffffffffffffffffffffffffffffffffffff1663b3596f0787606001516040518263ffffffff1660e01b8152600401610ebd91906128a0565b60206040518083038186803b158015610ed557600080fd5b505afa158015610ee9573d6000803e3d6000fd5b505050506040513d601f19601f82011682018060405250810190610f0d91906128d0565b611bc290919063ffffffff16565b611c9b90919063ffffffff16565b90506000610ff7836101200151600a610f429190613046565b610fe98560a00151866020015173ffffffffffffffffffffffffffffffffffffffff1663b3596f0788604001516040518263ffffffff1660e01b8152600401610f8b91906128a0565b60206040518083038186803b158015610fa357600080fd5b505afa158015610fb7573d6000803e3d6000fd5b505050506040513d601f19601f82011682018060405250810190610fdb91906128d0565b611bc290919063ffffffff16565b611c9b90919063ffffffff16565b9050611038611029620f424061101b86610160015185611bc290919063ffffffff16565b611c9b90919063ffffffff16565b82611c3d90919063ffffffff16565b82101561107a576040517f08c379a0000000000000000000000000000000000000000000000000000000008152600401611071906130dd565b60405180910390fd5b6110e2826110d48561010001516110c66110b7620f42406110a98a610160015189611bc290919063ffffffff16565b611c9b90919063ffffffff16565b86611c3d90919063ffffffff16565b611bc290919063ffffffff16565b611c9b90919063ffffffff16565b83610100018181525050826101000151836080015173ffffffffffffffffffffffffffffffffffffffff1663dd62ed3e33306040518363ffffffff1660e01b81526004016111319291906130fd565b60206040518083038186803b15801561114957600080fd5b505afa15801561115d573d6000803e3d6000fd5b505050506040513d601f19601f8201168201806040525081019061118191906128d0565b10156111c2576040517f08c379a00000000000000000000000000000000000000000000000000000000081526004016111b990613172565b60405180910390fd5b6000600167ffffffffffffffff8111156111df576111de612194565b5b60405190808252806020026020018201604052801561120d5781602001602082028036833780820191505090505b5090506000600167ffffffffffffffff81111561122d5761122c612194565b5b60405190808252806020026020018201604052801561125b5781602001602082028036833780820191505090505b5090506000600167ffffffffffffffff81111561127b5761127a612194565b5b6040519080825280602002602001820160405280156112a95781602001602082028036833780820191505090505b5090506000836000815181106112c2576112c1612ada565b5b6020026020010181815250508560400151826000815181106112e7576112e6612ada565b5b602002602001019073ffffffffffffffffffffffffffffffffffffffff16908173ffffffffffffffffffffffffffffffffffffffff16815250508560a001518160008151811061133a57611339612ada565b5b6020026020010181815250506000338760400151886060015189608001518a60a001518b60c001518c60e001518d61010001518e610180015160405160200161138b99989796959493929190613192565b60405160208183030381529060405290506113b4876101a0015182611d2f90919063ffffffff16565b90506000876040015173ffffffffffffffffffffffffffffffffffffffff166370a08231306040518263ffffffff1660e01b81526004016113f591906128a0565b60206040518083038186803b15801561140d57600080fd5b505afa158015611421573d6000803e3d6000fd5b505050506040513d601f19601f8201168201806040525081019061144591906128d0565b9050876000015173ffffffffffffffffffffffffffffffffffffffff1663ab9c4b5d30868689308860006040518863ffffffff1660e01b815260040161149197969594939291906133b8565b600060405180830381600087803b1580156114ab57600080fd5b505af11580156114bf573d6000803e3d6000fd5b5050505060008860400151905060008960600151905060008273ffffffffffffffffffffffffffffffffffffffff166370a08231306040518263ffffffff1660e01b815260040161151091906128a0565b60206040518083038186803b15801561152857600080fd5b505afa15801561153c573d6000803e3d6000fd5b505050506040513d601f19601f8201168201806040525081019061156091906128d0565b90508a6060015173ffffffffffffffffffffffffffffffffffffffff168b6040015173ffffffffffffffffffffffffffffffffffffffff1614156116215760006115ee6115df6115d0620f42406115c26002548a611bc290919063ffffffff16565b611c9b90919063ffffffff16565b87611c3d90919063ffffffff16565b83611ce590919063ffffffff16565b905061161b33828673ffffffffffffffffffffffffffffffffffffffff16611a1e9092919063ffffffff16565b5061165f565b61165e336116388684611ce590919063ffffffff16565b8573ffffffffffffffffffffffffffffffffffffffff16611a1e9092919063ffffffff16565b5b611734600160009054906101000a900473ffffffffffffffffffffffffffffffffffffffff168373ffffffffffffffffffffffffffffffffffffffff166370a08231306040518263ffffffff1660e01b81526004016116be91906128a0565b60206040518083038186803b1580156116d657600080fd5b505afa1580156116ea573d6000803e3d6000fd5b505050506040513d601f19601f8201168201806040525081019061170e91906128d0565b8473ffffffffffffffffffffffffffffffffffffffff16611a1e9092919063ffffffff16565b7fd58706648644be277f6999c826f65f98128c29c6846a892b929a304a7f19e3eb338c604001518d606001518e60a001518f610100015160405161177c959493929190613443565b60405180910390a15050505050505050505050565b60008054906101000a900473ffffffffffffffffffffffffffffffffffffffff1673ffffffffffffffffffffffffffffffffffffffff163373ffffffffffffffffffffffffffffffffffffffff161461181f576040517f08c379a000000000000000000000000000000000000000000000000000000000815260040161181690612871565b60405180910390fd5b80600360006101000a81548173ffffffffffffffffffffffffffffffffffffffff021916908373ffffffffffffffffffffffffffffffffffffffff16021790555050565b60008054906101000a900473ffffffffffffffffffffffffffffffffffffffff1673ffffffffffffffffffffffffffffffffffffffff163373ffffffffffffffffffffffffffffffffffffffff16146118f1576040517f08c379a00000000000000000000000000000000000000000000000000000000081526004016118e890612871565b60405180910390fd5b6001600460008373ffffffffffffffffffffffffffffffffffffffff1673ffffffffffffffffffffffffffffffffffffffff16815260200190815260200160002060006101000a81548160ff02191690831515021790555050565b60008054906101000a900473ffffffffffffffffffffffffffffffffffffffff1673ffffffffffffffffffffffffffffffffffffffff163373ffffffffffffffffffffffffffffffffffffffff16146119da576040517f08c379a00000000000000000000000000000000000000000000000000000000081526004016119d190612871565b60405180910390fd5b80600160006101000a81548173ffffffffffffffffffffffffffffffffffffffff021916908373ffffffffffffffffffffffffffffffffffffffff16021790555050565b611a9f8363a9059cbb60e01b8484604051602401611a3d929190612b18565b604051602081830303815290604052907bffffffffffffffffffffffffffffffffffffffffffffffffffffffff19166020820180517bffffffffffffffffffffffffffffffffffffffffffffffffffffffff8381831617835250505050611db9565b505050565b606081601f83611ab49190613496565b1015611af5576040517f08c379a0000000000000000000000000000000000000000000000000000000008152600401611aec90613538565b60405180910390fd5b8183611b019190613496565b84511015611b44576040517f08c379a0000000000000000000000000000000000000000000000000000000008152600401611b3b906135a4565b60405180910390fd5b6060821560008114611b655760405191506000825260208201604052611bb6565b6040519150601f8416801560200281840101858101878315602002848b0101015b81831015611ba35780518352602083019250602081019050611b86565b50868552601f19601f8301166040525050505b50809150509392505050565b600080831415611bd55760009050611c37565b60008284611be391906135c4565b9050828482611bf2919061364d565b14611c32576040517f08c379a0000000000000000000000000000000000000000000000000000000008152600401611c29906136f0565b60405180910390fd5b809150505b92915050565b6000808284611c4c9190613496565b905083811015611c91576040517f08c379a0000000000000000000000000000000000000000000000000000000008152600401611c889061375c565b60405180910390fd5b8091505092915050565b6000611cdd83836040518060400160405280601a81526020017f536166654d6174683a206469766973696f6e206279207a65726f000000000000815250611f2a565b905092915050565b6000611d2783836040518060400160405280601e81526020017f536166654d6174683a207375627472616374696f6e206f766572666c6f770000815250611f8d565b905092915050565b6060806040519050835180825260208201818101602087015b81831015611d655780518352602083019250602081019050611d48565b50855192508351830184528091508282019050602086015b81831015611d9a5780518352602083019250602081019050611d7d565b50601f19601f8851850115830101166040525050508091505092915050565b611dd88273ffffffffffffffffffffffffffffffffffffffff16611ff1565b611e17576040517f08c379a0000000000000000000000000000000000000000000000000000000008152600401611e0e906137c8565b60405180910390fd5b6000808373ffffffffffffffffffffffffffffffffffffffff1683604051611e3f9190613824565b6000604051808303816000865af19150503d8060008114611e7c576040519150601f19603f3d011682016040523d82523d6000602084013e611e81565b606091505b509150915081611ec6576040517f08c379a0000000000000000000000000000000000000000000000000000000008152600401611ebd90613887565b60405180910390fd5b600081511115611f245780806020019051810190611ee49190612b6d565b611f23576040517f08c379a0000000000000000000000000000000000000000000000000000000008152600401611f1a90613919565b60405180910390fd5b5b50505050565b60008083118290611f71576040517f08c379a0000000000000000000000000000000000000000000000000000000008152600401611f68919061397d565b60405180910390fd5b5060008385611f80919061364d565b9050809150509392505050565b6000838311158290611fd5576040517f08c379a0000000000000000000000000000000000000000000000000000000008152600401611fcc919061397d565b60405180910390fd5b5060008385611fe49190612d41565b9050809150509392505050565b60008060007fc5d2460186f7233c927e7db2dcc703c0e500b653ca82273b7bfad8045d85a47060001b9050833f915080821415801561203357506000801b8214155b92505050919050565b6000604051905090565b600080fd5b600080fd5b600073ffffffffffffffffffffffffffffffffffffffff82169050919050565b600061207b82612050565b9050919050565b61208b81612070565b811461209657600080fd5b50565b6000813590506120a881612082565b92915050565b600080604083850312156120c5576120c4612046565b5b60006120d385828601612099565b92505060206120e485828601612099565b9150509250929050565b60006020828403121561210457612103612046565b5b600061211284828501612099565b91505092915050565b6000819050919050565b61212e8161211b565b811461213957600080fd5b50565b60008135905061214b81612125565b92915050565b60006020828403121561216757612166612046565b5b60006121758482850161213c565b91505092915050565b600080fd5b6000601f19601f8301169050919050565b7f4e487b7100000000000000000000000000000000000000000000000000000000600052604160045260246000fd5b6121cc82612183565b810181811067ffffffffffffffff821117156121eb576121ea612194565b5b80604052505050565b60006121fe61203c565b905061220a82826121c3565b919050565b600067ffffffffffffffff82111561222a57612229612194565b5b602082029050602081019050919050565b600080fd5b600061225361224e8461220f565b6121f4565b905080838252602082019050602084028301858111156122765761227561223b565b5b835b8181101561229f578061228b8882612099565b845260208401935050602081019050612278565b5050509392505050565b600082601f8301126122be576122bd61217e565b5b81356122ce848260208601612240565b91505092915050565b600067ffffffffffffffff8211156122f2576122f1612194565b5b602082029050602081019050919050565b6000612316612311846122d7565b6121f4565b905080838252602082019050602084028301858111156123395761233861223b565b5b835b81811015612362578061234e888261213c565b84526020840193505060208101905061233b565b5050509392505050565b600082601f8301126123815761238061217e565b5b8135612391848260208601612303565b91505092915050565b600080fd5b600067ffffffffffffffff8211156123ba576123b9612194565b5b6123c382612183565b9050602081019050919050565b82818337600083830152505050565b60006123f26123ed8461239f565b6121f4565b90508281526020810184848401111561240e5761240d61239a565b5b6124198482856123d0565b509392505050565b600082601f8301126124365761243561217e565b5b81356124468482602086016123df565b91505092915050565b600080600080600060a0868803121561246b5761246a612046565b5b600086013567ffffffffffffffff8111156124895761248861204b565b5b612495888289016122a9565b955050602086013567ffffffffffffffff8111156124b6576124b561204b565b5b6124c28882890161236c565b945050604086013567ffffffffffffffff8111156124e3576124e261204b565b5b6124ef8882890161236c565b935050606061250088828901612099565b925050608086013567ffffffffffffffff8111156125215761252061204b565b5b61252d88828901612421565b9150509295509295909350565b60008115159050919050565b61254f8161253a565b82525050565b600060208201905061256a6000830184612546565b92915050565b600080fd5b600080fd5b600061258582612070565b9050919050565b6125958161257a565b81146125a057600080fd5b50565b6000813590506125b28161258c565b92915050565b60006125c382612070565b9050919050565b6125d3816125b8565b81146125de57600080fd5b50565b6000813590506125f0816125ca565b92915050565b60006101c0828403121561260d5761260c612570565b5b6126186101c06121f4565b90506000612628848285016125a3565b600083015250602061263c848285016125e1565b602083015250604061265084828501612099565b604083015250606061266484828501612099565b606083015250608061267884828501612099565b60808301525060a061268c8482850161213c565b60a08301525060c06126a08482850161213c565b60c08301525060e06126b48482850161213c565b60e0830152506101006126c98482850161213c565b610100830152506101206126df8482850161213c565b610120830152506101406126f58482850161213c565b6101408301525061016061270b8482850161213c565b610160830152506101806127218482850161213c565b610180830152506101a082013567ffffffffffffffff81111561274757612746612575565b5b61275384828501612421565b6101a08301525092915050565b60006020828403121561277657612775612046565b5b600082013567ffffffffffffffff8111156127945761279361204b565b5b6127a0848285016125f6565b91505092915050565b60006127b482612050565b9050919050565b6127c4816127a9565b81146127cf57600080fd5b50565b6000813590506127e1816127bb565b92915050565b6000602082840312156127fd576127fc612046565b5b600061280b848285016127d2565b91505092915050565b600082825260208201905092915050565b7f6e6f742061646d696e0000000000000000000000000000000000000000000000600082015250565b600061285b600983612814565b915061286682612825565b602082019050919050565b6000602082019050818103600083015261288a8161284e565b9050919050565b61289a81612070565b82525050565b60006020820190506128b56000830184612891565b92915050565b6000815190506128ca81612125565b92915050565b6000602082840312156128e6576128e5612046565b5b60006128f4848285016128bb565b91505092915050565b7f6c656e64696e6720706f6f6c206e6f7420617070726f76656400000000000000600082015250565b6000612933601983612814565b915061293e826128fd565b602082019050919050565b6000602082019050818103600083015261296281612926565b9050919050565b600081519050612978816127bb565b92915050565b60008060008060008060008060006101208a8c0312156129a1576129a0612046565b5b60006129af8c828d01612969565b99505060206129c08c828d01612969565b98505060406129d18c828d01612969565b97505060606129e28c828d01612969565b96505060806129f38c828d016128bb565b95505060a0612a048c828d016128bb565b94505060c0612a158c828d016128bb565b93505060e0612a268c828d016128bb565b925050610100612a388c828d016128bb565b9150509295985092959850929598565b7f4c69717569646174696f6e2063616e206f6e6c7920626520706572666f726d6560008201527f6420627920757365720000000000000000000000000000000000000000000000602082015250565b6000612aa4602983612814565b9150612aaf82612a48565b604082019050919050565b60006020820190508181036000830152612ad381612a97565b9050919050565b7f4e487b7100000000000000000000000000000000000000000000000000000000600052603260045260246000fd5b612b128161211b565b82525050565b6000604082019050612b2d6000830185612891565b612b3a6020830184612b09565b9392505050565b612b4a8161253a565b8114612b5557600080fd5b50565b600081519050612b6781612b41565b92915050565b600060208284031215612b8357612b82612046565b5b6000612b9184828501612b58565b91505092915050565b6000819050919050565b6000819050919050565b6000612bc9612bc4612bbf84612b9a565b612ba4565b61211b565b9050919050565b612bd981612bae565b82525050565b6000608082019050612bf46000830187612891565b612c016020830186612b09565b612c0e6040830185612bd0565b612c1b6060830184612891565b95945050505050565b6000819050919050565b6000612c49612c44612c3f84612c24565b612ba4565b61211b565b9050919050565b612c5981612c2e565b82525050565b6000608082019050612c746000830187612891565b612c816020830186612b09565b612c8e6040830185612c50565b612c9b6060830184612891565b95945050505050565b6000606082019050612cb96000830186612891565b612cc66020830185612891565b612cd36040830184612b09565b949350505050565b6000606082019050612cf06000830186612891565b612cfd6020830185612b09565b612d0a6040830184612891565b949350505050565b7f4e487b7100000000000000000000000000000000000000000000000000000000600052601160045260246000fd5b6000612d4c8261211b565b9150612d578361211b565b925082821015612d6a57612d69612d12565b5b828203905092915050565b600081519050919050565b600082825260208201905092915050565b60005b83811015612daf578082015181840152602081019050612d94565b83811115612dbe576000848401525b50505050565b6000612dcf82612d75565b612dd98185612d80565b9350612de9818560208601612d91565b612df281612183565b840191505092915050565b6000606082019050612e126000830186612b09565b8181036020830152612e248185612dc4565b9050612e336040830184612891565b949350505050565b7f73776170206661696c6564000000000000000000000000000000000000000000600082015250565b6000612e71600b83612814565b9150612e7c82612e3b565b602082019050919050565b60006020820190508181036000830152612ea081612e64565b9050919050565b7f536c69707061676520686967686572207468616e206578706563746564000000600082015250565b6000612edd601d83612814565b9150612ee882612ea7565b602082019050919050565b60006020820190508181036000830152612f0c81612ed0565b9050919050565b60008160011c9050919050565b6000808291508390505b6001851115612f6a57808604811115612f4657612f45612d12565b5b6001851615612f555780820291505b8081029050612f6385612f13565b9450612f2a565b94509492505050565b600082612f83576001905061303f565b81612f91576000905061303f565b8160018114612fa75760028114612fb157612fe0565b600191505061303f565b60ff841115612fc357612fc2612d12565b5b8360020a915084821115612fda57612fd9612d12565b5b5061303f565b5060208310610133831016604e8410600b84101617156130155782820a9050838111156130105761300f612d12565b5b61303f565b6130228484846001612f20565b9250905081840481111561303957613038612d12565b5b81810290505b9392505050565b60006130518261211b565b915061305c8361211b565b92506130897fffffffffffffffffffffffffffffffffffffffffffffffffffffffffffffffff8484612f73565b905092915050565b7f436f6c6c61746572616c2076616c756520746f6f206c6f770000000000000000600082015250565b60006130c7601883612814565b91506130d282613091565b602082019050919050565b600060208201905081810360008301526130f6816130ba565b9050919050565b60006040820190506131126000830185612891565b61311f6020830184612891565b9392505050565b7f4e6f20416c6c6f77616e63650000000000000000000000000000000000000000600082015250565b600061315c600c83612814565b915061316782613126565b602082019050919050565b6000602082019050818103600083015261318b8161314f565b9050919050565b6000610120820190506131a8600083018c612891565b6131b5602083018b612891565b6131c2604083018a612891565b6131cf6060830189612891565b6131dc6080830188612b09565b6131e960a0830187612b09565b6131f660c0830186612b09565b61320360e0830185612b09565b613211610100830184612b09565b9a9950505050505050505050565b600081519050919050565b600082825260208201905092915050565b6000819050602082019050919050565b61325481612070565b82525050565b6000613266838361324b565b60208301905092915050565b6000602082019050919050565b600061328a8261321f565b613294818561322a565b935061329f8361323b565b8060005b838110156132d05781516132b7888261325a565b97506132c283613272565b9250506001810190506132a3565b5085935050505092915050565b600081519050919050565b600082825260208201905092915050565b6000819050602082019050919050565b6133128161211b565b82525050565b60006133248383613309565b60208301905092915050565b6000602082019050919050565b6000613348826132dd565b61335281856132e8565b935061335d836132f9565b8060005b8381101561338e5781516133758882613318565b975061338083613330565b925050600181019050613361565b5085935050505092915050565b600061ffff82169050919050565b6133b28161339b565b82525050565b600060e0820190506133cd600083018a612891565b81810360208301526133df818961327f565b905081810360408301526133f3818861333d565b90508181036060830152613407818761333d565b90506134166080830186612891565b81810360a08301526134288185612dc4565b905061343760c08301846133a9565b98975050505050505050565b600060a0820190506134586000830188612891565b6134656020830187612891565b6134726040830186612891565b61347f6060830185612b09565b61348c6080830184612b09565b9695505050505050565b60006134a18261211b565b91506134ac8361211b565b9250827fffffffffffffffffffffffffffffffffffffffffffffffffffffffffffffffff038211156134e1576134e0612d12565b5b828201905092915050565b7f736c6963655f6f766572666c6f77000000000000000000000000000000000000600082015250565b6000613522600e83612814565b915061352d826134ec565b602082019050919050565b6000602082019050818103600083015261355181613515565b9050919050565b7f736c6963655f6f75744f66426f756e6473000000000000000000000000000000600082015250565b600061358e601183612814565b915061359982613558565b602082019050919050565b600060208201905081810360008301526135bd81613581565b9050919050565b60006135cf8261211b565b91506135da8361211b565b9250817fffffffffffffffffffffffffffffffffffffffffffffffffffffffffffffffff048311821515161561361357613612612d12565b5b828202905092915050565b7f4e487b7100000000000000000000000000000000000000000000000000000000600052601260045260246000fd5b60006136588261211b565b91506136638361211b565b9250826136735761367261361e565b5b828204905092915050565b7f536166654d6174683a206d756c7469706c69636174696f6e206f766572666c6f60008201527f7700000000000000000000000000000000000000000000000000000000000000602082015250565b60006136da602183612814565b91506136e58261367e565b604082019050919050565b60006020820190508181036000830152613709816136cd565b9050919050565b7f536166654d6174683a206164646974696f6e206f766572666c6f770000000000600082015250565b6000613746601b83612814565b915061375182613710565b602082019050919050565b6000602082019050818103600083015261377581613739565b9050919050565b7f5361666545524332303a2063616c6c20746f206e6f6e2d636f6e747261637400600082015250565b60006137b2601f83612814565b91506137bd8261377c565b602082019050919050565b600060208201905081810360008301526137e1816137a5565b9050919050565b600081905092915050565b60006137fe82612d75565b61380881856137e8565b9350613818818560208601612d91565b80840191505092915050565b600061383082846137f3565b915081905092915050565b7f5361666545524332303a206c6f772d6c6576656c2063616c6c206661696c6564600082015250565b6000613871602083612814565b915061387c8261383b565b602082019050919050565b600060208201905081810360008301526138a081613864565b9050919050565b7f5361666545524332303a204552433230206f7065726174696f6e20646964206e60008201527f6f74207375636365656400000000000000000000000000000000000000000000602082015250565b6000613903602a83612814565b915061390e826138a7565b604082019050919050565b60006020820190508181036000830152613932816138f6565b9050919050565b600081519050919050565b600061394f82613939565b6139598185612814565b9350613969818560208601612d91565b61397281612183565b840191505092915050565b600060208201905081810360008301526139978184613944565b90509291505056fea2646970667358221220e239048bfe1060ad6fb4d510658f85ea497c6fa923a9ac23a40e871027c4273564736f6c63430008090033",
  "linkReferences": {},
  "deployedLinkReferences": {}
}