{
  "_format": "hh-sol-artifact-1",
  "contractName": "V2Rates",
  "sourceName": "contracts/GetV2Rates.sol",
  "abi": [
    {
      "inputs": [
        {
          "internalType": "address[]",
          "name": "_pairs",
          "type": "address[]"
        },
        {
          "internalType": "bool",
          "name": "returnTokenDetails",
          "type": "bool"
        }
      ],
      "name": "getRates",
      "outputs": [
        {
          "components": [
            {
              "internalType": "address",
              "name": "pair",
              "type": "address"
            },
            {
              "internalType": "address",
              "name": "token0",
              "type": "address"
            },
            {
              "internalType": "address",
              "name": "token1",
              "type": "address"
            },
            {
              "internalType": "uint16",
              "name": "decimals0",
              "type": "uint16"
            },
            {
              "internalType": "uint16",
              "name": "decimals1",
              "type": "uint16"
            },
            {
              "internalType": "string",
              "name": "symbol0",
              "type": "string"
            },
            {
              "internalType": "string",
              "name": "symbol1",
              "type": "string"
            },
            {
              "internalType": "uint112[2]",
              "name": "reserves",
              "type": "uint112[2]"
            }
          ],
          "internalType": "struct V2Rates.Pair[]",
          "name": "",
          "type": "tuple[]"
        }
      ],
      "stateMutability": "view",
      "type": "function"
    }
  ],
  "bytecode": "0x608060405234801561001057600080fd5b50610fa4806100206000396000f3fe608060405234801561001057600080fd5b506004361061002b5760003560e01c8063dccc1a4314610030575b600080fd5b61004a600480360381019061004591906108fb565b610060565b6040516100579190610c49565b60405180910390f35b60606000835167ffffffffffffffff81111561007f5761007e610722565b5b6040519080825280602002602001820160405280156100b857816020015b6100a5610641565b81526020019060019003908161009d5790505b50905060005b8451811015610636576100cf610641565b8582815181106100e2576100e1610c6b565b5b6020026020010151816000019073ffffffffffffffffffffffffffffffffffffffff16908173ffffffffffffffffffffffffffffffffffffffff1681525050600086838151811061013657610135610c6b565b5b6020026020010151905085156105135760008173ffffffffffffffffffffffffffffffffffffffff16630dfe16816040518163ffffffff1660e01b815260040160206040518083038186803b15801561018e57600080fd5b505afa1580156101a2573d6000803e3d6000fd5b505050506040513d601f19601f820116820180604052508101906101c69190610caf565b905060008273ffffffffffffffffffffffffffffffffffffffff1663d21220a76040518163ffffffff1660e01b815260040160206040518083038186803b15801561021057600080fd5b505afa158015610224573d6000803e3d6000fd5b505050506040513d601f19601f820116820180604052508101906102489190610caf565b905060008273ffffffffffffffffffffffffffffffffffffffff166395d89b416040518163ffffffff1660e01b815260040160006040518083038186803b15801561029257600080fd5b505afa1580156102a6573d6000803e3d6000fd5b505050506040513d6000823e3d601f19601f820116820180604052508101906102cf9190610d82565b905060008273ffffffffffffffffffffffffffffffffffffffff166395d89b416040518163ffffffff1660e01b815260040160006040518083038186803b15801561031957600080fd5b505afa15801561032d573d6000803e3d6000fd5b505050506040513d6000823e3d601f19601f820116820180604052508101906103569190610d82565b905060008473ffffffffffffffffffffffffffffffffffffffff1663313ce5676040518163ffffffff1660e01b815260040160206040518083038186803b1580156103a057600080fd5b505afa1580156103b4573d6000803e3d6000fd5b505050506040513d601f19601f820116820180604052508101906103d89190610e04565b60ff16905060008473ffffffffffffffffffffffffffffffffffffffff1663313ce5676040518163ffffffff1660e01b815260040160206040518083038186803b15801561042557600080fd5b505afa158015610439573d6000803e3d6000fd5b505050506040513d601f19601f8201168201806040525081019061045d9190610e04565b60ff16905085886020019073ffffffffffffffffffffffffffffffffffffffff16908173ffffffffffffffffffffffffffffffffffffffff168152505084886040019073ffffffffffffffffffffffffffffffffffffffff16908173ffffffffffffffffffffffffffffffffffffffff1681525050838860a00181905250828860c0018190525081886060019061ffff16908161ffff168152505080886080019061ffff16908161ffff16815250505050505050505b60008060008373ffffffffffffffffffffffffffffffffffffffff16630902f1ac6040518163ffffffff1660e01b815260040160606040518083038186803b15801561055e57600080fd5b505afa158015610572573d6000803e3d6000fd5b505050506040513d601f19601f820116820180604052508101906105969190610e99565b92509250925060006040518060400160405280856dffffffffffffffffffffffffffff166dffffffffffffffffffffffffffff168152602001846dffffffffffffffffffffffffffff166dffffffffffffffffffffffffffff168152509050808660e001819052508588888151811061061257610611610c6b565b5b6020026020010181905250505050505050808061062e90610f25565b9150506100be565b508091505092915050565b604051806101000160405280600073ffffffffffffffffffffffffffffffffffffffff168152602001600073ffffffffffffffffffffffffffffffffffffffff168152602001600073ffffffffffffffffffffffffffffffffffffffff168152602001600061ffff168152602001600061ffff16815260200160608152602001606081526020016106d06106d6565b81525090565b6040518060400160405280600290602082028036833780820191505090505090565b6000604051905090565b600080fd5b600080fd5b600080fd5b6000601f19601f8301169050919050565b7f4e487b7100000000000000000000000000000000000000000000000000000000600052604160045260246000fd5b61075a82610711565b810181811067ffffffffffffffff8211171561077957610778610722565b5b80604052505050565b600061078c6106f8565b90506107988282610751565b919050565b600067ffffffffffffffff8211156107b8576107b7610722565b5b602082029050602081019050919050565b600080fd5b600073ffffffffffffffffffffffffffffffffffffffff82169050919050565b60006107f9826107ce565b9050919050565b610809816107ee565b811461081457600080fd5b50565b60008135905061082681610800565b92915050565b600061083f61083a8461079d565b610782565b90508083825260208201905060208402830185811115610862576108616107c9565b5b835b8181101561088b57806108778882610817565b845260208401935050602081019050610864565b5050509392505050565b600082601f8301126108aa576108a961070c565b5b81356108ba84826020860161082c565b91505092915050565b60008115159050919050565b6108d8816108c3565b81146108e357600080fd5b50565b6000813590506108f5816108cf565b92915050565b6000806040838503121561091257610911610702565b5b600083013567ffffffffffffffff8111156109305761092f610707565b5b61093c85828601610895565b925050602061094d858286016108e6565b9150509250929050565b600081519050919050565b600082825260208201905092915050565b6000819050602082019050919050565b61098c816107ee565b82525050565b600061ffff82169050919050565b6109a981610992565b82525050565b600081519050919050565b600082825260208201905092915050565b60005b838110156109e95780820151818401526020810190506109ce565b838111156109f8576000848401525b50505050565b6000610a09826109af565b610a1381856109ba565b9350610a238185602086016109cb565b610a2c81610711565b840191505092915050565b600060029050919050565b600081905092915050565b6000819050919050565b60006dffffffffffffffffffffffffffff82169050919050565b610a7a81610a57565b82525050565b6000610a8c8383610a71565b60208301905092915050565b6000602082019050919050565b610aae81610a37565b610ab88184610a42565b9250610ac382610a4d565b8060005b83811015610af4578151610adb8782610a80565b9650610ae683610a98565b925050600181019050610ac7565b505050505050565b600061012083016000830151610b156000860182610983565b506020830151610b286020860182610983565b506040830151610b3b6040860182610983565b506060830151610b4e60608601826109a0565b506080830151610b6160808601826109a0565b5060a083015184820360a0860152610b7982826109fe565b91505060c083015184820360c0860152610b9382826109fe565b91505060e0830151610ba860e0860182610aa5565b508091505092915050565b6000610bbf8383610afc565b905092915050565b6000602082019050919050565b6000610bdf82610957565b610be98185610962565b935083602082028501610bfb85610973565b8060005b85811015610c375784840389528151610c188582610bb3565b9450610c2383610bc7565b925060208a01995050600181019050610bff565b50829750879550505050505092915050565b60006020820190508181036000830152610c638184610bd4565b905092915050565b7f4e487b7100000000000000000000000000000000000000000000000000000000600052603260045260246000fd5b600081519050610ca981610800565b92915050565b600060208284031215610cc557610cc4610702565b5b6000610cd384828501610c9a565b91505092915050565b600080fd5b600067ffffffffffffffff821115610cfc57610cfb610722565b5b610d0582610711565b9050602081019050919050565b6000610d25610d2084610ce1565b610782565b905082815260208101848484011115610d4157610d40610cdc565b5b610d4c8482856109cb565b509392505050565b600082601f830112610d6957610d6861070c565b5b8151610d79848260208601610d12565b91505092915050565b600060208284031215610d9857610d97610702565b5b600082015167ffffffffffffffff811115610db657610db5610707565b5b610dc284828501610d54565b91505092915050565b600060ff82169050919050565b610de181610dcb565b8114610dec57600080fd5b50565b600081519050610dfe81610dd8565b92915050565b600060208284031215610e1a57610e19610702565b5b6000610e2884828501610def565b91505092915050565b610e3a81610a57565b8114610e4557600080fd5b50565b600081519050610e5781610e31565b92915050565b600063ffffffff82169050919050565b610e7681610e5d565b8114610e8157600080fd5b50565b600081519050610e9381610e6d565b92915050565b600080600060608486031215610eb257610eb1610702565b5b6000610ec086828701610e48565b9350506020610ed186828701610e48565b9250506040610ee286828701610e84565b9150509250925092565b7f4e487b7100000000000000000000000000000000000000000000000000000000600052601160045260246000fd5b6000819050919050565b6000610f3082610f1b565b91507fffffffffffffffffffffffffffffffffffffffffffffffffffffffffffffffff821415610f6357610f62610eec565b5b60018201905091905056fea26469706673582212208094e6919668729b3f45e0366c0715c9f195bc407e6b9dafa6d09506c5a2e8fe64736f6c63430008090033",
  "linkReferences": {},
  "deployedLinkReferences": {}
}