{
  "_format": "hh-sol-artifact-1",
  "contractName": "StarlayLeverage",
  "sourceName": "contracts/StarlayLeverager.sol",
  "abi": [
    {
      "inputs": [
        {
          "internalType": "address",
          "name": "_admin",
          "type": "address"
        },
        {
          "internalType": "address payable",
          "name": "_swapper",
          "type": "address"
        },
        {
          "internalType": "address[]",
          "name": "_approvedLendingPools",
          "type": "address[]"
        }
      ],
      "stateMutability": "nonpayable",
      "type": "constructor"
    },
    {
      "anonymous": false,
      "inputs": [
        {
          "indexed": false,
          "internalType": "address",
          "name": "leverager",
          "type": "address"
        },
        {
          "indexed": false,
          "internalType": "address",
          "name": "collateral",
          "type": "address"
        },
        {
          "indexed": false,
          "internalType": "address",
          "name": "debt",
          "type": "address"
        },
        {
          "indexed": false,
          "internalType": "uint256",
          "name": "collateralAmount",
          "type": "uint256"
        },
        {
          "indexed": false,
          "internalType": "uint256",
          "name": "debtAmount",
          "type": "uint256"
        }
      ],
      "name": "Leverage",
      "type": "event"
    },
    {
      "inputs": [
        {
          "internalType": "address",
          "name": "pool",
          "type": "address"
        }
      ],
      "name": "approveLendingPool",
      "outputs": [],
      "stateMutability": "nonpayable",
      "type": "function"
    },
    {
      "inputs": [
        {
          "internalType": "address",
          "name": "pool",
          "type": "address"
        }
      ],
      "name": "disapproveLendingPool",
      "outputs": [],
      "stateMutability": "nonpayable",
      "type": "function"
    },
    {
      "inputs": [
        {
          "internalType": "address",
          "name": "_token",
          "type": "address"
        }
      ],
      "name": "getCash",
      "outputs": [],
      "stateMutability": "nonpayable",
      "type": "function"
    },
    {
      "inputs": [
        {
          "internalType": "address",
          "name": "_admin",
          "type": "address"
        }
      ],
      "name": "setAdmin",
      "outputs": [],
      "stateMutability": "nonpayable",
      "type": "function"
    },
    {
      "inputs": [
        {
          "internalType": "address payable",
          "name": "_swapper",
          "type": "address"
        }
      ],
      "name": "setSwapper",
      "outputs": [],
      "stateMutability": "nonpayable",
      "type": "function"
    },
    {
      "inputs": [
        {
          "components": [
            {
              "internalType": "contract ILendingPool",
              "name": "lendingPool",
              "type": "address"
            },
            {
              "internalType": "contract IPriceOracle",
              "name": "priceOracle",
              "type": "address"
            },
            {
              "internalType": "address",
              "name": "collateral",
              "type": "address"
            },
            {
              "internalType": "address",
              "name": "debt",
              "type": "address"
            },
            {
              "internalType": "uint256",
              "name": "collateralAmount",
              "type": "uint256"
            },
            {
              "internalType": "uint256",
              "name": "estimatedLeveragedCollateralAmount",
              "type": "uint256"
            },
            {
              "internalType": "uint256",
              "name": "cRatio",
              "type": "uint256"
            },
            {
              "internalType": "uint256",
              "name": "collateralDecimals",
              "type": "uint256"
            },
            {
              "internalType": "uint256",
              "name": "debtDecimals",
              "type": "uint256"
            },
            {
              "internalType": "uint256",
              "name": "interestRateMode",
              "type": "uint256"
            },
            {
              "internalType": "uint256",
              "name": "loops",
              "type": "uint256"
            },
            {
              "internalType": "bytes",
              "name": "swapData",
              "type": "bytes"
            }
          ],
          "internalType": "struct AaveLeverage.WindArgs",
          "name": "args",
          "type": "tuple"
        }
      ],
      "name": "wind",
      "outputs": [],
      "stateMutability": "nonpayable",
      "type": "function"
    },
    {
      "stateMutability": "payable",
      "type": "receive"
    }
  ],
  "bytecode": "0x60806040526127106001553480156200001757600080fd5b50604051620025363803806200253683398181016040528101906200003d919062000399565b828282826000806101000a81548173ffffffffffffffffffffffffffffffffffffffff021916908373ffffffffffffffffffffffffffffffffffffffff16021790555081600260006101000a81548173ffffffffffffffffffffffffffffffffffffffff021916908373ffffffffffffffffffffffffffffffffffffffff16021790555060005b81518110156200015957600160036000848481518110620000ea57620000e962000414565b5b602002602001015173ffffffffffffffffffffffffffffffffffffffff1673ffffffffffffffffffffffffffffffffffffffff16815260200190815260200160002060006101000a81548160ff021916908315150217905550808062000150906200047c565b915050620000c4565b50505050505050620004ca565b6000604051905090565b600080fd5b600080fd5b600073ffffffffffffffffffffffffffffffffffffffff82169050919050565b6000620001a7826200017a565b9050919050565b620001b9816200019a565b8114620001c557600080fd5b50565b600081519050620001d981620001ae565b92915050565b6000620001ec826200017a565b9050919050565b620001fe81620001df565b81146200020a57600080fd5b50565b6000815190506200021e81620001f3565b92915050565b600080fd5b6000601f19601f8301169050919050565b7f4e487b7100000000000000000000000000000000000000000000000000000000600052604160045260246000fd5b620002748262000229565b810181811067ffffffffffffffff821117156200029657620002956200023a565b5b80604052505050565b6000620002ab62000166565b9050620002b9828262000269565b919050565b600067ffffffffffffffff821115620002dc57620002db6200023a565b5b602082029050602081019050919050565b600080fd5b6000620003096200030384620002be565b6200029f565b905080838252602082019050602084028301858111156200032f576200032e620002ed565b5b835b818110156200035c5780620003478882620001c8565b84526020840193505060208101905062000331565b5050509392505050565b600082601f8301126200037e576200037d62000224565b5b815162000390848260208601620002f2565b91505092915050565b600080600060608486031215620003b557620003b462000170565b5b6000620003c586828701620001c8565b9350506020620003d8868287016200020d565b925050604084015167ffffffffffffffff811115620003fc57620003fb62000175565b5b6200040a8682870162000366565b9150509250925092565b7f4e487b7100000000000000000000000000000000000000000000000000000000600052603260045260246000fd5b7f4e487b7100000000000000000000000000000000000000000000000000000000600052601160045260246000fd5b6000819050919050565b6000620004898262000472565b91507fffffffffffffffffffffffffffffffffffffffffffffffffffffffffffffffff821415620004bf57620004be62000443565b5b600182019050919050565b61205c80620004da6000396000f3fe6080604052600436106100595760003560e01c80635d2c555914610065578063607b463a1461008e578063704b6c02146100b75780639c82f2a4146100e0578063a94352a314610109578063dbbec5931461013257610060565b3661006057005b600080fd5b34801561007157600080fd5b5061008c60048036038101906100879190611270565b61015b565b005b34801561009a57600080fd5b506100b560048036038101906100b09190611270565b610244565b005b3480156100c357600080fd5b506100de60048036038101906100d99190611270565b6103b4565b005b3480156100ec57600080fd5b50610107600480360381019061010291906112db565b610485565b005b34801561011557600080fd5b50610130600480360381019061012b9190611270565b610557565b005b34801561013e57600080fd5b5061015960048036038101906101549190611648565b610640565b005b60008054906101000a900473ffffffffffffffffffffffffffffffffffffffff1673ffffffffffffffffffffffffffffffffffffffff163373ffffffffffffffffffffffffffffffffffffffff16146101e9576040517f08c379a00000000000000000000000000000000000000000000000000000000081526004016101e0906116ee565b60405180910390fd5b6000600360008373ffffffffffffffffffffffffffffffffffffffff1673ffffffffffffffffffffffffffffffffffffffff16815260200190815260200160002060006101000a81548160ff02191690831515021790555050565b60008054906101000a900473ffffffffffffffffffffffffffffffffffffffff1673ffffffffffffffffffffffffffffffffffffffff163373ffffffffffffffffffffffffffffffffffffffff16146102d2576040517f08c379a00000000000000000000000000000000000000000000000000000000081526004016102c9906116ee565b60405180910390fd5b600081905060008173ffffffffffffffffffffffffffffffffffffffff166370a08231306040518263ffffffff1660e01b8152600401610312919061171d565b60206040518083038186803b15801561032a57600080fd5b505afa15801561033e573d6000803e3d6000fd5b505050506040513d601f19601f82011682018060405250810190610362919061174d565b90506103af60008054906101000a900473ffffffffffffffffffffffffffffffffffffffff16828473ffffffffffffffffffffffffffffffffffffffff16610e0b9092919063ffffffff16565b505050565b60008054906101000a900473ffffffffffffffffffffffffffffffffffffffff1673ffffffffffffffffffffffffffffffffffffffff163373ffffffffffffffffffffffffffffffffffffffff1614610442576040517f08c379a0000000000000000000000000000000000000000000000000000000008152600401610439906116ee565b60405180910390fd5b806000806101000a81548173ffffffffffffffffffffffffffffffffffffffff021916908373ffffffffffffffffffffffffffffffffffffffff16021790555050565b60008054906101000a900473ffffffffffffffffffffffffffffffffffffffff1673ffffffffffffffffffffffffffffffffffffffff163373ffffffffffffffffffffffffffffffffffffffff1614610513576040517f08c379a000000000000000000000000000000000000000000000000000000000815260040161050a906116ee565b60405180910390fd5b80600260006101000a81548173ffffffffffffffffffffffffffffffffffffffff021916908373ffffffffffffffffffffffffffffffffffffffff16021790555050565b60008054906101000a900473ffffffffffffffffffffffffffffffffffffffff1673ffffffffffffffffffffffffffffffffffffffff163373ffffffffffffffffffffffffffffffffffffffff16146105e5576040517f08c379a00000000000000000000000000000000000000000000000000000000081526004016105dc906116ee565b60405180910390fd5b6001600360008373ffffffffffffffffffffffffffffffffffffffff1673ffffffffffffffffffffffffffffffffffffffff16815260200190815260200160002060006101000a81548160ff02191690831515021790555050565b600081604001519050600082606001519050610683333085608001518573ffffffffffffffffffffffffffffffffffffffff16610e91909392919063ffffffff16565b8173ffffffffffffffffffffffffffffffffffffffff1663095ea7b38460000151606486608001516106b591906117a9565b6040518363ffffffff1660e01b81526004016106d2929190611812565b602060405180830381600087803b1580156106ec57600080fd5b505af1158015610700573d6000803e3d6000fd5b505050506040513d601f19601f820116820180604052508101906107249190611873565b506000836020015173ffffffffffffffffffffffffffffffffffffffff1663b3596f0785604001516040518263ffffffff1660e01b8152600401610768919061171d565b60206040518083038186803b15801561078057600080fd5b505afa158015610794573d6000803e3d6000fd5b505050506040513d601f19601f820116820180604052508101906107b8919061174d565b90506000846020015173ffffffffffffffffffffffffffffffffffffffff1663b3596f0786606001516040518263ffffffff1660e01b81526004016107fd919061171d565b60206040518083038186803b15801561081557600080fd5b505afa158015610829573d6000803e3d6000fd5b505050506040513d601f19601f8201168201806040525081019061084d919061174d565b905060008060008061088e620f42406108808b6101000151600a61087191906119d3565b89610f1a90919063ffffffff16565b610f1a90919063ffffffff16565b905060006108cb8a60c001516108bd8c60e00151600a6108ae91906119d3565b89610f1a90919063ffffffff16565b610f1a90919063ffffffff16565b905060005b8a6101400151811015610ca4578973ffffffffffffffffffffffffffffffffffffffff166370a08231306040518263ffffffff1660e01b8152600401610916919061171d565b60206040518083038186803b15801561092e57600080fd5b505afa158015610942573d6000803e3d6000fd5b505050506040513d601f19601f82011682018060405250810190610966919061174d565b955061098d8261097f8589610f1a90919063ffffffff16565b610f9590919063ffffffff16565b9450858461099b9190611a1e565b93508a6000015173ffffffffffffffffffffffffffffffffffffffff1663e8eda9df8c60400151883360006040518563ffffffff1660e01b81526004016109e59493929190611ac7565b600060405180830381600087803b1580156109ff57600080fd5b505af1158015610a13573d6000803e3d6000fd5b505050508a6000015173ffffffffffffffffffffffffffffffffffffffff1663a415bcad8c60600151878e61012001516000336040518663ffffffff1660e01b8152600401610a66959493929190611b0c565b600060405180830381600087803b158015610a8057600080fd5b505af1158015610a94573d6000803e3d6000fd5b5050505060008973ffffffffffffffffffffffffffffffffffffffff166370a08231306040518263ffffffff1660e01b8152600401610ad3919061171d565b60206040518083038186803b158015610aeb57600080fd5b505afa158015610aff573d6000803e3d6000fd5b505050506040513d601f19601f82011682018060405250810190610b23919061174d565b90508973ffffffffffffffffffffffffffffffffffffffff1663a9059cbb600260009054906101000a900473ffffffffffffffffffffffffffffffffffffffff16836040518363ffffffff1660e01b8152600401610b82929190611812565b602060405180830381600087803b158015610b9c57600080fd5b505af1158015610bb0573d6000803e3d6000fd5b505050506040513d601f19601f82011682018060405250810190610bd49190611873565b50600260009054906101000a900473ffffffffffffffffffffffffffffffffffffffff1673ffffffffffffffffffffffffffffffffffffffff16636df0e4a8828e61016001518f604001516040518463ffffffff1660e01b8152600401610c3d93929190611be7565b602060405180830381600087803b158015610c5757600080fd5b505af1158015610c6b573d6000803e3d6000fd5b505050506040513d601f19601f82011682018060405250810190610c8f919061174d565b50508080610c9c90611c25565b9150506108d0565b508873ffffffffffffffffffffffffffffffffffffffff166370a08231306040518263ffffffff1660e01b8152600401610cde919061171d565b60206040518083038186803b158015610cf657600080fd5b505afa158015610d0a573d6000803e3d6000fd5b505050506040513d601f19601f82011682018060405250810190610d2e919061174d565b94508483610d3c9190611a1e565b9250896000015173ffffffffffffffffffffffffffffffffffffffff1663e8eda9df8b60400151873360006040518563ffffffff1660e01b8152600401610d869493929190611ac7565b600060405180830381600087803b158015610da057600080fd5b505af1158015610db4573d6000803e3d6000fd5b505050508960a00151831015610dff576040517f08c379a0000000000000000000000000000000000000000000000000000000008152600401610df690611cba565b60405180910390fd5b50505050505050505050565b610e8c8363a9059cbb60e01b8484604051602401610e2a929190611812565b604051602081830303815290604052907bffffffffffffffffffffffffffffffffffffffffffffffffffffffff19166020820180517bffffffffffffffffffffffffffffffffffffffffffffffffffffffff8381831617835250505050610fdf565b505050565b610f14846323b872dd60e01b858585604051602401610eb293929190611cda565b604051602081830303815290604052907bffffffffffffffffffffffffffffffffffffffffffffffffffffffff19166020820180517bffffffffffffffffffffffffffffffffffffffffffffffffffffffff8381831617835250505050610fdf565b50505050565b600080831415610f2d5760009050610f8f565b60008284610f3b91906117a9565b9050828482610f4a9190611d40565b14610f8a576040517f08c379a0000000000000000000000000000000000000000000000000000000008152600401610f8190611de3565b60405180910390fd5b809150505b92915050565b6000610fd783836040518060400160405280601a81526020017f536166654d6174683a206469766973696f6e206279207a65726f000000000000815250611150565b905092915050565b610ffe8273ffffffffffffffffffffffffffffffffffffffff166111b3565b61103d576040517f08c379a000000000000000000000000000000000000000000000000000000000815260040161103490611e4f565b60405180910390fd5b6000808373ffffffffffffffffffffffffffffffffffffffff16836040516110659190611eab565b6000604051808303816000865af19150503d80600081146110a2576040519150601f19603f3d011682016040523d82523d6000602084013e6110a7565b606091505b5091509150816110ec576040517f08c379a00000000000000000000000000000000000000000000000000000000081526004016110e390611f0e565b60405180910390fd5b60008151111561114a578080602001905181019061110a9190611873565b611149576040517f08c379a000000000000000000000000000000000000000000000000000000000815260040161114090611fa0565b60405180910390fd5b5b50505050565b60008083118290611197576040517f08c379a000000000000000000000000000000000000000000000000000000000815260040161118e9190612004565b60405180910390fd5b50600083856111a69190611d40565b9050809150509392505050565b60008060007fc5d2460186f7233c927e7db2dcc703c0e500b653ca82273b7bfad8045d85a47060001b9050833f91508082141580156111f557506000801b8214155b92505050919050565b6000604051905090565b600080fd5b600080fd5b600073ffffffffffffffffffffffffffffffffffffffff82169050919050565b600061123d82611212565b9050919050565b61124d81611232565b811461125857600080fd5b50565b60008135905061126a81611244565b92915050565b60006020828403121561128657611285611208565b5b60006112948482850161125b565b91505092915050565b60006112a882611212565b9050919050565b6112b88161129d565b81146112c357600080fd5b50565b6000813590506112d5816112af565b92915050565b6000602082840312156112f1576112f0611208565b5b60006112ff848285016112c6565b91505092915050565b600080fd5b6000601f19601f8301169050919050565b7f4e487b7100000000000000000000000000000000000000000000000000000000600052604160045260246000fd5b6113568261130d565b810181811067ffffffffffffffff821117156113755761137461131e565b5b80604052505050565b60006113886111fe565b9050611394828261134d565b919050565b600080fd5b60006113a982611232565b9050919050565b6113b98161139e565b81146113c457600080fd5b50565b6000813590506113d6816113b0565b92915050565b60006113e782611232565b9050919050565b6113f7816113dc565b811461140257600080fd5b50565b600081359050611414816113ee565b92915050565b6000819050919050565b61142d8161141a565b811461143857600080fd5b50565b60008135905061144a81611424565b92915050565b600080fd5b600080fd5b600067ffffffffffffffff8211156114755761147461131e565b5b61147e8261130d565b9050602081019050919050565b82818337600083830152505050565b60006114ad6114a88461145a565b61137e565b9050828152602081018484840111156114c9576114c8611455565b5b6114d484828561148b565b509392505050565b600082601f8301126114f1576114f0611450565b5b813561150184826020860161149a565b91505092915050565b6000610180828403121561152157611520611308565b5b61152c61018061137e565b9050600061153c848285016113c7565b600083015250602061155084828501611405565b60208301525060406115648482850161125b565b60408301525060606115788482850161125b565b606083015250608061158c8482850161143b565b60808301525060a06115a08482850161143b565b60a08301525060c06115b48482850161143b565b60c08301525060e06115c88482850161143b565b60e0830152506101006115dd8482850161143b565b610100830152506101206115f38482850161143b565b610120830152506101406116098482850161143b565b6101408301525061016082013567ffffffffffffffff81111561162f5761162e611399565b5b61163b848285016114dc565b6101608301525092915050565b60006020828403121561165e5761165d611208565b5b600082013567ffffffffffffffff81111561167c5761167b61120d565b5b6116888482850161150a565b91505092915050565b600082825260208201905092915050565b7f6e6f742061646d696e0000000000000000000000000000000000000000000000600082015250565b60006116d8600983611691565b91506116e3826116a2565b602082019050919050565b60006020820190508181036000830152611707816116cb565b9050919050565b61171781611232565b82525050565b6000602082019050611732600083018461170e565b92915050565b60008151905061174781611424565b92915050565b60006020828403121561176357611762611208565b5b600061177184828501611738565b91505092915050565b7f4e487b7100000000000000000000000000000000000000000000000000000000600052601160045260246000fd5b60006117b48261141a565b91506117bf8361141a565b9250817fffffffffffffffffffffffffffffffffffffffffffffffffffffffffffffffff04831182151516156117f8576117f761177a565b5b828202905092915050565b61180c8161141a565b82525050565b6000604082019050611827600083018561170e565b6118346020830184611803565b9392505050565b60008115159050919050565b6118508161183b565b811461185b57600080fd5b50565b60008151905061186d81611847565b92915050565b60006020828403121561188957611888611208565b5b60006118978482850161185e565b91505092915050565b60008160011c9050919050565b6000808291508390505b60018511156118f7578086048111156118d3576118d261177a565b5b60018516156118e25780820291505b80810290506118f0856118a0565b94506118b7565b94509492505050565b60008261191057600190506119cc565b8161191e57600090506119cc565b8160018114611934576002811461193e5761196d565b60019150506119cc565b60ff8411156119505761194f61177a565b5b8360020a9150848211156119675761196661177a565b5b506119cc565b5060208310610133831016604e8410600b84101617156119a25782820a90508381111561199d5761199c61177a565b5b6119cc565b6119af84848460016118ad565b925090508184048111156119c6576119c561177a565b5b81810290505b9392505050565b60006119de8261141a565b91506119e98361141a565b9250611a167fffffffffffffffffffffffffffffffffffffffffffffffffffffffffffffffff8484611900565b905092915050565b6000611a298261141a565b9150611a348361141a565b9250827fffffffffffffffffffffffffffffffffffffffffffffffffffffffffffffffff03821115611a6957611a6861177a565b5b828201905092915050565b6000819050919050565b600061ffff82169050919050565b6000819050919050565b6000611ab1611aac611aa784611a74565b611a8c565b611a7e565b9050919050565b611ac181611a96565b82525050565b6000608082019050611adc600083018761170e565b611ae96020830186611803565b611af6604083018561170e565b611b036060830184611ab8565b95945050505050565b600060a082019050611b21600083018861170e565b611b2e6020830187611803565b611b3b6040830186611803565b611b486060830185611ab8565b611b55608083018461170e565b9695505050505050565b600081519050919050565b600082825260208201905092915050565b60005b83811015611b99578082015181840152602081019050611b7e565b83811115611ba8576000848401525b50505050565b6000611bb982611b5f565b611bc38185611b6a565b9350611bd3818560208601611b7b565b611bdc8161130d565b840191505092915050565b6000606082019050611bfc6000830186611803565b8181036020830152611c0e8185611bae565b9050611c1d604083018461170e565b949350505050565b6000611c308261141a565b91507fffffffffffffffffffffffffffffffffffffffffffffffffffffffffffffffff821415611c6357611c6261177a565b5b600182019050919050565b7f4c65766572616765206661696c65640000000000000000000000000000000000600082015250565b6000611ca4600f83611691565b9150611caf82611c6e565b602082019050919050565b60006020820190508181036000830152611cd381611c97565b9050919050565b6000606082019050611cef600083018661170e565b611cfc602083018561170e565b611d096040830184611803565b949350505050565b7f4e487b7100000000000000000000000000000000000000000000000000000000600052601260045260246000fd5b6000611d4b8261141a565b9150611d568361141a565b925082611d6657611d65611d11565b5b828204905092915050565b7f536166654d6174683a206d756c7469706c69636174696f6e206f766572666c6f60008201527f7700000000000000000000000000000000000000000000000000000000000000602082015250565b6000611dcd602183611691565b9150611dd882611d71565b604082019050919050565b60006020820190508181036000830152611dfc81611dc0565b9050919050565b7f5361666545524332303a2063616c6c20746f206e6f6e2d636f6e747261637400600082015250565b6000611e39601f83611691565b9150611e4482611e03565b602082019050919050565b60006020820190508181036000830152611e6881611e2c565b9050919050565b600081905092915050565b6000611e8582611b5f565b611e8f8185611e6f565b9350611e9f818560208601611b7b565b80840191505092915050565b6000611eb78284611e7a565b915081905092915050565b7f5361666545524332303a206c6f772d6c6576656c2063616c6c206661696c6564600082015250565b6000611ef8602083611691565b9150611f0382611ec2565b602082019050919050565b60006020820190508181036000830152611f2781611eeb565b9050919050565b7f5361666545524332303a204552433230206f7065726174696f6e20646964206e60008201527f6f74207375636365656400000000000000000000000000000000000000000000602082015250565b6000611f8a602a83611691565b9150611f9582611f2e565b604082019050919050565b60006020820190508181036000830152611fb981611f7d565b9050919050565b600081519050919050565b6000611fd682611fc0565b611fe08185611691565b9350611ff0818560208601611b7b565b611ff98161130d565b840191505092915050565b6000602082019050818103600083015261201e8184611fcb565b90509291505056fea2646970667358221220fa904fcfd8dfebba9f81dcf06913b204b55ebcd0a9948efaf3b4fd56339aa01564736f6c63430008090033",
  "linkReferences": {},
  "deployedLinkReferences": {}
}