{
  "_format": "hh-sol-artifact-1",
  "contractName": "Swap",
  "sourceName": "contracts/Swap.sol",
  "abi": [
    {
      "inputs": [
        {
          "internalType": "address",
          "name": "_WETH",
          "type": "address"
        }
      ],
      "stateMutability": "nonpayable",
      "type": "constructor"
    },
    {
      "inputs": [
        {
          "internalType": "bytes",
          "name": "data",
          "type": "bytes"
        }
      ],
      "name": "aTokens",
      "outputs": [
        {
          "internalType": "uint256",
          "name": "",
          "type": "uint256"
        }
      ],
      "stateMutability": "nonpayable",
      "type": "function"
    },
    {
      "inputs": [
        {
          "internalType": "bytes",
          "name": "data",
          "type": "bytes"
        }
      ],
      "name": "curve3poolRedeem",
      "outputs": [
        {
          "internalType": "uint256",
          "name": "",
          "type": "uint256"
        }
      ],
      "stateMutability": "nonpayable",
      "type": "function"
    },
    {
      "inputs": [
        {
          "internalType": "bytes",
          "name": "data",
          "type": "bytes"
        }
      ],
      "name": "curve3poolRedeem2",
      "outputs": [
        {
          "internalType": "uint256",
          "name": "",
          "type": "uint256"
        }
      ],
      "stateMutability": "nonpayable",
      "type": "function"
    },
    {
      "inputs": [
        {
          "internalType": "bytes",
          "name": "data",
          "type": "bytes"
        }
      ],
      "name": "curveSwap",
      "outputs": [
        {
          "internalType": "uint256",
          "name": "",
          "type": "uint256"
        }
      ],
      "stateMutability": "nonpayable",
      "type": "function"
    },
    {
      "inputs": [
        {
          "internalType": "bytes",
          "name": "data",
          "type": "bytes"
        }
      ],
      "name": "curveSwap2",
      "outputs": [
        {
          "internalType": "uint256",
          "name": "",
          "type": "uint256"
        }
      ],
      "stateMutability": "nonpayable",
      "type": "function"
    },
    {
      "inputs": [
        {
          "internalType": "bytes",
          "name": "data",
          "type": "bytes"
        }
      ],
      "name": "curveSwapETH",
      "outputs": [
        {
          "internalType": "uint256",
          "name": "",
          "type": "uint256"
        }
      ],
      "stateMutability": "nonpayable",
      "type": "function"
    },
    {
      "inputs": [
        {
          "internalType": "bytes",
          "name": "data",
          "type": "bytes"
        }
      ],
      "name": "curveSwapETH2",
      "outputs": [
        {
          "internalType": "uint256",
          "name": "",
          "type": "uint256"
        }
      ],
      "stateMutability": "nonpayable",
      "type": "function"
    },
    {
      "inputs": [
        {
          "internalType": "address",
          "name": "pool",
          "type": "address"
        },
        {
          "internalType": "address",
          "name": "tokenIn",
          "type": "address"
        },
        {
          "internalType": "uint8",
          "name": "i",
          "type": "uint8"
        }
      ],
      "name": "encode4PoolRedeem",
      "outputs": [
        {
          "internalType": "bytes",
          "name": "data",
          "type": "bytes"
        }
      ],
      "stateMutability": "pure",
      "type": "function"
    },
    {
      "inputs": [
        {
          "internalType": "address",
          "name": "pool",
          "type": "address"
        },
        {
          "internalType": "address",
          "name": "tokenIn",
          "type": "address"
        },
        {
          "internalType": "uint8",
          "name": "i",
          "type": "uint8"
        },
        {
          "internalType": "uint8",
          "name": "j",
          "type": "uint8"
        }
      ],
      "name": "encode4PoolSwap",
      "outputs": [
        {
          "internalType": "bytes",
          "name": "data",
          "type": "bytes"
        }
      ],
      "stateMutability": "pure",
      "type": "function"
    },
    {
      "inputs": [
        {
          "internalType": "address",
          "name": "pool",
          "type": "address"
        },
        {
          "internalType": "address",
          "name": "tokenIn",
          "type": "address"
        },
        {
          "internalType": "uint256",
          "name": "code",
          "type": "uint256"
        }
      ],
      "name": "encodeATokens",
      "outputs": [
        {
          "internalType": "bytes",
          "name": "data",
          "type": "bytes"
        }
      ],
      "stateMutability": "pure",
      "type": "function"
    },
    {
      "inputs": [
        {
          "internalType": "address",
          "name": "pool",
          "type": "address"
        },
        {
          "internalType": "address",
          "name": "tokenIn",
          "type": "address"
        },
        {
          "internalType": "int128",
          "name": "i",
          "type": "int128"
        }
      ],
      "name": "encodeCurve3PoolRedeem",
      "outputs": [
        {
          "internalType": "bytes",
          "name": "data",
          "type": "bytes"
        }
      ],
      "stateMutability": "pure",
      "type": "function"
    },
    {
      "inputs": [
        {
          "internalType": "address",
          "name": "pool",
          "type": "address"
        },
        {
          "internalType": "address",
          "name": "tokenIn",
          "type": "address"
        },
        {
          "internalType": "uint256",
          "name": "i",
          "type": "uint256"
        }
      ],
      "name": "encodeCurve3PoolRedeem2",
      "outputs": [
        {
          "internalType": "bytes",
          "name": "data",
          "type": "bytes"
        }
      ],
      "stateMutability": "pure",
      "type": "function"
    },
    {
      "inputs": [
        {
          "internalType": "address",
          "name": "pool",
          "type": "address"
        },
        {
          "internalType": "address",
          "name": "tokenIn",
          "type": "address"
        },
        {
          "internalType": "int128",
          "name": "i",
          "type": "int128"
        },
        {
          "internalType": "int128",
          "name": "j",
          "type": "int128"
        }
      ],
      "name": "encodeCurveSwap",
      "outputs": [
        {
          "internalType": "bytes",
          "name": "data",
          "type": "bytes"
        }
      ],
      "stateMutability": "pure",
      "type": "function"
    },
    {
      "inputs": [
        {
          "internalType": "address",
          "name": "pool",
          "type": "address"
        },
        {
          "internalType": "address",
          "name": "tokenIn",
          "type": "address"
        },
        {
          "internalType": "uint256",
          "name": "i",
          "type": "uint256"
        },
        {
          "internalType": "uint256",
          "name": "j",
          "type": "uint256"
        }
      ],
      "name": "encodeCurveSwap2",
      "outputs": [
        {
          "internalType": "bytes",
          "name": "data",
          "type": "bytes"
        }
      ],
      "stateMutability": "pure",
      "type": "function"
    },
    {
      "inputs": [
        {
          "internalType": "address",
          "name": "pool",
          "type": "address"
        },
        {
          "internalType": "address",
          "name": "tokenIn",
          "type": "address"
        },
        {
          "internalType": "int128",
          "name": "i",
          "type": "int128"
        },
        {
          "internalType": "int128",
          "name": "j",
          "type": "int128"
        }
      ],
      "name": "encodeCurveSwapETH",
      "outputs": [
        {
          "internalType": "bytes",
          "name": "data",
          "type": "bytes"
        }
      ],
      "stateMutability": "pure",
      "type": "function"
    },
    {
      "inputs": [
        {
          "internalType": "address",
          "name": "pool",
          "type": "address"
        },
        {
          "internalType": "address",
          "name": "tokenIn",
          "type": "address"
        },
        {
          "internalType": "uint256",
          "name": "i",
          "type": "uint256"
        },
        {
          "internalType": "uint256",
          "name": "j",
          "type": "uint256"
        }
      ],
      "name": "encodeCurveSwapETH2",
      "outputs": [
        {
          "internalType": "bytes",
          "name": "data",
          "type": "bytes"
        }
      ],
      "stateMutability": "pure",
      "type": "function"
    },
    {
      "inputs": [
        {
          "internalType": "address",
          "name": "pool",
          "type": "address"
        },
        {
          "internalType": "address",
          "name": "tokenIn",
          "type": "address"
        },
        {
          "internalType": "bool",
          "name": "isToken0",
          "type": "bool"
        }
      ],
      "name": "encodeV2Swap",
      "outputs": [
        {
          "internalType": "bytes",
          "name": "data",
          "type": "bytes"
        }
      ],
      "stateMutability": "pure",
      "type": "function"
    },
    {
      "inputs": [
        {
          "internalType": "address",
          "name": "router",
          "type": "address"
        },
        {
          "internalType": "address",
          "name": "tokenIn",
          "type": "address"
        },
        {
          "internalType": "address",
          "name": "tokenOut",
          "type": "address"
        },
        {
          "internalType": "uint24",
          "name": "fee",
          "type": "uint24"
        }
      ],
      "name": "encodeV3Swap",
      "outputs": [
        {
          "internalType": "bytes",
          "name": "data",
          "type": "bytes"
        }
      ],
      "stateMutability": "pure",
      "type": "function"
    },
    {
      "inputs": [
        {
          "internalType": "uint256",
          "name": "amountOut",
          "type": "uint256"
        },
        {
          "internalType": "uint256",
          "name": "reserveIn",
          "type": "uint256"
        },
        {
          "internalType": "uint256",
          "name": "reserveOut",
          "type": "uint256"
        }
      ],
      "name": "getAmountIn",
      "outputs": [
        {
          "internalType": "uint256",
          "name": "amountIn",
          "type": "uint256"
        }
      ],
      "stateMutability": "pure",
      "type": "function"
    },
    {
      "inputs": [
        {
          "internalType": "bytes",
          "name": "data",
          "type": "bytes"
        }
      ],
      "name": "getLength",
      "outputs": [
        {
          "internalType": "uint256",
          "name": "",
          "type": "uint256"
        }
      ],
      "stateMutability": "pure",
      "type": "function"
    },
    {
      "inputs": [
        {
          "internalType": "address",
          "name": "_pair",
          "type": "address"
        },
        {
          "internalType": "bool",
          "name": "isToken0",
          "type": "bool"
        },
        {
          "internalType": "uint256",
          "name": "amountIn",
          "type": "uint256"
        }
      ],
      "name": "getV2AmountOut",
      "outputs": [
        {
          "internalType": "uint256",
          "name": "amountOut",
          "type": "uint256"
        }
      ],
      "stateMutability": "view",
      "type": "function"
    },
    {
      "inputs": [
        {
          "internalType": "address",
          "name": "_pair",
          "type": "address"
        },
        {
          "internalType": "bool",
          "name": "isToken0",
          "type": "bool"
        },
        {
          "internalType": "uint256",
          "name": "amountIn",
          "type": "uint256"
        }
      ],
      "name": "getV2AmountOutWithReserves",
      "outputs": [
        {
          "internalType": "uint256",
          "name": "",
          "type": "uint256"
        },
        {
          "internalType": "uint256",
          "name": "",
          "type": "uint256"
        },
        {
          "internalType": "uint256",
          "name": "",
          "type": "uint256"
        }
      ],
      "stateMutability": "view",
      "type": "function"
    },
    {
      "inputs": [
        {
          "internalType": "bytes",
          "name": "data",
          "type": "bytes"
        }
      ],
      "name": "r4PoolRedeem",
      "outputs": [
        {
          "internalType": "uint256",
          "name": "",
          "type": "uint256"
        }
      ],
      "stateMutability": "nonpayable",
      "type": "function"
    },
    {
      "inputs": [
        {
          "internalType": "bytes",
          "name": "data",
          "type": "bytes"
        }
      ],
      "name": "r4PoolSwap",
      "outputs": [
        {
          "internalType": "uint256",
          "name": "",
          "type": "uint256"
        }
      ],
      "stateMutability": "nonpayable",
      "type": "function"
    },
    {
      "inputs": [
        {
          "internalType": "uint256",
          "name": "amountIn",
          "type": "uint256"
        },
        {
          "internalType": "bytes",
          "name": "data",
          "type": "bytes"
        },
        {
          "internalType": "address",
          "name": "_tokenOut",
          "type": "address"
        }
      ],
      "name": "swap",
      "outputs": [
        {
          "internalType": "uint256",
          "name": "",
          "type": "uint256"
        }
      ],
      "stateMutability": "nonpayable",
      "type": "function"
    },
    {
      "inputs": [
        {
          "internalType": "bytes",
          "name": "data",
          "type": "bytes"
        }
      ],
      "name": "v2swap",
      "outputs": [
        {
          "internalType": "uint256",
          "name": "",
          "type": "uint256"
        }
      ],
      "stateMutability": "nonpayable",
      "type": "function"
    },
    {
      "inputs": [
        {
          "internalType": "bytes",
          "name": "data",
          "type": "bytes"
        }
      ],
      "name": "v3Swap",
      "outputs": [
        {
          "internalType": "uint256",
          "name": "",
          "type": "uint256"
        }
      ],
      "stateMutability": "nonpayable",
      "type": "function"
    },
    {
      "stateMutability": "payable",
      "type": "receive"
    }
  ],
  "bytecode": "0x60806040523480156200001157600080fd5b5060405162004b1c38038062004b1c8339818101604052810190620000379190620000e8565b806000806101000a81548173ffffffffffffffffffffffffffffffffffffffff021916908373ffffffffffffffffffffffffffffffffffffffff160217905550506200011a565b600080fd5b600073ffffffffffffffffffffffffffffffffffffffff82169050919050565b6000620000b08262000083565b9050919050565b620000c281620000a3565b8114620000ce57600080fd5b50565b600081519050620000e281620000b7565b92915050565b6000602082840312156200010157620001006200007e565b5b60006200011184828501620000d1565b91505092915050565b6149f2806200012a6000396000f3fe6080604052600436106101a05760003560e01c8063721b40b2116100ec578063bacfb83b1161008a578063ce88928111610064578063ce889281146107aa578063cf8495c4146107e7578063d111822a14610824578063e48445961461086157610228565b8063bacfb83b146106f3578063c0e915f114610730578063c26a07111461076d57610228565b80638c097b86116100c65780638c097b86146105fd5780638e3575dc1461063a5780639739c1f414610677578063a0c8cfbd146106b657610228565b8063721b40b21461054657806382eee69d1461058357806385f8c259146105c057610228565b80635a17a7cc11610159578063657731421161013357806365773142146104525780636cc79f301461048f5780636df0e4a8146104cc57806370afe4a61461050957610228565b80635a17a7cc1461039b5780636114ceca146103d85780636503d91c1461041557610228565b80630cb9a5861461022d5780631057aef11461026a5780631a3b3343146102a75780632c0e83e9146102e457806331c9a7d71461032157806337d23ca91461035e57610228565b366102285760008054906101000a900473ffffffffffffffffffffffffffffffffffffffff1673ffffffffffffffffffffffffffffffffffffffff1663d0e30db0346040518263ffffffff1660e01b81526004016000604051808303818588803b15801561020d57600080fd5b505af1158015610221573d6000803e3d6000fd5b5050505050005b600080fd5b34801561023957600080fd5b50610254600480360381019061024f9190613172565b61089e565b60405161026191906131d4565b60405180910390f35b34801561027657600080fd5b50610291600480360381019061028c91906132b1565b610a72565b60405161029e91906131d4565b60405180910390f35b3480156102b357600080fd5b506102ce60048036038101906102c99190613172565b610b61565b6040516102db91906131d4565b60405180910390f35b3480156102f057600080fd5b5061030b6004803603810190610306919061333d565b610c55565b604051610318919061342c565b60405180910390f35b34801561032d57600080fd5b506103486004803603810190610343919061344e565b610d4f565b604051610355919061342c565b60405180910390f35b34801561036a57600080fd5b5061038560048036038101906103809190613172565b610e49565b60405161039291906131d4565b60405180910390f35b3480156103a757600080fd5b506103c260048036038101906103bd9190613172565b611014565b6040516103cf91906131d4565b60405180910390f35b3480156103e457600080fd5b506103ff60048036038101906103fa9190613172565b6111e6565b60405161040c91906131d4565b60405180910390f35b34801561042157600080fd5b5061043c600480360381019061043791906134b5565b6111f1565b604051610449919061342c565b60405180910390f35b34801561045e57600080fd5b5061047960048036038101906104749190613172565b6112e8565b60405161048691906131d4565b60405180910390f35b34801561049b57600080fd5b506104b660048036038101906104b1919061344e565b6114b1565b6040516104c3919061342c565b60405180910390f35b3480156104d857600080fd5b506104f360048036038101906104ee9190613508565b6115ab565b60405161050091906131d4565b60405180910390f35b34801561051557600080fd5b50610530600480360381019061052b91906135b0565b611836565b60405161053d919061342c565b60405180910390f35b34801561055257600080fd5b5061056d60048036038101906105689190613172565b61192d565b60405161057a91906131d4565b60405180910390f35b34801561058f57600080fd5b506105aa60048036038101906105a5919061363e565b611aff565b6040516105b7919061342c565b60405180910390f35b3480156105cc57600080fd5b506105e760048036038101906105e291906136a5565b611bf9565b6040516105f491906131d4565b60405180910390f35b34801561060957600080fd5b50610624600480360381019061061f9190613172565b611c1a565b60405161063191906131d4565b60405180910390f35b34801561064657600080fd5b50610661600480360381019061065c9190613172565b611efe565b60405161066e91906131d4565b60405180910390f35b34801561068357600080fd5b5061069e600480360381019061069991906132b1565b6120d0565b6040516106ad939291906136f8565b60405180910390f35b3480156106c257600080fd5b506106dd60048036038101906106d8919061372f565b6121d0565b6040516106ea919061342c565b60405180910390f35b3480156106ff57600080fd5b5061071a60048036038101906107159190613796565b6122ca565b604051610727919061342c565b60405180910390f35b34801561073c57600080fd5b506107576004803603810190610752919061333d565b6123c1565b604051610764919061342c565b60405180910390f35b34801561077957600080fd5b50610794600480360381019061078f91906134b5565b6124bb565b6040516107a1919061342c565b60405180910390f35b3480156107b657600080fd5b506107d160048036038101906107cc9190613172565b6125b2565b6040516107de91906131d4565b60405180910390f35b3480156107f357600080fd5b5061080e60048036038101906108099190613172565b61277b565b60405161081b91906131d4565b60405180910390f35b34801561083057600080fd5b5061084b600480360381019061084691906137e9565b61294d565b604051610858919061342c565b60405180910390f35b34801561086d57600080fd5b5061088860048036038101906108839190613172565b612a44565b60405161089591906131d4565b60405180910390f35b600080600080600080868060200190518101906108bb91906138a4565b9450945094509450945060008573ffffffffffffffffffffffffffffffffffffffff1663a95b089f8585856040518463ffffffff1660e01b81526004016109049392919061392e565b60206040518083038186803b15801561091c57600080fd5b505afa158015610930573d6000803e3d6000fd5b505050506040513d601f19601f820116820180604052508101906109549190613965565b90508473ffffffffffffffffffffffffffffffffffffffff1663095ea7b387846040518363ffffffff1660e01b81526004016109919291906139a1565b602060405180830381600087803b1580156109ab57600080fd5b505af11580156109bf573d6000803e3d6000fd5b505050506040513d601f19601f820116820180604052508101906109e391906139df565b508573ffffffffffffffffffffffffffffffffffffffff1663916955868585856000426040518663ffffffff1660e01b8152600401610a26959493929190613a51565b600060405180830381600087803b158015610a4057600080fd5b505af1158015610a54573d6000803e3d6000fd5b50505050600a81610a659190613ad3565b9650505050505050919050565b6000806000808673ffffffffffffffffffffffffffffffffffffffff16630902f1ac6040518163ffffffff1660e01b815260040160606040518083038186803b158015610abe57600080fd5b505afa158015610ad2573d6000803e3d6000fd5b505050506040513d601f19601f82011682018060405250810190610af69190613b89565b925092509250600086610b095782610b0b565b835b6dffffffffffffffffffffffffffff169050600087610b2a5784610b2c565b835b6dffffffffffffffffffffffffffff1690506103e58702818102816103e8850201808204985050505050505050509392505050565b600080600080600085806020019051810190610b7d9190613bdc565b93509350935093506000610b92858484610a72565b9050610bbf85838673ffffffffffffffffffffffffffffffffffffffff16612c2e9092919063ffffffff16565b8473ffffffffffffffffffffffffffffffffffffffff1663022c0d9f84610be65782610be9565b60005b85610bf5576000610bf7565b835b306040518463ffffffff1660e01b8152600401610c1693929190613c69565b600060405180830381600087803b158015610c3057600080fd5b505af1158015610c44573d6000803e3d6000fd5b505050508095505050505050919050565b60606000858585856000604051602001610c73959493929190613cf3565b604051602081830303815290604052604051602401610c92919061342c565b6040516020818303038152906040527f5a17a7cc000000000000000000000000000000000000000000000000000000007bffffffffffffffffffffffffffffffffffffffffffffffffffffffff19166020820180517bffffffffffffffffffffffffffffffffffffffffffffffffffffffff83818316178352505050509050610d44818251604051602001610d2791906131d4565b604051602081830303815290604052612cb490919063ffffffff16565b915050949350505050565b60606000858585856000604051602001610d6d959493929190613d46565b604051602081830303815290604052604051602401610d8c919061342c565b6040516020818303038152906040527f721b40b2000000000000000000000000000000000000000000000000000000007bffffffffffffffffffffffffffffffffffffffffffffffffffffffff19166020820180517bffffffffffffffffffffffffffffffffffffffffffffffffffffffff83818316178352505050509050610e3e818251604051602001610e2191906131d4565b604051602081830303815290604052612cb490919063ffffffff16565b915050949350505050565b600080600080600085806020019051810190610e659190613d99565b935093509350935060008473ffffffffffffffffffffffffffffffffffffffff1663342a87a183856040518363ffffffff1660e01b8152600401610eaa929190613e00565b60206040518083038186803b158015610ec257600080fd5b505afa158015610ed6573d6000803e3d6000fd5b505050506040513d601f19601f82011682018060405250810190610efa9190613965565b90508373ffffffffffffffffffffffffffffffffffffffff1663095ea7b386846040518363ffffffff1660e01b8152600401610f379291906139a1565b602060405180830381600087803b158015610f5157600080fd5b505af1158015610f65573d6000803e3d6000fd5b505050506040513d601f19601f82011682018060405250810190610f8991906139df565b508473ffffffffffffffffffffffffffffffffffffffff16633e3a1560838584426040518563ffffffff1660e01b8152600401610fc99493929190613e29565b600060405180830381600087803b158015610fe357600080fd5b505af1158015610ff7573d6000803e3d6000fd5b50505050600a816110089190613ad3565b95505050505050919050565b600080600080600080868060200190518101906110319190613e83565b9450945094509450945060008573ffffffffffffffffffffffffffffffffffffffff16635e0d443f8585856040518463ffffffff1660e01b815260040161107a93929190613efe565b60206040518083038186803b15801561109257600080fd5b505afa1580156110a6573d6000803e3d6000fd5b505050506040513d601f19601f820116820180604052508101906110ca9190613965565b90508473ffffffffffffffffffffffffffffffffffffffff1663095ea7b387846040518363ffffffff1660e01b81526004016111079291906139a1565b602060405180830381600087803b15801561112157600080fd5b505af1158015611135573d6000803e3d6000fd5b505050506040513d601f19601f8201168201806040525081019061115991906139df565b508573ffffffffffffffffffffffffffffffffffffffff16633df0212485858560006040518563ffffffff1660e01b815260040161119a9493929190613f35565b600060405180830381600087803b1580156111b457600080fd5b505af11580156111c8573d6000803e3d6000fd5b50505050600a816111d99190613ad3565b9650505050505050919050565b600081519050919050565b60606000848484600060405160200161120d9493929190613f7a565b60405160208183030381529060405260405160240161122c919061342c565b6040516020818303038152906040527f65773142000000000000000000000000000000000000000000000000000000007bffffffffffffffffffffffffffffffffffffffffffffffffffffffff19166020820180517bffffffffffffffffffffffffffffffffffffffffffffffffffffffff838183161783525050505090506112de8182516040516020016112c191906131d4565b604051602081830303815290604052612cb490919063ffffffff16565b9150509392505050565b6000806000806000858060200190518101906113049190613fbf565b93509350935093508273ffffffffffffffffffffffffffffffffffffffff1663095ea7b385836040518363ffffffff1660e01b81526004016113479291906139a1565b602060405180830381600087803b15801561136157600080fd5b505af1158015611375573d6000803e3d6000fd5b505050506040513d601f19601f8201168201806040525081019061139991906139df565b5060008473ffffffffffffffffffffffffffffffffffffffff16634fb08c5e83856040518363ffffffff1660e01b81526004016113d7929190614026565b60206040518083038186803b1580156113ef57600080fd5b505afa158015611403573d6000803e3d6000fd5b505050506040513d601f19601f820116820180604052508101906114279190613965565b90508473ffffffffffffffffffffffffffffffffffffffff1663f1dc3cc98385846040518463ffffffff1660e01b8152600401611466939291906136f8565b600060405180830381600087803b15801561148057600080fd5b505af1158015611494573d6000803e3d6000fd5b50505050600a816114a59190613ad3565b95505050505050919050565b606060008585858560006040516020016114cf959493929190613d46565b6040516020818303038152906040526040516024016114ee919061342c565b6040516020818303038152906040527f8e3575dc000000000000000000000000000000000000000000000000000000007bffffffffffffffffffffffffffffffffffffffffffffffffffffffff19166020820180517bffffffffffffffffffffffffffffffffffffffffffffffffffffffff838183161783525050505090506115a081825160405160200161158391906131d4565b604051602081830303815290604052612cb490919063ffffffff16565b915050949350505050565b6000806115c56000602086612d3e9092919063ffffffff16565b8060200190518101906115d89190613965565b90506000602090506000606060005b8481101561176e576116058460208a612d3e9092919063ffffffff16565b8060200190518101906116189190613965565b925061164760208561162a919061404f565b6020856116379190613ad3565b8a612d3e9092919063ffffffff16565b91506000803073ffffffffffffffffffffffffffffffffffffffff166116958c60405160200161167791906131d4565b60405160208183030381529060405286612cb490919063ffffffff16565b6040516116a291906140e1565b6000604051808303816000865af19150503d80600081146116df576040519150601f19603f3d011682016040523d82523d6000602084013e6116e4565b606091505b509150915081611729576040517f08c379a000000000000000000000000000000000000000000000000000000000815260040161172090614155565b60405180910390fd5b8080602001905181019061173d9190613965565b9a5084602061174c919061404f565b86611757919061404f565b95505050808061176690614175565b9150506115e7565b506000869050611827338273ffffffffffffffffffffffffffffffffffffffff166370a08231306040518263ffffffff1660e01b81526004016117b191906141be565b60206040518083038186803b1580156117c957600080fd5b505afa1580156117dd573d6000803e3d6000fd5b505050506040513d601f19601f820116820180604052508101906118019190613965565b8373ffffffffffffffffffffffffffffffffffffffff16612c2e9092919063ffffffff16565b88955050505050509392505050565b60606000848484600060405160200161185294939291906141d9565b604051602081830303815290604052604051602401611871919061342c565b6040516020818303038152906040527f37d23ca9000000000000000000000000000000000000000000000000000000007bffffffffffffffffffffffffffffffffffffffffffffffffffffffff19166020820180517bffffffffffffffffffffffffffffffffffffffffffffffffffffffff8381831617835250505050905061192381825160405160200161190691906131d4565b604051602081830303815290604052612cb490919063ffffffff16565b9150509392505050565b6000806000806000808680602001905181019061194a919061421e565b945094509450945094508373ffffffffffffffffffffffffffffffffffffffff1663095ea7b386836040518363ffffffff1660e01b815260040161198f9291906139a1565b602060405180830381600087803b1580156119a957600080fd5b505af11580156119bd573d6000803e3d6000fd5b505050506040513d601f19601f820116820180604052508101906119e191906139df565b5060008573ffffffffffffffffffffffffffffffffffffffff1663556d6e9f8585856040518463ffffffff1660e01b8152600401611a21939291906136f8565b60206040518083038186803b158015611a3957600080fd5b505afa158015611a4d573d6000803e3d6000fd5b505050506040513d601f19601f82011682018060405250810190611a719190613965565b90508573ffffffffffffffffffffffffffffffffffffffff16635b41b90885858560006040518563ffffffff1660e01b8152600401611ab39493929190614299565b600060405180830381600087803b158015611acd57600080fd5b505af1158015611ae1573d6000803e3d6000fd5b50505050600a81611af29190613ad3565b9650505050505050919050565b60606000858585856000604051602001611b1d9594939291906142ed565b604051602081830303815290604052604051602401611b3c919061342c565b6040516020818303038152906040527fe4844596000000000000000000000000000000000000000000000000000000007bffffffffffffffffffffffffffffffffffffffffffffffffffffffff19166020820180517bffffffffffffffffffffffffffffffffffffffffffffffffffffffff83818316178352505050509050611bee818251604051602001611bd191906131d4565b604051602081830303815290604052612cb490919063ffffffff16565b915050949350505050565b60006103e8848402026103e585840302600181830401925050509392505050565b600080600080600085806020019051810190611c369190613fbf565b93509350935093506000821415611d4c578273ffffffffffffffffffffffffffffffffffffffff1663095ea7b385836040518363ffffffff1660e01b8152600401611c829291906139a1565b602060405180830381600087803b158015611c9c57600080fd5b505af1158015611cb0573d6000803e3d6000fd5b505050506040513d601f19601f82011682018060405250810190611cd491906139df565b508373ffffffffffffffffffffffffffffffffffffffff1663e8eda9df84833060006040518563ffffffff1660e01b8152600401611d15949392919061437f565b600060405180830381600087803b158015611d2f57600080fd5b505af1158015611d43573d6000803e3d6000fd5b50505050611ef2565b6001821415611ef1578273ffffffffffffffffffffffffffffffffffffffff1663095ea7b385836040518363ffffffff1660e01b8152600401611d909291906139a1565b602060405180830381600087803b158015611daa57600080fd5b505af1158015611dbe573d6000803e3d6000fd5b505050506040513d601f19601f82011682018060405250810190611de291906139df565b508373ffffffffffffffffffffffffffffffffffffffff166369328dec8473ffffffffffffffffffffffffffffffffffffffff1663b16a19de6040518163ffffffff1660e01b815260040160206040518083038186803b158015611e4557600080fd5b505afa158015611e59573d6000803e3d6000fd5b505050506040513d601f19601f82011682018060405250810190611e7d91906143d9565b83306040518463ffffffff1660e01b8152600401611e9d93929190614406565b602060405180830381600087803b158015611eb757600080fd5b505af1158015611ecb573d6000803e3d6000fd5b505050506040513d601f19601f82011682018060405250810190611eef9190613965565b505b5b80945050505050919050565b60008060008060008086806020019051810190611f1b919061421e565b9450945094509450945060008573ffffffffffffffffffffffffffffffffffffffff1663556d6e9f8585856040518463ffffffff1660e01b8152600401611f64939291906136f8565b60206040518083038186803b158015611f7c57600080fd5b505afa158015611f90573d6000803e3d6000fd5b505050506040513d601f19601f82011682018060405250810190611fb49190613965565b90508473ffffffffffffffffffffffffffffffffffffffff1663095ea7b387846040518363ffffffff1660e01b8152600401611ff19291906139a1565b602060405180830381600087803b15801561200b57600080fd5b505af115801561201f573d6000803e3d6000fd5b505050506040513d601f19601f8201168201806040525081019061204391906139df565b508573ffffffffffffffffffffffffffffffffffffffff16635b41b90885858560006040518563ffffffff1660e01b81526004016120849493929190614299565b600060405180830381600087803b15801561209e57600080fd5b505af11580156120b2573d6000803e3d6000fd5b50505050600a816120c39190613ad3565b9650505050505050919050565b6000806000806000808873ffffffffffffffffffffffffffffffffffffffff16630902f1ac6040518163ffffffff1660e01b815260040160606040518083038186803b15801561211f57600080fd5b505afa158015612133573d6000803e3d6000fd5b505050506040513d601f19601f820116820180604052508101906121579190613b89565b92509250925060008861216a578261216c565b835b6dffffffffffffffffffffffffffff16905060008961218b578461218d565b835b6dffffffffffffffffffffffffffff16905060006103e58a02828102816103e8860201808204935050505080838398509850985050505050505093509350939050565b606060008585858560006040516020016121ee95949392919061443d565b60405160208183030381529060405260405160240161220d919061342c565b6040516020818303038152906040527f0cb9a586000000000000000000000000000000000000000000000000000000007bffffffffffffffffffffffffffffffffffffffffffffffffffffffff19166020820180517bffffffffffffffffffffffffffffffffffffffffffffffffffffffff838183161783525050505090506122bf8182516040516020016122a291906131d4565b604051602081830303815290604052612cb490919063ffffffff16565b915050949350505050565b6060600084848460006040516020016122e69493929190614490565b604051602081830303815290604052604051602401612305919061342c565b6040516020818303038152906040527fce889281000000000000000000000000000000000000000000000000000000007bffffffffffffffffffffffffffffffffffffffffffffffffffffffff19166020820180517bffffffffffffffffffffffffffffffffffffffffffffffffffffffff838183161783525050505090506123b781825160405160200161239a91906131d4565b604051602081830303815290604052612cb490919063ffffffff16565b9150509392505050565b606060008585858560006040516020016123df959493929190613cf3565b6040516020818303038152906040526040516024016123fe919061342c565b6040516020818303038152906040527fcf8495c4000000000000000000000000000000000000000000000000000000007bffffffffffffffffffffffffffffffffffffffffffffffffffffffff19166020820180517bffffffffffffffffffffffffffffffffffffffffffffffffffffffff838183161783525050505090506124b081825160405160200161249391906131d4565b604051602081830303815290604052612cb490919063ffffffff16565b915050949350505050565b6060600084848460006040516020016124d79493929190613f7a565b6040516020818303038152906040526040516024016124f6919061342c565b6040516020818303038152906040527f8c097b86000000000000000000000000000000000000000000000000000000007bffffffffffffffffffffffffffffffffffffffffffffffffffffffff19166020820180517bffffffffffffffffffffffffffffffffffffffffffffffffffffffff838183161783525050505090506125a881825160405160200161258b91906131d4565b604051602081830303815290604052612cb490919063ffffffff16565b9150509392505050565b6000806000806000858060200190518101906125ce91906144d5565b93509350935093508273ffffffffffffffffffffffffffffffffffffffff1663095ea7b385836040518363ffffffff1660e01b81526004016126119291906139a1565b602060405180830381600087803b15801561262b57600080fd5b505af115801561263f573d6000803e3d6000fd5b505050506040513d601f19601f8201168201806040525081019061266391906139df565b5060008473ffffffffffffffffffffffffffffffffffffffff1663cc2b27d783856040518363ffffffff1660e01b81526004016126a192919061453c565b60206040518083038186803b1580156126b957600080fd5b505afa1580156126cd573d6000803e3d6000fd5b505050506040513d601f19601f820116820180604052508101906126f19190613965565b90508473ffffffffffffffffffffffffffffffffffffffff16631a4d01d28385846040518463ffffffff1660e01b815260040161273093929190614565565b600060405180830381600087803b15801561274a57600080fd5b505af115801561275e573d6000803e3d6000fd5b50505050600a8161276f9190613ad3565b95505050505050919050565b600080600080600080868060200190518101906127989190613e83565b945094509450945094508373ffffffffffffffffffffffffffffffffffffffff1663095ea7b386836040518363ffffffff1660e01b81526004016127dd9291906139a1565b602060405180830381600087803b1580156127f757600080fd5b505af115801561280b573d6000803e3d6000fd5b505050506040513d601f19601f8201168201806040525081019061282f91906139df565b5060008573ffffffffffffffffffffffffffffffffffffffff16635e0d443f8585856040518463ffffffff1660e01b815260040161286f93929190613efe565b60206040518083038186803b15801561288757600080fd5b505afa15801561289b573d6000803e3d6000fd5b505050506040513d601f19601f820116820180604052508101906128bf9190613965565b90508573ffffffffffffffffffffffffffffffffffffffff16633df0212485858560006040518563ffffffff1660e01b81526004016129019493929190613f35565b600060405180830381600087803b15801561291b57600080fd5b505af115801561292f573d6000803e3d6000fd5b50505050600a816129409190613ad3565b9650505050505050919050565b60606000848484600060405160200161296994939291906145ab565b604051602081830303815290604052604051602401612988919061342c565b6040516020818303038152906040527f1a3b3343000000000000000000000000000000000000000000000000000000007bffffffffffffffffffffffffffffffffffffffffffffffffffffffff19166020820180517bffffffffffffffffffffffffffffffffffffffffffffffffffffffff83818316178352505050509050612a3a818251604051602001612a1d91906131d4565b604051602081830303815290604052612cb490919063ffffffff16565b9150509392505050565b60008060008060008086806020019051810190612a619190614605565b945094509450945094508373ffffffffffffffffffffffffffffffffffffffff1663095ea7b386836040518363ffffffff1660e01b8152600401612aa69291906139a1565b602060405180830381600087803b158015612ac057600080fd5b505af1158015612ad4573d6000803e3d6000fd5b505050506040513d601f19601f82011682018060405250810190612af891906139df565b5060006040518061010001604052808673ffffffffffffffffffffffffffffffffffffffff1681526020018573ffffffffffffffffffffffffffffffffffffffff1681526020018462ffffff1681526020013373ffffffffffffffffffffffffffffffffffffffff16815260200142815260200183815260200160008152602001600073ffffffffffffffffffffffffffffffffffffffff1681525090508573ffffffffffffffffffffffffffffffffffffffff1663414bf389826040518263ffffffff1660e01b8152600401612bcf919061475e565b602060405180830381600087803b158015612be957600080fd5b505af1158015612bfd573d6000803e3d6000fd5b505050506040513d601f19601f82011682018060405250810190612c219190613965565b9650505050505050919050565b612caf8363a9059cbb60e01b8484604051602401612c4d9291906139a1565b604051602081830303815290604052907bffffffffffffffffffffffffffffffffffffffffffffffffffffffff19166020820180517bffffffffffffffffffffffffffffffffffffffffffffffffffffffff8381831617835250505050612e5c565b505050565b6060806040519050835180825260208201818101602087015b81831015612cea5780518352602083019250602081019050612ccd565b50855192508351830184528091508282019050602086015b81831015612d1f5780518352602083019250602081019050612d02565b50601f19601f8851850115830101166040525050508091505092915050565b606081601f83612d4e919061404f565b1015612d8f576040517f08c379a0000000000000000000000000000000000000000000000000000000008152600401612d86906147c6565b60405180910390fd5b8183612d9b919061404f565b84511015612dde576040517f08c379a0000000000000000000000000000000000000000000000000000000008152600401612dd590614832565b60405180910390fd5b6060821560008114612dff5760405191506000825260208201604052612e50565b6040519150601f8416801560200281840101858101878315602002848b0101015b81831015612e3d5780518352602083019250602081019050612e20565b50868552601f19601f8301166040525050505b50809150509392505050565b612e7b8273ffffffffffffffffffffffffffffffffffffffff16612fcd565b612eba576040517f08c379a0000000000000000000000000000000000000000000000000000000008152600401612eb19061489e565b60405180910390fd5b6000808373ffffffffffffffffffffffffffffffffffffffff1683604051612ee291906140e1565b6000604051808303816000865af19150503d8060008114612f1f576040519150601f19603f3d011682016040523d82523d6000602084013e612f24565b606091505b509150915081612f69576040517f08c379a0000000000000000000000000000000000000000000000000000000008152600401612f609061490a565b60405180910390fd5b600081511115612fc75780806020019051810190612f8791906139df565b612fc6576040517f08c379a0000000000000000000000000000000000000000000000000000000008152600401612fbd9061499c565b60405180910390fd5b5b50505050565b60008060007fc5d2460186f7233c927e7db2dcc703c0e500b653ca82273b7bfad8045d85a47060001b9050833f915080821415801561300f57506000801b8214155b92505050919050565b6000604051905090565b600080fd5b600080fd5b600080fd5b600080fd5b6000601f19601f8301169050919050565b7f4e487b7100000000000000000000000000000000000000000000000000000000600052604160045260246000fd5b61307f82613036565b810181811067ffffffffffffffff8211171561309e5761309d613047565b5b80604052505050565b60006130b1613018565b90506130bd8282613076565b919050565b600067ffffffffffffffff8211156130dd576130dc613047565b5b6130e682613036565b9050602081019050919050565b82818337600083830152505050565b6000613115613110846130c2565b6130a7565b90508281526020810184848401111561313157613130613031565b5b61313c8482856130f3565b509392505050565b600082601f8301126131595761315861302c565b5b8135613169848260208601613102565b91505092915050565b60006020828403121561318857613187613022565b5b600082013567ffffffffffffffff8111156131a6576131a5613027565b5b6131b284828501613144565b91505092915050565b6000819050919050565b6131ce816131bb565b82525050565b60006020820190506131e960008301846131c5565b92915050565b600073ffffffffffffffffffffffffffffffffffffffff82169050919050565b600061321a826131ef565b9050919050565b61322a8161320f565b811461323557600080fd5b50565b60008135905061324781613221565b92915050565b60008115159050919050565b6132628161324d565b811461326d57600080fd5b50565b60008135905061327f81613259565b92915050565b61328e816131bb565b811461329957600080fd5b50565b6000813590506132ab81613285565b92915050565b6000806000606084860312156132ca576132c9613022565b5b60006132d886828701613238565b93505060206132e986828701613270565b92505060406132fa8682870161329c565b9150509250925092565b600081600f0b9050919050565b61331a81613304565b811461332557600080fd5b50565b60008135905061333781613311565b92915050565b6000806000806080858703121561335757613356613022565b5b600061336587828801613238565b945050602061337687828801613238565b935050604061338787828801613328565b925050606061339887828801613328565b91505092959194509250565b600081519050919050565b600082825260208201905092915050565b60005b838110156133de5780820151818401526020810190506133c3565b838111156133ed576000848401525b50505050565b60006133fe826133a4565b61340881856133af565b93506134188185602086016133c0565b61342181613036565b840191505092915050565b6000602082019050818103600083015261344681846133f3565b905092915050565b6000806000806080858703121561346857613467613022565b5b600061347687828801613238565b945050602061348787828801613238565b93505060406134988782880161329c565b92505060606134a98782880161329c565b91505092959194509250565b6000806000606084860312156134ce576134cd613022565b5b60006134dc86828701613238565b93505060206134ed86828701613238565b92505060406134fe8682870161329c565b9150509250925092565b60008060006060848603121561352157613520613022565b5b600061352f8682870161329c565b935050602084013567ffffffffffffffff8111156135505761354f613027565b5b61355c86828701613144565b925050604061356d86828701613238565b9150509250925092565b600060ff82169050919050565b61358d81613577565b811461359857600080fd5b50565b6000813590506135aa81613584565b92915050565b6000806000606084860312156135c9576135c8613022565b5b60006135d786828701613238565b93505060206135e886828701613238565b92505060406135f98682870161359b565b9150509250925092565b600062ffffff82169050919050565b61361b81613603565b811461362657600080fd5b50565b60008135905061363881613612565b92915050565b6000806000806080858703121561365857613657613022565b5b600061366687828801613238565b945050602061367787828801613238565b935050604061368887828801613238565b925050606061369987828801613629565b91505092959194509250565b6000806000606084860312156136be576136bd613022565b5b60006136cc8682870161329c565b93505060206136dd8682870161329c565b92505060406136ee8682870161329c565b9150509250925092565b600060608201905061370d60008301866131c5565b61371a60208301856131c5565b61372760408301846131c5565b949350505050565b6000806000806080858703121561374957613748613022565b5b600061375787828801613238565b945050602061376887828801613238565b93505060406137798782880161359b565b925050606061378a8782880161359b565b91505092959194509250565b6000806000606084860312156137af576137ae613022565b5b60006137bd86828701613238565b93505060206137ce86828701613238565b92505060406137df86828701613328565b9150509250925092565b60008060006060848603121561380257613801613022565b5b600061381086828701613238565b935050602061382186828701613238565b925050604061383286828701613270565b9150509250925092565b6000613847826131ef565b9050919050565b6138578161383c565b811461386257600080fd5b50565b6000815190506138748161384e565b92915050565b60008151905061388981613584565b92915050565b60008151905061389e81613285565b92915050565b600080600080600060a086880312156138c0576138bf613022565b5b60006138ce88828901613865565b95505060206138df88828901613865565b94505060406138f08882890161387a565b93505060606139018882890161387a565b92505060806139128882890161388f565b9150509295509295909350565b61392881613577565b82525050565b6000606082019050613943600083018661391f565b613950602083018561391f565b61395d60408301846131c5565b949350505050565b60006020828403121561397b5761397a613022565b5b60006139898482850161388f565b91505092915050565b61399b8161320f565b82525050565b60006040820190506139b66000830185613992565b6139c360208301846131c5565b9392505050565b6000815190506139d981613259565b92915050565b6000602082840312156139f5576139f4613022565b5b6000613a03848285016139ca565b91505092915050565b6000819050919050565b6000819050919050565b6000613a3b613a36613a3184613a0c565b613a16565b6131bb565b9050919050565b613a4b81613a20565b82525050565b600060a082019050613a66600083018861391f565b613a73602083018761391f565b613a8060408301866131c5565b613a8d6060830185613a42565b613a9a60808301846131c5565b9695505050505050565b7f4e487b7100000000000000000000000000000000000000000000000000000000600052601160045260246000fd5b6000613ade826131bb565b9150613ae9836131bb565b925082821015613afc57613afb613aa4565b5b828203905092915050565b60006dffffffffffffffffffffffffffff82169050919050565b613b2a81613b07565b8114613b3557600080fd5b50565b600081519050613b4781613b21565b92915050565b600063ffffffff82169050919050565b613b6681613b4d565b8114613b7157600080fd5b50565b600081519050613b8381613b5d565b92915050565b600080600060608486031215613ba257613ba1613022565b5b6000613bb086828701613b38565b9350506020613bc186828701613b38565b9250506040613bd286828701613b74565b9150509250925092565b60008060008060808587031215613bf657613bf5613022565b5b6000613c0487828801613865565b9450506020613c1587828801613865565b9350506040613c26878288016139ca565b9250506060613c378782880161388f565b91505092959194509250565b50565b6000613c536000836133af565b9150613c5e82613c43565b600082019050919050565b6000608082019050613c7e60008301866131c5565b613c8b60208301856131c5565b613c986040830184613992565b8181036060830152613ca981613c46565b9050949350505050565b613cbc81613304565b82525050565b6000613cdd613cd8613cd384613a0c565b613a16565b613577565b9050919050565b613ced81613cc2565b82525050565b600060a082019050613d086000830188613992565b613d156020830187613992565b613d226040830186613cb3565b613d2f6060830185613cb3565b613d3c6080830184613ce4565b9695505050505050565b600060a082019050613d5b6000830188613992565b613d686020830187613992565b613d7560408301866131c5565b613d8260608301856131c5565b613d8f6080830184613ce4565b9695505050505050565b60008060008060808587031215613db357613db2613022565b5b6000613dc187828801613865565b9450506020613dd287828801613865565b9350506040613de38782880161387a565b9250506060613df48782880161388f565b91505092959194509250565b6000604082019050613e1560008301856131c5565b613e22602083018461391f565b9392505050565b6000608082019050613e3e60008301876131c5565b613e4b602083018661391f565b613e5860408301856131c5565b613e6560608301846131c5565b95945050505050565b600081519050613e7d81613311565b92915050565b600080600080600060a08688031215613e9f57613e9e613022565b5b6000613ead88828901613865565b9550506020613ebe88828901613865565b9450506040613ecf88828901613e6e565b9350506060613ee088828901613e6e565b9250506080613ef18882890161388f565b9150509295509295909350565b6000606082019050613f136000830186613cb3565b613f206020830185613cb3565b613f2d60408301846131c5565b949350505050565b6000608082019050613f4a6000830187613cb3565b613f576020830186613cb3565b613f6460408301856131c5565b613f716060830184613a42565b95945050505050565b6000608082019050613f8f6000830187613992565b613f9c6020830186613992565b613fa960408301856131c5565b613fb66060830184613ce4565b95945050505050565b60008060008060808587031215613fd957613fd8613022565b5b6000613fe787828801613865565b9450506020613ff887828801613865565b93505060406140098782880161388f565b925050606061401a8782880161388f565b91505092959194509250565b600060408201905061403b60008301856131c5565b61404860208301846131c5565b9392505050565b600061405a826131bb565b9150614065836131bb565b9250827fffffffffffffffffffffffffffffffffffffffffffffffffffffffffffffffff0382111561409a57614099613aa4565b5b828201905092915050565b600081905092915050565b60006140bb826133a4565b6140c581856140a5565b93506140d58185602086016133c0565b80840191505092915050565b60006140ed82846140b0565b915081905092915050565b600082825260208201905092915050565b7f73776170206661696c6564000000000000000000000000000000000000000000600082015250565b600061413f600b836140f8565b915061414a82614109565b602082019050919050565b6000602082019050818103600083015261416e81614132565b9050919050565b6000614180826131bb565b91507fffffffffffffffffffffffffffffffffffffffffffffffffffffffffffffffff8214156141b3576141b2613aa4565b5b600182019050919050565b60006020820190506141d36000830184613992565b92915050565b60006080820190506141ee6000830187613992565b6141fb6020830186613992565b614208604083018561391f565b6142156060830184613ce4565b95945050505050565b600080600080600060a0868803121561423a57614239613022565b5b600061424888828901613865565b955050602061425988828901613865565b945050604061426a8882890161388f565b935050606061427b8882890161388f565b925050608061428c8882890161388f565b9150509295509295909350565b60006080820190506142ae60008301876131c5565b6142bb60208301866131c5565b6142c860408301856131c5565b6142d56060830184613a42565b95945050505050565b6142e781613603565b82525050565b600060a0820190506143026000830188613992565b61430f6020830187613992565b61431c6040830186613992565b61432960608301856142de565b6143366080830184613ce4565b9695505050505050565b600061ffff82169050919050565b600061436961436461435f84613a0c565b613a16565b614340565b9050919050565b6143798161434e565b82525050565b60006080820190506143946000830187613992565b6143a160208301866131c5565b6143ae6040830185613992565b6143bb6060830184614370565b95945050505050565b6000815190506143d381613221565b92915050565b6000602082840312156143ef576143ee613022565b5b60006143fd848285016143c4565b91505092915050565b600060608201905061441b6000830186613992565b61442860208301856131c5565b6144356040830184613992565b949350505050565b600060a0820190506144526000830188613992565b61445f6020830187613992565b61446c604083018661391f565b614479606083018561391f565b6144866080830184613ce4565b9695505050505050565b60006080820190506144a56000830187613992565b6144b26020830186613992565b6144bf6040830185613cb3565b6144cc6060830184613ce4565b95945050505050565b600080600080608085870312156144ef576144ee613022565b5b60006144fd87828801613865565b945050602061450e87828801613865565b935050604061451f87828801613e6e565b92505060606145308782880161388f565b91505092959194509250565b600060408201905061455160008301856131c5565b61455e6020830184613cb3565b9392505050565b600060608201905061457a60008301866131c5565b6145876020830185613cb3565b61459460408301846131c5565b949350505050565b6145a58161324d565b82525050565b60006080820190506145c06000830187613992565b6145cd6020830186613992565b6145da604083018561459c565b6145e76060830184613ce4565b95945050505050565b6000815190506145ff81613612565b92915050565b600080600080600060a0868803121561462157614620613022565b5b600061462f88828901613865565b955050602061464088828901613865565b945050604061465188828901613865565b9350506060614662888289016145f0565b92505060806146738882890161388f565b9150509295509295909350565b6146898161320f565b82525050565b61469881613603565b82525050565b6146a7816131bb565b82525050565b6146b6816131ef565b82525050565b610100820160008201516146d36000850182614680565b5060208201516146e66020850182614680565b5060408201516146f9604085018261468f565b50606082015161470c6060850182614680565b50608082015161471f608085018261469e565b5060a082015161473260a085018261469e565b5060c082015161474560c085018261469e565b5060e082015161475860e08501826146ad565b50505050565b60006101008201905061477460008301846146bc565b92915050565b7f736c6963655f6f766572666c6f77000000000000000000000000000000000000600082015250565b60006147b0600e836140f8565b91506147bb8261477a565b602082019050919050565b600060208201905081810360008301526147df816147a3565b9050919050565b7f736c6963655f6f75744f66426f756e6473000000000000000000000000000000600082015250565b600061481c6011836140f8565b9150614827826147e6565b602082019050919050565b6000602082019050818103600083015261484b8161480f565b9050919050565b7f5361666545524332303a2063616c6c20746f206e6f6e2d636f6e747261637400600082015250565b6000614888601f836140f8565b915061489382614852565b602082019050919050565b600060208201905081810360008301526148b78161487b565b9050919050565b7f5361666545524332303a206c6f772d6c6576656c2063616c6c206661696c6564600082015250565b60006148f46020836140f8565b91506148ff826148be565b602082019050919050565b60006020820190508181036000830152614923816148e7565b9050919050565b7f5361666545524332303a204552433230206f7065726174696f6e20646964206e60008201527f6f74207375636365656400000000000000000000000000000000000000000000602082015250565b6000614986602a836140f8565b91506149918261492a565b604082019050919050565b600060208201905081810360008301526149b581614979565b905091905056fea26469706673582212208baccc09294f2becea9d32decd7adae4e1d603d12f9adb3ff1d49a538a4cb7fc64736f6c63430008090033",
  "linkReferences": {},
  "deployedLinkReferences": {}
}